{
  "_format": "hh-sol-artifact-1",
  "contractName": "Hen",
  "sourceName": "contracts/Hen.sol",
  "abi": [
    {
      "anonymous": false,
      "inputs": [
        {
          "indexed": true,
          "internalType": "address",
          "name": "owner",
          "type": "address"
        },
        {
          "indexed": true,
          "internalType": "address",
          "name": "approved",
          "type": "address"
        },
        {
          "indexed": true,
          "internalType": "uint256",
          "name": "tokenId",
          "type": "uint256"
        }
      ],
      "name": "Approval",
      "type": "event"
    },
    {
      "anonymous": false,
      "inputs": [
        {
          "indexed": true,
          "internalType": "address",
          "name": "owner",
          "type": "address"
        },
        {
          "indexed": true,
          "internalType": "address",
          "name": "operator",
          "type": "address"
        },
        {
          "indexed": false,
          "internalType": "bool",
          "name": "approved",
          "type": "bool"
        }
      ],
      "name": "ApprovalForAll",
      "type": "event"
    },
    {
      "anonymous": false,
      "inputs": [
        {
          "indexed": true,
          "internalType": "bytes32",
          "name": "role",
          "type": "bytes32"
        },
        {
          "indexed": true,
          "internalType": "bytes32",
          "name": "previousAdminRole",
          "type": "bytes32"
        },
        {
          "indexed": true,
          "internalType": "bytes32",
          "name": "newAdminRole",
          "type": "bytes32"
        }
      ],
      "name": "RoleAdminChanged",
      "type": "event"
    },
    {
      "anonymous": false,
      "inputs": [
        {
          "indexed": true,
          "internalType": "bytes32",
          "name": "role",
          "type": "bytes32"
        },
        {
          "indexed": true,
          "internalType": "address",
          "name": "account",
          "type": "address"
        },
        {
          "indexed": true,
          "internalType": "address",
          "name": "sender",
          "type": "address"
        }
      ],
      "name": "RoleGranted",
      "type": "event"
    },
    {
      "anonymous": false,
      "inputs": [
        {
          "indexed": true,
          "internalType": "bytes32",
          "name": "role",
          "type": "bytes32"
        },
        {
          "indexed": true,
          "internalType": "address",
          "name": "account",
          "type": "address"
        },
        {
          "indexed": true,
          "internalType": "address",
          "name": "sender",
          "type": "address"
        }
      ],
      "name": "RoleRevoked",
      "type": "event"
    },
    {
      "anonymous": false,
      "inputs": [
        {
          "indexed": true,
          "internalType": "address",
          "name": "from",
          "type": "address"
        },
        {
          "indexed": true,
          "internalType": "address",
          "name": "to",
          "type": "address"
        },
        {
          "indexed": true,
          "internalType": "uint256",
          "name": "tokenId",
          "type": "uint256"
        }
      ],
      "name": "Transfer",
      "type": "event"
    },
    {
      "inputs": [],
      "name": "DEFAULT_ADMIN_ROLE",
      "outputs": [
        {
          "internalType": "bytes32",
          "name": "",
          "type": "bytes32"
        }
      ],
      "stateMutability": "view",
      "type": "function"
    },
    {
      "inputs": [],
      "name": "MINTER_ROLE",
      "outputs": [
        {
          "internalType": "bytes32",
          "name": "",
          "type": "bytes32"
        }
      ],
      "stateMutability": "view",
      "type": "function"
    },
    {
      "inputs": [
        {
          "internalType": "address",
          "name": "to",
          "type": "address"
        },
        {
          "internalType": "uint256",
          "name": "tokenId",
          "type": "uint256"
        }
      ],
      "name": "approve",
      "outputs": [],
      "stateMutability": "nonpayable",
      "type": "function"
    },
    {
      "inputs": [
        {
          "internalType": "address",
          "name": "owner",
          "type": "address"
        }
      ],
      "name": "balanceOf",
      "outputs": [
        {
          "internalType": "uint256",
          "name": "",
          "type": "uint256"
        }
      ],
      "stateMutability": "view",
      "type": "function"
    },
    {
      "inputs": [
        {
          "internalType": "uint256",
          "name": "tokenId",
          "type": "uint256"
        }
      ],
      "name": "burn",
      "outputs": [],
      "stateMutability": "nonpayable",
      "type": "function"
    },
    {
      "inputs": [
        {
          "internalType": "uint256",
          "name": "tokenId",
          "type": "uint256"
        }
      ],
      "name": "getApproved",
      "outputs": [
        {
          "internalType": "address",
          "name": "",
          "type": "address"
        }
      ],
      "stateMutability": "view",
      "type": "function"
    },
    {
      "inputs": [
        {
          "internalType": "bytes32",
          "name": "role",
          "type": "bytes32"
        }
      ],
      "name": "getRoleAdmin",
      "outputs": [
        {
          "internalType": "bytes32",
          "name": "",
          "type": "bytes32"
        }
      ],
      "stateMutability": "view",
      "type": "function"
    },
    {
      "inputs": [
        {
          "internalType": "bytes32",
          "name": "role",
          "type": "bytes32"
        },
        {
          "internalType": "address",
          "name": "account",
          "type": "address"
        }
      ],
      "name": "grantRole",
      "outputs": [],
      "stateMutability": "nonpayable",
      "type": "function"
    },
    {
      "inputs": [
        {
          "internalType": "bytes32",
          "name": "role",
          "type": "bytes32"
        },
        {
          "internalType": "address",
          "name": "account",
          "type": "address"
        }
      ],
      "name": "hasRole",
      "outputs": [
        {
          "internalType": "bool",
          "name": "",
          "type": "bool"
        }
      ],
      "stateMutability": "view",
      "type": "function"
    },
    {
      "inputs": [
        {
          "internalType": "string",
          "name": "name",
          "type": "string"
        },
        {
          "internalType": "string",
          "name": "ticker",
          "type": "string"
        }
      ],
      "name": "initialize",
      "outputs": [],
      "stateMutability": "nonpayable",
      "type": "function"
    },
    {
      "inputs": [
        {
          "internalType": "address",
          "name": "owner",
          "type": "address"
        },
        {
          "internalType": "address",
          "name": "operator",
          "type": "address"
        }
      ],
      "name": "isApprovedForAll",
      "outputs": [
        {
          "internalType": "bool",
          "name": "",
          "type": "bool"
        }
      ],
      "stateMutability": "view",
      "type": "function"
    },
    {
      "inputs": [],
      "name": "name",
      "outputs": [
        {
          "internalType": "string",
          "name": "",
          "type": "string"
        }
      ],
      "stateMutability": "view",
      "type": "function"
    },
    {
      "inputs": [
        {
          "internalType": "uint256",
          "name": "tokenId",
          "type": "uint256"
        }
      ],
      "name": "ownerOf",
      "outputs": [
        {
          "internalType": "address",
          "name": "",
          "type": "address"
        }
      ],
      "stateMutability": "view",
      "type": "function"
    },
    {
      "inputs": [
        {
          "internalType": "bytes32",
          "name": "role",
          "type": "bytes32"
        },
        {
          "internalType": "address",
          "name": "account",
          "type": "address"
        }
      ],
      "name": "renounceRole",
      "outputs": [],
      "stateMutability": "nonpayable",
      "type": "function"
    },
    {
      "inputs": [
        {
          "internalType": "bytes32",
          "name": "role",
          "type": "bytes32"
        },
        {
          "internalType": "address",
          "name": "account",
          "type": "address"
        }
      ],
      "name": "revokeRole",
      "outputs": [],
      "stateMutability": "nonpayable",
      "type": "function"
    },
    {
      "inputs": [
        {
          "internalType": "address",
          "name": "to",
          "type": "address"
        },
        {
          "internalType": "uint256",
          "name": "tokenId",
          "type": "uint256"
        },
        {
          "internalType": "string",
          "name": "uri",
          "type": "string"
        }
      ],
      "name": "safeMint",
      "outputs": [],
      "stateMutability": "nonpayable",
      "type": "function"
    },
    {
      "inputs": [
        {
          "internalType": "address",
          "name": "from",
          "type": "address"
        },
        {
          "internalType": "address",
          "name": "to",
          "type": "address"
        },
        {
          "internalType": "uint256",
          "name": "tokenId",
          "type": "uint256"
        }
      ],
      "name": "safeTransferFrom",
      "outputs": [],
      "stateMutability": "nonpayable",
      "type": "function"
    },
    {
      "inputs": [
        {
          "internalType": "address",
          "name": "from",
          "type": "address"
        },
        {
          "internalType": "address",
          "name": "to",
          "type": "address"
        },
        {
          "internalType": "uint256",
          "name": "tokenId",
          "type": "uint256"
        },
        {
          "internalType": "bytes",
          "name": "_data",
          "type": "bytes"
        }
      ],
      "name": "safeTransferFrom",
      "outputs": [],
      "stateMutability": "nonpayable",
      "type": "function"
    },
    {
      "inputs": [
        {
          "internalType": "address",
          "name": "operator",
          "type": "address"
        },
        {
          "internalType": "bool",
          "name": "approved",
          "type": "bool"
        }
      ],
      "name": "setApprovalForAll",
      "outputs": [],
      "stateMutability": "nonpayable",
      "type": "function"
    },
    {
      "inputs": [
        {
          "internalType": "bytes4",
          "name": "interfaceId",
          "type": "bytes4"
        }
      ],
      "name": "supportsInterface",
      "outputs": [
        {
          "internalType": "bool",
          "name": "",
          "type": "bool"
        }
      ],
      "stateMutability": "view",
      "type": "function"
    },
    {
      "inputs": [],
      "name": "symbol",
      "outputs": [
        {
          "internalType": "string",
          "name": "",
          "type": "string"
        }
      ],
      "stateMutability": "view",
      "type": "function"
    },
    {
      "inputs": [
        {
          "internalType": "uint256",
          "name": "tokenId",
          "type": "uint256"
        }
      ],
      "name": "tokenURI",
      "outputs": [
        {
          "internalType": "string",
          "name": "",
          "type": "string"
        }
      ],
      "stateMutability": "view",
      "type": "function"
    },
    {
      "inputs": [
        {
          "internalType": "address",
          "name": "from",
          "type": "address"
        },
        {
          "internalType": "address",
          "name": "to",
          "type": "address"
        },
        {
          "internalType": "uint256",
          "name": "tokenId",
          "type": "uint256"
        }
      ],
      "name": "transferFrom",
      "outputs": [],
      "stateMutability": "nonpayable",
      "type": "function"
    }
  ],
  "bytecode": "0x608060405234801561001057600080fd5b506122ab806100206000396000f3fe608060405234801561001057600080fd5b506004361061014d5760003560e01c80636352211e116100c3578063b88d4fde1161007c578063b88d4fde146102ce578063c87b56dd146102e1578063cd279c7c146102f4578063d539139314610307578063d547741f1461032e578063e985e9c51461034157600080fd5b80636352211e1461027257806370a082311461028557806391d148541461029857806395d89b41146102ab578063a217fddf146102b3578063a22cb465146102bb57600080fd5b8063248a9ca311610115578063248a9ca3146101e25780632f2ff15d1461021357806336568abe1461022657806342842e0e1461023957806342966c681461024c5780634cd88b761461025f57600080fd5b806301ffc9a71461015257806306fdde031461017a578063081812fc1461018f578063095ea7b3146101ba57806323b872dd146101cf575b600080fd5b610165610160366004611e64565b61037d565b60405190151581526020015b60405180910390f35b61018261038e565b604051610171919061200a565b6101a261019d366004611e2a565b610420565b6040516001600160a01b039091168152602001610171565b6101cd6101c8366004611dac565b6104ad565b005b6101cd6101dd366004611cbe565b6105c3565b6102056101f0366004611e2a565b600090815260fb602052604090206001015490565b604051908152602001610171565b6101cd610221366004611e42565b6105f5565b6101cd610234366004611e42565b61061b565b6101cd610247366004611cbe565b610699565b6101cd61025a366004611e2a565b6106b4565b6101cd61026d366004611e9c565b61072e565b6101a2610280366004611e2a565b6107f2565b610205610293366004611c72565b610869565b6101656102a6366004611e42565b6108f0565b61018261091b565b610205600081565b6101cd6102c9366004611d72565b61092a565b6101cd6102dc366004611cf9565b610935565b6101826102ef366004611e2a565b61096d565b6101cd610302366004611dd5565b610978565b6102057f9f2df0fed2c77648de5860a4cc508cd0818c85b8b8a1ab4ceeef8d981c8956a681565b6101cd61033c366004611e42565b6109b7565b61016561034f366004611c8c565b6001600160a01b039182166000908152606a6020908152604080832093909416825291909152205460ff1690565b6000610388826109dd565b92915050565b60606065805461039d906121b3565b80601f01602080910402602001604051908101604052809291908181526020018280546103c9906121b3565b80156104165780601f106103eb57610100808354040283529160200191610416565b820191906000526020600020905b8154815290600101906020018083116103f957829003601f168201915b5050505050905090565b600061042b82610a02565b6104915760405162461bcd60e51b815260206004820152602c60248201527f4552433732313a20617070726f76656420717565727920666f72206e6f6e657860448201526b34b9ba32b73a103a37b5b2b760a11b60648201526084015b60405180910390fd5b506000908152606960205260409020546001600160a01b031690565b60006104b8826107f2565b9050806001600160a01b0316836001600160a01b031614156105265760405162461bcd60e51b815260206004820152602160248201527f4552433732313a20617070726f76616c20746f2063757272656e74206f776e656044820152603960f91b6064820152608401610488565b336001600160a01b03821614806105425750610542813361034f565b6105b45760405162461bcd60e51b815260206004820152603860248201527f4552433732313a20617070726f76652063616c6c6572206973206e6f74206f7760448201527f6e6572206e6f7220617070726f76656420666f7220616c6c00000000000000006064820152608401610488565b6105be8383610a1f565b505050565b6105ce335b82610a8d565b6105ea5760405162461bcd60e51b8152600401610488906120bd565b6105be838383610b77565b600082815260fb60205260409020600101546106118133610d17565b6105be8383610d7b565b6001600160a01b038116331461068b5760405162461bcd60e51b815260206004820152602f60248201527f416363657373436f6e74726f6c3a2063616e206f6e6c792072656e6f756e636560448201526e103937b632b9903337b91039b2b63360891b6064820152608401610488565b6106958282610e01565b5050565b6105be83838360405180602001604052806000815250610935565b6106bd336105c8565b6107225760405162461bcd60e51b815260206004820152603060248201527f4552433732314275726e61626c653a2063616c6c6572206973206e6f74206f7760448201526f1b995c881b9bdc88185c1c1c9bdd995960821b6064820152608401610488565b61072b81610e68565b50565b600054610100900460ff1680610747575060005460ff16155b6107635760405162461bcd60e51b81526004016104889061206f565b600054610100900460ff16158015610785576000805461ffff19166101011790555b61078f8383610e71565b610797610ee2565b61079f610ee2565b6107a7610ee2565b6107b2600033610d7b565b6107dc7f9f2df0fed2c77648de5860a4cc508cd0818c85b8b8a1ab4ceeef8d981c8956a633610d7b565b80156105be576000805461ff0019169055505050565b6000818152606760205260408120546001600160a01b0316806103885760405162461bcd60e51b815260206004820152602960248201527f4552433732313a206f776e657220717565727920666f72206e6f6e657869737460448201526832b73a103a37b5b2b760b91b6064820152608401610488565b60006001600160a01b0382166108d45760405162461bcd60e51b815260206004820152602a60248201527f4552433732313a2062616c616e636520717565727920666f7220746865207a65604482015269726f206164647265737360b01b6064820152608401610488565b506001600160a01b031660009081526068602052604090205490565b600091825260fb602090815260408084206001600160a01b0393909316845291905290205460ff1690565b60606066805461039d906121b3565b610695338383610f65565b61093f3383610a8d565b61095b5760405162461bcd60e51b8152600401610488906120bd565b61096784848484611034565b50505050565b606061038882611067565b7f9f2df0fed2c77648de5860a4cc508cd0818c85b8b8a1ab4ceeef8d981c8956a66109a38133610d17565b6109ad84846111d6565b61096783836111f0565b600082815260fb60205260409020600101546109d38133610d17565b6105be8383610e01565b60006001600160e01b03198216637965db0b60e01b148061038857506103888261127b565b6000908152606760205260409020546001600160a01b0316151590565b600081815260696020526040902080546001600160a01b0319166001600160a01b0384169081179091558190610a54826107f2565b6001600160a01b03167f8c5be1e5ebec7d5bd14f71427d1e84f3dd0314c0f7b2291e5b200ac8c7c3b92560405160405180910390a45050565b6000610a9882610a02565b610af95760405162461bcd60e51b815260206004820152602c60248201527f4552433732313a206f70657261746f7220717565727920666f72206e6f6e657860448201526b34b9ba32b73a103a37b5b2b760a11b6064820152608401610488565b6000610b04836107f2565b9050806001600160a01b0316846001600160a01b03161480610b3f5750836001600160a01b0316610b3484610420565b6001600160a01b0316145b80610b6f57506001600160a01b038082166000908152606a602090815260408083209388168352929052205460ff165b949350505050565b826001600160a01b0316610b8a826107f2565b6001600160a01b031614610bf25760405162461bcd60e51b815260206004820152602960248201527f4552433732313a207472616e73666572206f6620746f6b656e2074686174206960448201526839903737ba1037bbb760b91b6064820152608401610488565b6001600160a01b038216610c545760405162461bcd60e51b8152602060048201526024808201527f4552433732313a207472616e7366657220746f20746865207a65726f206164646044820152637265737360e01b6064820152608401610488565b610c5f600082610a1f565b6001600160a01b0383166000908152606860205260408120805460019290610c88908490612159565b90915550506001600160a01b0382166000908152606860205260408120805460019290610cb690849061210e565b909155505060008181526067602052604080822080546001600160a01b0319166001600160a01b0386811691821790925591518493918716917fddf252ad1be2c89b69c2b068fc378daa952ba7f163c4a11628f55a4df523b3ef91a4505050565b610d2182826108f0565b61069557610d39816001600160a01b031660146112cb565b610d448360206112cb565b604051602001610d55929190611f58565b60408051601f198184030181529082905262461bcd60e51b82526104889160040161200a565b610d8582826108f0565b61069557600082815260fb602090815260408083206001600160a01b03851684529091529020805460ff19166001179055610dbd3390565b6001600160a01b0316816001600160a01b0316837f2f8788117e7eff1d82e926ec794901d17c78024a50270940304540a733656f0d60405160405180910390a45050565b610e0b82826108f0565b1561069557600082815260fb602090815260408083206001600160a01b0385168085529252808320805460ff1916905551339285917ff6391f5c32d9c69d2a47ea670b442974b53935d1edc7fd64eb21e047a839171b9190a45050565b61072b816114b4565b600054610100900460ff1680610e8a575060005460ff16155b610ea65760405162461bcd60e51b81526004016104889061206f565b600054610100900460ff16158015610ec8576000805461ffff19166101011790555b610ed06114f4565b610ed86114f4565b6107dc838361155e565b600054610100900460ff1680610efb575060005460ff16155b610f175760405162461bcd60e51b81526004016104889061206f565b600054610100900460ff16158015610f39576000805461ffff19166101011790555b610f416114f4565b610f496114f4565b610f516114f4565b801561072b576000805461ff001916905550565b816001600160a01b0316836001600160a01b03161415610fc75760405162461bcd60e51b815260206004820152601960248201527f4552433732313a20617070726f766520746f2063616c6c6572000000000000006044820152606401610488565b6001600160a01b038381166000818152606a6020908152604080832094871680845294825291829020805460ff191686151590811790915591519182527f17307eab39ab6107e8899845ad3d59bd9653f200f220920489ca2b5937696c31910160405180910390a3505050565b61103f848484610b77565b61104b848484846115f3565b6109675760405162461bcd60e51b81526004016104889061201d565b606061107282610a02565b6110d85760405162461bcd60e51b815260206004820152603160248201527f45524337323155524953746f726167653a2055524920717565727920666f72206044820152703737b732bc34b9ba32b73a103a37b5b2b760791b6064820152608401610488565b600082815260976020526040812080546110f1906121b3565b80601f016020809104026020016040519081016040528092919081815260200182805461111d906121b3565b801561116a5780601f1061113f5761010080835404028352916020019161116a565b820191906000526020600020905b81548152906001019060200180831161114d57829003601f168201915b50505050509050600061118860408051602081019091526000815290565b905080516000141561119b575092915050565b8151156111cd5780826040516020016111b5929190611f29565b60405160208183030381529060405292505050919050565b610b6f84611700565b6106958282604051806020016040528060008152506117d7565b6111f982610a02565b61125c5760405162461bcd60e51b815260206004820152602e60248201527f45524337323155524953746f726167653a2055524920736574206f66206e6f6e60448201526d32bc34b9ba32b73a103a37b5b2b760911b6064820152608401610488565b600082815260976020908152604090912082516105be92840190611af2565b60006001600160e01b031982166380ac58cd60e01b14806112ac57506001600160e01b03198216635b5e139f60e01b145b8061038857506301ffc9a760e01b6001600160e01b0319831614610388565b606060006112da83600261213a565b6112e590600261210e565b67ffffffffffffffff81111561130b57634e487b7160e01b600052604160045260246000fd5b6040519080825280601f01601f191660200182016040528015611335576020820181803683370190505b509050600360fc1b8160008151811061135e57634e487b7160e01b600052603260045260246000fd5b60200101906001600160f81b031916908160001a905350600f60fb1b8160018151811061139b57634e487b7160e01b600052603260045260246000fd5b60200101906001600160f81b031916908160001a90535060006113bf84600261213a565b6113ca90600161210e565b90505b600181111561145e576f181899199a1a9b1b9c1cb0b131b232b360811b85600f166010811061140c57634e487b7160e01b600052603260045260246000fd5b1a60f81b82828151811061143057634e487b7160e01b600052603260045260246000fd5b60200101906001600160f81b031916908160001a90535060049490941c936114578161219c565b90506113cd565b5083156114ad5760405162461bcd60e51b815260206004820181905260248201527f537472696e67733a20686578206c656e67746820696e73756666696369656e746044820152606401610488565b9392505050565b6114bd8161180a565b600081815260976020526040902080546114d6906121b3565b15905061072b57600081815260976020526040812061072b91611b76565b600054610100900460ff168061150d575060005460ff16155b6115295760405162461bcd60e51b81526004016104889061206f565b600054610100900460ff16158015610f51576000805461ffff1916610101179055801561072b576000805461ff001916905550565b600054610100900460ff1680611577575060005460ff16155b6115935760405162461bcd60e51b81526004016104889061206f565b600054610100900460ff161580156115b5576000805461ffff19166101011790555b82516115c8906065906020860190611af2565b5081516115dc906066906020850190611af2565b5080156105be576000805461ff0019169055505050565b60006001600160a01b0384163b156116f557604051630a85bd0160e11b81526001600160a01b0385169063150b7a0290611637903390899088908890600401611fcd565b602060405180830381600087803b15801561165157600080fd5b505af1925050508015611681575060408051601f3d908101601f1916820190925261167e91810190611e80565b60015b6116db573d8080156116af576040519150601f19603f3d011682016040523d82523d6000602084013e6116b4565b606091505b5080516116d35760405162461bcd60e51b81526004016104889061201d565b805181602001fd5b6001600160e01b031916630a85bd0160e11b149050610b6f565b506001949350505050565b606061170b82610a02565b61176f5760405162461bcd60e51b815260206004820152602f60248201527f4552433732314d657461646174613a2055524920717565727920666f72206e6f60448201526e3732bc34b9ba32b73a103a37b5b2b760891b6064820152608401610488565b600061178660408051602081019091526000815290565b905060008151116117a657604051806020016040528060008152506114ad565b806117b0846118a5565b6040516020016117c1929190611f29565b6040516020818303038152906040529392505050565b6117e183836119bf565b6117ee60008484846115f3565b6105be5760405162461bcd60e51b81526004016104889061201d565b6000611815826107f2565b9050611822600083610a1f565b6001600160a01b038116600090815260686020526040812080546001929061184b908490612159565b909155505060008281526067602052604080822080546001600160a01b0319169055518391906001600160a01b038416907fddf252ad1be2c89b69c2b068fc378daa952ba7f163c4a11628f55a4df523b3ef908390a45050565b6060816118c95750506040805180820190915260018152600360fc1b602082015290565b8160005b81156118f357806118dd816121ee565b91506118ec9050600a83612126565b91506118cd565b60008167ffffffffffffffff81111561191c57634e487b7160e01b600052604160045260246000fd5b6040519080825280601f01601f191660200182016040528015611946576020820181803683370190505b5090505b8415610b6f5761195b600183612159565b9150611968600a86612209565b61197390603061210e565b60f81b81838151811061199657634e487b7160e01b600052603260045260246000fd5b60200101906001600160f81b031916908160001a9053506119b8600a86612126565b945061194a565b6001600160a01b038216611a155760405162461bcd60e51b815260206004820181905260248201527f4552433732313a206d696e7420746f20746865207a65726f20616464726573736044820152606401610488565b611a1e81610a02565b15611a6b5760405162461bcd60e51b815260206004820152601c60248201527f4552433732313a20746f6b656e20616c7265616479206d696e746564000000006044820152606401610488565b6001600160a01b0382166000908152606860205260408120805460019290611a9490849061210e565b909155505060008181526067602052604080822080546001600160a01b0319166001600160a01b03861690811790915590518392907fddf252ad1be2c89b69c2b068fc378daa952ba7f163c4a11628f55a4df523b3ef908290a45050565b828054611afe906121b3565b90600052602060002090601f016020900481019282611b205760008555611b66565b82601f10611b3957805160ff1916838001178555611b66565b82800160010185558215611b66579182015b82811115611b66578251825591602001919060010190611b4b565b50611b72929150611bac565b5090565b508054611b82906121b3565b6000825580601f10611b92575050565b601f01602090049060005260206000209081019061072b91905b5b80821115611b725760008155600101611bad565b600067ffffffffffffffff80841115611bdc57611bdc612249565b604051601f8501601f19908116603f01168101908282118183101715611c0457611c04612249565b81604052809350858152868686011115611c1d57600080fd5b858560208301376000602087830101525050509392505050565b80356001600160a01b0381168114611c4e57600080fd5b919050565b600082601f830112611c63578081fd5b6114ad83833560208501611bc1565b600060208284031215611c83578081fd5b6114ad82611c37565b60008060408385031215611c9e578081fd5b611ca783611c37565b9150611cb560208401611c37565b90509250929050565b600080600060608486031215611cd2578081fd5b611cdb84611c37565b9250611ce960208501611c37565b9150604084013590509250925092565b60008060008060808587031215611d0e578081fd5b611d1785611c37565b9350611d2560208601611c37565b925060408501359150606085013567ffffffffffffffff811115611d47578182fd5b8501601f81018713611d57578182fd5b611d6687823560208401611bc1565b91505092959194509250565b60008060408385031215611d84578182fd5b611d8d83611c37565b915060208301358015158114611da1578182fd5b809150509250929050565b60008060408385031215611dbe578182fd5b611dc783611c37565b946020939093013593505050565b600080600060608486031215611de9578283fd5b611df284611c37565b925060208401359150604084013567ffffffffffffffff811115611e14578182fd5b611e2086828701611c53565b9150509250925092565b600060208284031215611e3b578081fd5b5035919050565b60008060408385031215611e54578182fd5b82359150611cb560208401611c37565b600060208284031215611e75578081fd5b81356114ad8161225f565b600060208284031215611e91578081fd5b81516114ad8161225f565b60008060408385031215611eae578182fd5b823567ffffffffffffffff80821115611ec5578384fd5b611ed186838701611c53565b93506020850135915080821115611ee6578283fd5b50611ef385828601611c53565b9150509250929050565b60008151808452611f15816020860160208601612170565b601f01601f19169290920160200192915050565b60008351611f3b818460208801612170565b835190830190611f4f818360208801612170565b01949350505050565b7f416363657373436f6e74726f6c3a206163636f756e7420000000000000000000815260008351611f90816017850160208801612170565b7001034b99036b4b9b9b4b733903937b6329607d1b6017918401918201528351611fc1816028840160208801612170565b01602801949350505050565b6001600160a01b038581168252841660208201526040810183905260806060820181905260009061200090830184611efd565b9695505050505050565b6020815260006114ad6020830184611efd565b60208082526032908201527f4552433732313a207472616e7366657220746f206e6f6e20455243373231526560408201527131b2b4bb32b91034b6b83632b6b2b73a32b960711b606082015260800190565b6020808252602e908201527f496e697469616c697a61626c653a20636f6e747261637420697320616c72656160408201526d191e481a5b9a5d1a585b1a5e995960921b606082015260800190565b60208082526031908201527f4552433732313a207472616e736665722063616c6c6572206973206e6f74206f6040820152701ddb995c881b9bdc88185c1c1c9bdd9959607a1b606082015260800190565b600082198211156121215761212161221d565b500190565b60008261213557612135612233565b500490565b60008160001904831182151516156121545761215461221d565b500290565b60008282101561216b5761216b61221d565b500390565b60005b8381101561218b578181015183820152602001612173565b838111156109675750506000910152565b6000816121ab576121ab61221d565b506000190190565b600181811c908216806121c757607f821691505b602082108114156121e857634e487b7160e01b600052602260045260246000fd5b50919050565b60006000198214156122025761220261221d565b5060010190565b60008261221857612218612233565b500690565b634e487b7160e01b600052601160045260246000fd5b634e487b7160e01b600052601260045260246000fd5b634e487b7160e01b600052604160045260246000fd5b6001600160e01b03198116811461072b57600080fdfea26469706673582212208821ab54bc686a56fafffdffd07b4e5208a5b940202da052d83930f50066741464736f6c63430008040033",
  "linkReferences": {},
  "deployedLinkReferences": {}
}