{
  "_format": "hh-sol-artifact-1",
  "contractName": "Hen",
  "sourceName": "contracts/Hen.sol",
  "abi": [
    {
      "anonymous": false,
      "inputs": [
        {
          "indexed": true,
          "internalType": "address",
          "name": "owner",
          "type": "address"
        },
        {
          "indexed": true,
          "internalType": "address",
          "name": "approved",
          "type": "address"
        },
        {
          "indexed": true,
          "internalType": "uint256",
          "name": "tokenId",
          "type": "uint256"
        }
      ],
      "name": "Approval",
      "type": "event"
    },
    {
      "anonymous": false,
      "inputs": [
        {
          "indexed": true,
          "internalType": "address",
          "name": "owner",
          "type": "address"
        },
        {
          "indexed": true,
          "internalType": "address",
          "name": "operator",
          "type": "address"
        },
        {
          "indexed": false,
          "internalType": "bool",
          "name": "approved",
          "type": "bool"
        }
      ],
      "name": "ApprovalForAll",
      "type": "event"
    },
    {
      "anonymous": false,
      "inputs": [
        {
          "indexed": true,
          "internalType": "address",
          "name": "previousOwner",
          "type": "address"
        },
        {
          "indexed": true,
          "internalType": "address",
          "name": "newOwner",
          "type": "address"
        }
      ],
      "name": "OwnershipTransferred",
      "type": "event"
    },
    {
      "anonymous": false,
      "inputs": [
        {
          "indexed": true,
          "internalType": "address",
          "name": "from",
          "type": "address"
        },
        {
          "indexed": true,
          "internalType": "address",
          "name": "to",
          "type": "address"
        },
        {
          "indexed": true,
          "internalType": "uint256",
          "name": "tokenId",
          "type": "uint256"
        }
      ],
      "name": "Transfer",
      "type": "event"
    },
    {
      "inputs": [
        {
          "internalType": "address",
          "name": "to",
          "type": "address"
        },
        {
          "internalType": "uint256",
          "name": "tokenId",
          "type": "uint256"
        }
      ],
      "name": "approve",
      "outputs": [],
      "stateMutability": "nonpayable",
      "type": "function"
    },
    {
      "inputs": [
        {
          "internalType": "address",
          "name": "owner",
          "type": "address"
        }
      ],
      "name": "balanceOf",
      "outputs": [
        {
          "internalType": "uint256",
          "name": "",
          "type": "uint256"
        }
      ],
      "stateMutability": "view",
      "type": "function"
    },
    {
      "inputs": [
        {
          "internalType": "uint256",
          "name": "tokenId",
          "type": "uint256"
        }
      ],
      "name": "burn",
      "outputs": [],
      "stateMutability": "nonpayable",
      "type": "function"
    },
    {
      "inputs": [
        {
          "internalType": "uint256",
          "name": "tokenId",
          "type": "uint256"
        }
      ],
      "name": "getApproved",
      "outputs": [
        {
          "internalType": "address",
          "name": "",
          "type": "address"
        }
      ],
      "stateMutability": "view",
      "type": "function"
    },
    {
      "inputs": [],
      "name": "getEggPrice",
      "outputs": [
        {
          "internalType": "uint256",
          "name": "",
          "type": "uint256"
        }
      ],
      "stateMutability": "view",
      "type": "function"
    },
    {
      "inputs": [],
      "name": "getHenToken",
      "outputs": [
        {
          "internalType": "contract HenHouse",
          "name": "",
          "type": "address"
        }
      ],
      "stateMutability": "view",
      "type": "function"
    },
    {
      "inputs": [
        {
          "internalType": "string",
          "name": "name",
          "type": "string"
        },
        {
          "internalType": "string",
          "name": "ticker",
          "type": "string"
        }
      ],
      "name": "initialize",
      "outputs": [],
      "stateMutability": "nonpayable",
      "type": "function"
    },
    {
      "inputs": [
        {
          "internalType": "address",
          "name": "owner",
          "type": "address"
        },
        {
          "internalType": "address",
          "name": "operator",
          "type": "address"
        }
      ],
      "name": "isApprovedForAll",
      "outputs": [
        {
          "internalType": "bool",
          "name": "",
          "type": "bool"
        }
      ],
      "stateMutability": "view",
      "type": "function"
    },
    {
      "inputs": [],
      "name": "name",
      "outputs": [
        {
          "internalType": "string",
          "name": "",
          "type": "string"
        }
      ],
      "stateMutability": "view",
      "type": "function"
    },
    {
      "inputs": [],
      "name": "owner",
      "outputs": [
        {
          "internalType": "address",
          "name": "",
          "type": "address"
        }
      ],
      "stateMutability": "view",
      "type": "function"
    },
    {
      "inputs": [
        {
          "internalType": "uint256",
          "name": "tokenId",
          "type": "uint256"
        }
      ],
      "name": "ownerOf",
      "outputs": [
        {
          "internalType": "address",
          "name": "",
          "type": "address"
        }
      ],
      "stateMutability": "view",
      "type": "function"
    },
    {
      "inputs": [],
      "name": "renounceOwnership",
      "outputs": [],
      "stateMutability": "nonpayable",
      "type": "function"
    },
    {
      "inputs": [
        {
          "internalType": "address",
          "name": "to",
          "type": "address"
        },
        {
          "internalType": "string",
          "name": "uri",
          "type": "string"
        }
      ],
      "name": "safeMint",
      "outputs": [],
      "stateMutability": "nonpayable",
      "type": "function"
    },
    {
      "inputs": [
        {
          "internalType": "address",
          "name": "from",
          "type": "address"
        },
        {
          "internalType": "address",
          "name": "to",
          "type": "address"
        },
        {
          "internalType": "uint256",
          "name": "tokenId",
          "type": "uint256"
        }
      ],
      "name": "safeTransferFrom",
      "outputs": [],
      "stateMutability": "nonpayable",
      "type": "function"
    },
    {
      "inputs": [
        {
          "internalType": "address",
          "name": "from",
          "type": "address"
        },
        {
          "internalType": "address",
          "name": "to",
          "type": "address"
        },
        {
          "internalType": "uint256",
          "name": "tokenId",
          "type": "uint256"
        },
        {
          "internalType": "bytes",
          "name": "_data",
          "type": "bytes"
        }
      ],
      "name": "safeTransferFrom",
      "outputs": [],
      "stateMutability": "nonpayable",
      "type": "function"
    },
    {
      "inputs": [
        {
          "internalType": "address",
          "name": "operator",
          "type": "address"
        },
        {
          "internalType": "bool",
          "name": "approved",
          "type": "bool"
        }
      ],
      "name": "setApprovalForAll",
      "outputs": [],
      "stateMutability": "nonpayable",
      "type": "function"
    },
    {
      "inputs": [
        {
          "internalType": "uint256",
          "name": "eggPrice",
          "type": "uint256"
        }
      ],
      "name": "setEggPrice",
      "outputs": [],
      "stateMutability": "nonpayable",
      "type": "function"
    },
    {
      "inputs": [
        {
          "internalType": "contract HenHouse",
          "name": "henHouse",
          "type": "address"
        }
      ],
      "name": "setHenToken",
      "outputs": [],
      "stateMutability": "nonpayable",
      "type": "function"
    },
    {
      "inputs": [
        {
          "internalType": "bytes4",
          "name": "interfaceId",
          "type": "bytes4"
        }
      ],
      "name": "supportsInterface",
      "outputs": [
        {
          "internalType": "bool",
          "name": "",
          "type": "bool"
        }
      ],
      "stateMutability": "view",
      "type": "function"
    },
    {
      "inputs": [],
      "name": "symbol",
      "outputs": [
        {
          "internalType": "string",
          "name": "",
          "type": "string"
        }
      ],
      "stateMutability": "view",
      "type": "function"
    },
    {
      "inputs": [
        {
          "internalType": "uint256",
          "name": "tokenId",
          "type": "uint256"
        }
      ],
      "name": "tokenURI",
      "outputs": [
        {
          "internalType": "string",
          "name": "",
          "type": "string"
        }
      ],
      "stateMutability": "view",
      "type": "function"
    },
    {
      "inputs": [
        {
          "internalType": "address",
          "name": "from",
          "type": "address"
        },
        {
          "internalType": "address",
          "name": "to",
          "type": "address"
        },
        {
          "internalType": "uint256",
          "name": "tokenId",
          "type": "uint256"
        }
      ],
      "name": "transferFrom",
      "outputs": [],
      "stateMutability": "nonpayable",
      "type": "function"
    },
    {
      "inputs": [
        {
          "internalType": "address",
          "name": "newOwner",
          "type": "address"
        }
      ],
      "name": "transferOwnership",
      "outputs": [],
      "stateMutability": "nonpayable",
      "type": "function"
    }
  ],
  "bytecode": "0x608060405234801561001057600080fd5b50612045806100206000396000f3fe608060405234801561001057600080fd5b506004361061014d5760003560e01c806370f80375116100c3578063ab02811f1161007c578063ab02811f146102ae578063b88d4fde146102c0578063c87b56dd146102d3578063d204c45e146102e6578063e985e9c5146102f9578063f2fde38b1461033557600080fd5b806370f8037514610254578063715018a6146102675780638da5cb5b1461026f57806395d89b4114610280578063a1d515c314610288578063a22cb4651461029b57600080fd5b806342842e0e1161011557806342842e0e146101e257806342966c68146101f55780634cd88b7614610208578063514b15701461021b5780636352211e1461022e57806370a082311461024157600080fd5b806301ffc9a71461015257806306fdde031461017a578063081812fc1461018f578063095ea7b3146101ba57806323b872dd146101cf575b600080fd5b610165610160366004611c43565b610348565b60405190151581526020015b60405180910390f35b61018261039a565b6040516101719190611d82565b6101a261019d366004611cd2565b61042c565b6040516001600160a01b039091168152602001610171565b6101cd6101c8366004611bfc565b6104b9565b005b6101cd6101dd366004611ac4565b6105cf565b6101cd6101f0366004611ac4565b610601565b6101cd610203366004611cd2565b61061c565b6101cd610216366004611c7b565b610696565b61012f545b604051908152602001610171565b6101a261023c366004611cd2565b610725565b61022061024f366004611a70565b61079c565b6101cd610262366004611cd2565b610823565b6101cd610853565b60fb546001600160a01b03166101a2565b610182610889565b6101cd610296366004611a70565b610898565b6101cd6102a9366004611b81565b6108e5565b61012e546001600160a01b03166101a2565b6101cd6102ce366004611b04565b6108f4565b6101826102e1366004611cd2565b61092c565b6101cd6102f4366004611bae565b610937565b610165610307366004611a8c565b6001600160a01b039182166000908152606a6020908152604080832093909416825291909152205460ff1690565b6101cd610343366004611a70565b6109f4565b60006001600160e01b031982166380ac58cd60e01b148061037957506001600160e01b03198216635b5e139f60e01b145b8061039457506301ffc9a760e01b6001600160e01b03198316145b92915050565b6060606580546103a990611f2a565b80601f01602080910402602001604051908101604052809291908181526020018280546103d590611f2a565b80156104225780601f106103f757610100808354040283529160200191610422565b820191906000526020600020905b81548152906001019060200180831161040557829003601f168201915b5050505050905090565b600061043782610a8c565b61049d5760405162461bcd60e51b815260206004820152602c60248201527f4552433732313a20617070726f76656420717565727920666f72206e6f6e657860448201526b34b9ba32b73a103a37b5b2b760a11b60648201526084015b60405180910390fd5b506000908152606960205260409020546001600160a01b031690565b60006104c482610725565b9050806001600160a01b0316836001600160a01b031614156105325760405162461bcd60e51b815260206004820152602160248201527f4552433732313a20617070726f76616c20746f2063757272656e74206f776e656044820152603960f91b6064820152608401610494565b336001600160a01b038216148061054e575061054e8133610307565b6105c05760405162461bcd60e51b815260206004820152603860248201527f4552433732313a20617070726f76652063616c6c6572206973206e6f74206f7760448201527f6e6572206e6f7220617070726f76656420666f7220616c6c00000000000000006064820152608401610494565b6105ca8383610aa9565b505050565b6105da335b82610b17565b6105f65760405162461bcd60e51b815260040161049490611e6a565b6105ca838383610c01565b6105ca838383604051806020016040528060008152506108f4565b610625336105d4565b61068a5760405162461bcd60e51b815260206004820152603060248201527f4552433732314275726e61626c653a2063616c6c6572206973206e6f74206f7760448201526f1b995c881b9bdc88185c1c1c9bdd995960821b6064820152608401610494565b61069381610da1565b50565b600054610100900460ff16806106af575060005460ff16155b6106cb5760405162461bcd60e51b815260040161049490611de7565b600054610100900460ff161580156106ed576000805461ffff19166101011790555b6106f78383610daa565b6106ff610e1b565b610707610e1b565b61070f610e9e565b80156105ca576000805461ff0019169055505050565b6000818152606760205260408120546001600160a01b0316806103945760405162461bcd60e51b815260206004820152602960248201527f4552433732313a206f776e657220717565727920666f72206e6f6e657869737460448201526832b73a103a37b5b2b760b91b6064820152608401610494565b60006001600160a01b0382166108075760405162461bcd60e51b815260206004820152602a60248201527f4552433732313a2062616c616e636520717565727920666f7220746865207a65604482015269726f206164647265737360b01b6064820152608401610494565b506001600160a01b031660009081526068602052604090205490565b60fb546001600160a01b0316331461084d5760405162461bcd60e51b815260040161049490611e35565b61012f55565b60fb546001600160a01b0316331461087d5760405162461bcd60e51b815260040161049490611e35565b6108876000610f05565b565b6060606680546103a990611f2a565b60fb546001600160a01b031633146108c25760405162461bcd60e51b815260040161049490611e35565b61012e80546001600160a01b0319166001600160a01b0392909216919091179055565b6108f0338383610f57565b5050565b6108fe3383610b17565b61091a5760405162461bcd60e51b815260040161049490611e6a565b61092684848484611026565b50505050565b606061039482611059565b600061094361012d5490565b905061095461012d80546001019055565b61012e5461012f5460405163af7d6ca360e01b81526001600160a01b038681166004830152602482019290925291169063af7d6ca390604401602060405180830381600087803b1580156109a757600080fd5b505af11580156109bb573d6000803e3d6000fd5b505050506040513d601f19601f820116820180604052508101906109df9190611c27565b506109ea83826111c8565b6105ca81836111e2565b60fb546001600160a01b03163314610a1e5760405162461bcd60e51b815260040161049490611e35565b6001600160a01b038116610a835760405162461bcd60e51b815260206004820152602660248201527f4f776e61626c653a206e6577206f776e657220697320746865207a65726f206160448201526564647265737360d01b6064820152608401610494565b61069381610f05565b6000908152606760205260409020546001600160a01b0316151590565b600081815260696020526040902080546001600160a01b0319166001600160a01b0384169081179091558190610ade82610725565b6001600160a01b03167f8c5be1e5ebec7d5bd14f71427d1e84f3dd0314c0f7b2291e5b200ac8c7c3b92560405160405180910390a45050565b6000610b2282610a8c565b610b835760405162461bcd60e51b815260206004820152602c60248201527f4552433732313a206f70657261746f7220717565727920666f72206e6f6e657860448201526b34b9ba32b73a103a37b5b2b760a11b6064820152608401610494565b6000610b8e83610725565b9050806001600160a01b0316846001600160a01b03161480610bc95750836001600160a01b0316610bbe8461042c565b6001600160a01b0316145b80610bf957506001600160a01b038082166000908152606a602090815260408083209388168352929052205460ff165b949350505050565b826001600160a01b0316610c1482610725565b6001600160a01b031614610c7c5760405162461bcd60e51b815260206004820152602960248201527f4552433732313a207472616e73666572206f6620746f6b656e2074686174206960448201526839903737ba1037bbb760b91b6064820152608401610494565b6001600160a01b038216610cde5760405162461bcd60e51b8152602060048201526024808201527f4552433732313a207472616e7366657220746f20746865207a65726f206164646044820152637265737360e01b6064820152608401610494565b610ce9600082610aa9565b6001600160a01b0383166000908152606860205260408120805460019290610d12908490611ee7565b90915550506001600160a01b0382166000908152606860205260408120805460019290610d40908490611ebb565b909155505060008181526067602052604080822080546001600160a01b0319166001600160a01b0386811691821790925591518493918716917fddf252ad1be2c89b69c2b068fc378daa952ba7f163c4a11628f55a4df523b3ef91a4505050565b6106938161126d565b600054610100900460ff1680610dc3575060005460ff16155b610ddf5760405162461bcd60e51b815260040161049490611de7565b600054610100900460ff16158015610e01576000805461ffff19166101011790555b610e096112ad565b610e116112ad565b61070f8383611317565b600054610100900460ff1680610e34575060005460ff16155b610e505760405162461bcd60e51b815260040161049490611de7565b600054610100900460ff16158015610e72576000805461ffff19166101011790555b610e7a6112ad565b610e826112ad565b610e8a6112ad565b8015610693576000805461ff001916905550565b600054610100900460ff1680610eb7575060005460ff16155b610ed35760405162461bcd60e51b815260040161049490611de7565b600054610100900460ff16158015610ef5576000805461ffff19166101011790555b610efd6112ad565b610e8a6113ac565b60fb80546001600160a01b038381166001600160a01b0319831681179093556040519116919082907f8be0079c531659141344cd1fd0a4f28419497f9722a3daafe3b4186f6b6457e090600090a35050565b816001600160a01b0316836001600160a01b03161415610fb95760405162461bcd60e51b815260206004820152601960248201527f4552433732313a20617070726f766520746f2063616c6c6572000000000000006044820152606401610494565b6001600160a01b038381166000818152606a6020908152604080832094871680845294825291829020805460ff191686151590811790915591519182527f17307eab39ab6107e8899845ad3d59bd9653f200f220920489ca2b5937696c31910160405180910390a3505050565b611031848484610c01565b61103d8484848461140c565b6109265760405162461bcd60e51b815260040161049490611d95565b606061106482610a8c565b6110ca5760405162461bcd60e51b815260206004820152603160248201527f45524337323155524953746f726167653a2055524920717565727920666f72206044820152703737b732bc34b9ba32b73a103a37b5b2b760791b6064820152608401610494565b600082815260976020526040812080546110e390611f2a565b80601f016020809104026020016040519081016040528092919081815260200182805461110f90611f2a565b801561115c5780601f106111315761010080835404028352916020019161115c565b820191906000526020600020905b81548152906001019060200180831161113f57829003601f168201915b50505050509050600061117a60408051602081019091526000815290565b905080516000141561118d575092915050565b8151156111bf5780826040516020016111a7929190611d16565b60405160208183030381529060405292505050919050565b610bf984611519565b6108f08282604051806020016040528060008152506115f1565b6111eb82610a8c565b61124e5760405162461bcd60e51b815260206004820152602e60248201527f45524337323155524953746f726167653a2055524920736574206f66206e6f6e60448201526d32bc34b9ba32b73a103a37b5b2b760911b6064820152608401610494565b600082815260976020908152604090912082516105ca9284019061190c565b61127681611624565b6000818152609760205260409020805461128f90611f2a565b15905061069357600081815260976020526040812061069391611990565b600054610100900460ff16806112c6575060005460ff16155b6112e25760405162461bcd60e51b815260040161049490611de7565b600054610100900460ff16158015610e8a576000805461ffff19166101011790558015610693576000805461ff001916905550565b600054610100900460ff1680611330575060005460ff16155b61134c5760405162461bcd60e51b815260040161049490611de7565b600054610100900460ff1615801561136e576000805461ffff19166101011790555b825161138190606590602086019061190c565b50815161139590606690602085019061190c565b5080156105ca576000805461ff0019169055505050565b600054610100900460ff16806113c5575060005460ff16155b6113e15760405162461bcd60e51b815260040161049490611de7565b600054610100900460ff16158015611403576000805461ffff19166101011790555b610e8a33610f05565b60006001600160a01b0384163b1561150e57604051630a85bd0160e11b81526001600160a01b0385169063150b7a0290611450903390899088908890600401611d45565b602060405180830381600087803b15801561146a57600080fd5b505af192505050801561149a575060408051601f3d908101601f1916820190925261149791810190611c5f565b60015b6114f4573d8080156114c8576040519150601f19603f3d011682016040523d82523d6000602084013e6114cd565b606091505b5080516114ec5760405162461bcd60e51b815260040161049490611d95565b805181602001fd5b6001600160e01b031916630a85bd0160e11b149050610bf9565b506001949350505050565b606061152482610a8c565b6115885760405162461bcd60e51b815260206004820152602f60248201527f4552433732314d657461646174613a2055524920717565727920666f72206e6f60448201526e3732bc34b9ba32b73a103a37b5b2b760891b6064820152608401610494565b600061159f60408051602081019091526000815290565b905060008151116115bf57604051806020016040528060008152506115ea565b806115c9846116bf565b6040516020016115da929190611d16565b6040516020818303038152906040525b9392505050565b6115fb83836117d9565b611608600084848461140c565b6105ca5760405162461bcd60e51b815260040161049490611d95565b600061162f82610725565b905061163c600083610aa9565b6001600160a01b0381166000908152606860205260408120805460019290611665908490611ee7565b909155505060008281526067602052604080822080546001600160a01b0319169055518391906001600160a01b038416907fddf252ad1be2c89b69c2b068fc378daa952ba7f163c4a11628f55a4df523b3ef908390a45050565b6060816116e35750506040805180820190915260018152600360fc1b602082015290565b8160005b811561170d57806116f781611f65565b91506117069050600a83611ed3565b91506116e7565b60008167ffffffffffffffff81111561173657634e487b7160e01b600052604160045260246000fd5b6040519080825280601f01601f191660200182016040528015611760576020820181803683370190505b5090505b8415610bf957611775600183611ee7565b9150611782600a86611f80565b61178d906030611ebb565b60f81b8183815181106117b057634e487b7160e01b600052603260045260246000fd5b60200101906001600160f81b031916908160001a9053506117d2600a86611ed3565b9450611764565b6001600160a01b03821661182f5760405162461bcd60e51b815260206004820181905260248201527f4552433732313a206d696e7420746f20746865207a65726f20616464726573736044820152606401610494565b61183881610a8c565b156118855760405162461bcd60e51b815260206004820152601c60248201527f4552433732313a20746f6b656e20616c7265616479206d696e746564000000006044820152606401610494565b6001600160a01b03821660009081526068602052604081208054600192906118ae908490611ebb565b909155505060008181526067602052604080822080546001600160a01b0319166001600160a01b03861690811790915590518392907fddf252ad1be2c89b69c2b068fc378daa952ba7f163c4a11628f55a4df523b3ef908290a45050565b82805461191890611f2a565b90600052602060002090601f01602090048101928261193a5760008555611980565b82601f1061195357805160ff1916838001178555611980565b82800160010185558215611980579182015b82811115611980578251825591602001919060010190611965565b5061198c9291506119c6565b5090565b50805461199c90611f2a565b6000825580601f106119ac575050565b601f01602090049060005260206000209081019061069391905b5b8082111561198c57600081556001016119c7565b600067ffffffffffffffff808411156119f6576119f6611fc0565b604051601f8501601f19908116603f01168101908282118183101715611a1e57611a1e611fc0565b81604052809350858152868686011115611a3757600080fd5b858560208301376000602087830101525050509392505050565b600082601f830112611a61578081fd5b6115ea838335602085016119db565b600060208284031215611a81578081fd5b81356115ea81611fd6565b60008060408385031215611a9e578081fd5b8235611aa981611fd6565b91506020830135611ab981611fd6565b809150509250929050565b600080600060608486031215611ad8578081fd5b8335611ae381611fd6565b92506020840135611af381611fd6565b929592945050506040919091013590565b60008060008060808587031215611b19578081fd5b8435611b2481611fd6565b93506020850135611b3481611fd6565b925060408501359150606085013567ffffffffffffffff811115611b56578182fd5b8501601f81018713611b66578182fd5b611b75878235602084016119db565b91505092959194509250565b60008060408385031215611b93578182fd5b8235611b9e81611fd6565b91506020830135611ab981611feb565b60008060408385031215611bc0578182fd5b8235611bcb81611fd6565b9150602083013567ffffffffffffffff811115611be6578182fd5b611bf285828601611a51565b9150509250929050565b60008060408385031215611c0e578182fd5b8235611c1981611fd6565b946020939093013593505050565b600060208284031215611c38578081fd5b81516115ea81611feb565b600060208284031215611c54578081fd5b81356115ea81611ff9565b600060208284031215611c70578081fd5b81516115ea81611ff9565b60008060408385031215611c8d578182fd5b823567ffffffffffffffff80821115611ca4578384fd5b611cb086838701611a51565b93506020850135915080821115611cc5578283fd5b50611bf285828601611a51565b600060208284031215611ce3578081fd5b5035919050565b60008151808452611d02816020860160208601611efe565b601f01601f19169290920160200192915050565b60008351611d28818460208801611efe565b835190830190611d3c818360208801611efe565b01949350505050565b6001600160a01b0385811682528416602082015260408101839052608060608201819052600090611d7890830184611cea565b9695505050505050565b6020815260006115ea6020830184611cea565b60208082526032908201527f4552433732313a207472616e7366657220746f206e6f6e20455243373231526560408201527131b2b4bb32b91034b6b83632b6b2b73a32b960711b606082015260800190565b6020808252602e908201527f496e697469616c697a61626c653a20636f6e747261637420697320616c72656160408201526d191e481a5b9a5d1a585b1a5e995960921b606082015260800190565b6020808252818101527f4f776e61626c653a2063616c6c6572206973206e6f7420746865206f776e6572604082015260600190565b60208082526031908201527f4552433732313a207472616e736665722063616c6c6572206973206e6f74206f6040820152701ddb995c881b9bdc88185c1c1c9bdd9959607a1b606082015260800190565b60008219821115611ece57611ece611f94565b500190565b600082611ee257611ee2611faa565b500490565b600082821015611ef957611ef9611f94565b500390565b60005b83811015611f19578181015183820152602001611f01565b838111156109265750506000910152565b600181811c90821680611f3e57607f821691505b60208210811415611f5f57634e487b7160e01b600052602260045260246000fd5b50919050565b6000600019821415611f7957611f79611f94565b5060010190565b600082611f8f57611f8f611faa565b500690565b634e487b7160e01b600052601160045260246000fd5b634e487b7160e01b600052601260045260246000fd5b634e487b7160e01b600052604160045260246000fd5b6001600160a01b038116811461069357600080fd5b801515811461069357600080fd5b6001600160e01b03198116811461069357600080fdfea264697066735822122060baac515f9a85d76ba93ac54fe66c82ecd2df03d38614017fafb864c9a9413b64736f6c63430008040033",
  "linkReferences": {},
  "deployedLinkReferences": {}
}