{
  "_format": "hh-sol-artifact-1",
  "contractName": "Hen",
  "sourceName": "contracts/Hen.sol",
  "abi": [
    {
      "anonymous": false,
      "inputs": [
        {
          "indexed": true,
          "internalType": "address",
          "name": "owner",
          "type": "address"
        },
        {
          "indexed": true,
          "internalType": "address",
          "name": "approved",
          "type": "address"
        },
        {
          "indexed": true,
          "internalType": "uint256",
          "name": "tokenId",
          "type": "uint256"
        }
      ],
      "name": "Approval",
      "type": "event"
    },
    {
      "anonymous": false,
      "inputs": [
        {
          "indexed": true,
          "internalType": "address",
          "name": "owner",
          "type": "address"
        },
        {
          "indexed": true,
          "internalType": "address",
          "name": "operator",
          "type": "address"
        },
        {
          "indexed": false,
          "internalType": "bool",
          "name": "approved",
          "type": "bool"
        }
      ],
      "name": "ApprovalForAll",
      "type": "event"
    },
    {
      "anonymous": false,
      "inputs": [
        {
          "indexed": true,
          "internalType": "bytes32",
          "name": "role",
          "type": "bytes32"
        },
        {
          "indexed": true,
          "internalType": "bytes32",
          "name": "previousAdminRole",
          "type": "bytes32"
        },
        {
          "indexed": true,
          "internalType": "bytes32",
          "name": "newAdminRole",
          "type": "bytes32"
        }
      ],
      "name": "RoleAdminChanged",
      "type": "event"
    },
    {
      "anonymous": false,
      "inputs": [
        {
          "indexed": true,
          "internalType": "bytes32",
          "name": "role",
          "type": "bytes32"
        },
        {
          "indexed": true,
          "internalType": "address",
          "name": "account",
          "type": "address"
        },
        {
          "indexed": true,
          "internalType": "address",
          "name": "sender",
          "type": "address"
        }
      ],
      "name": "RoleGranted",
      "type": "event"
    },
    {
      "anonymous": false,
      "inputs": [
        {
          "indexed": true,
          "internalType": "bytes32",
          "name": "role",
          "type": "bytes32"
        },
        {
          "indexed": true,
          "internalType": "address",
          "name": "account",
          "type": "address"
        },
        {
          "indexed": true,
          "internalType": "address",
          "name": "sender",
          "type": "address"
        }
      ],
      "name": "RoleRevoked",
      "type": "event"
    },
    {
      "anonymous": false,
      "inputs": [
        {
          "indexed": true,
          "internalType": "address",
          "name": "from",
          "type": "address"
        },
        {
          "indexed": true,
          "internalType": "address",
          "name": "to",
          "type": "address"
        },
        {
          "indexed": true,
          "internalType": "uint256",
          "name": "tokenId",
          "type": "uint256"
        }
      ],
      "name": "Transfer",
      "type": "event"
    },
    {
      "inputs": [],
      "name": "DEFAULT_ADMIN_ROLE",
      "outputs": [
        {
          "internalType": "bytes32",
          "name": "",
          "type": "bytes32"
        }
      ],
      "stateMutability": "view",
      "type": "function"
    },
    {
      "inputs": [],
      "name": "MINTER_ROLE",
      "outputs": [
        {
          "internalType": "bytes32",
          "name": "",
          "type": "bytes32"
        }
      ],
      "stateMutability": "view",
      "type": "function"
    },
    {
      "inputs": [
        {
          "internalType": "address",
          "name": "to",
          "type": "address"
        },
        {
          "internalType": "uint256",
          "name": "tokenId",
          "type": "uint256"
        }
      ],
      "name": "approve",
      "outputs": [],
      "stateMutability": "nonpayable",
      "type": "function"
    },
    {
      "inputs": [
        {
          "internalType": "address",
          "name": "owner",
          "type": "address"
        }
      ],
      "name": "balanceOf",
      "outputs": [
        {
          "internalType": "uint256",
          "name": "",
          "type": "uint256"
        }
      ],
      "stateMutability": "view",
      "type": "function"
    },
    {
      "inputs": [
        {
          "internalType": "uint256",
          "name": "tokenId",
          "type": "uint256"
        }
      ],
      "name": "burn",
      "outputs": [],
      "stateMutability": "nonpayable",
      "type": "function"
    },
    {
      "inputs": [
        {
          "internalType": "uint256",
          "name": "tokenId",
          "type": "uint256"
        }
      ],
      "name": "getApproved",
      "outputs": [
        {
          "internalType": "address",
          "name": "",
          "type": "address"
        }
      ],
      "stateMutability": "view",
      "type": "function"
    },
    {
      "inputs": [
        {
          "internalType": "address",
          "name": "user",
          "type": "address"
        }
      ],
      "name": "getHenByUser",
      "outputs": [
        {
          "internalType": "uint256[]",
          "name": "",
          "type": "uint256[]"
        }
      ],
      "stateMutability": "view",
      "type": "function"
    },
    {
      "inputs": [
        {
          "internalType": "uint256",
          "name": "tokenId",
          "type": "uint256"
        }
      ],
      "name": "getHenDetail",
      "outputs": [
        {
          "components": [
            {
              "internalType": "uint8",
              "name": "level",
              "type": "uint8"
            },
            {
              "internalType": "uint8",
              "name": "productivity",
              "type": "uint8"
            }
          ],
          "internalType": "struct Hen.HenAttr",
          "name": "",
          "type": "tuple"
        }
      ],
      "stateMutability": "view",
      "type": "function"
    },
    {
      "inputs": [
        {
          "internalType": "bytes32",
          "name": "role",
          "type": "bytes32"
        }
      ],
      "name": "getRoleAdmin",
      "outputs": [
        {
          "internalType": "bytes32",
          "name": "",
          "type": "bytes32"
        }
      ],
      "stateMutability": "view",
      "type": "function"
    },
    {
      "inputs": [
        {
          "internalType": "bytes32",
          "name": "role",
          "type": "bytes32"
        },
        {
          "internalType": "address",
          "name": "account",
          "type": "address"
        }
      ],
      "name": "grantRole",
      "outputs": [],
      "stateMutability": "nonpayable",
      "type": "function"
    },
    {
      "inputs": [
        {
          "internalType": "address",
          "name": "to",
          "type": "address"
        },
        {
          "internalType": "bytes32",
          "name": "role",
          "type": "bytes32"
        }
      ],
      "name": "grantRole",
      "outputs": [],
      "stateMutability": "nonpayable",
      "type": "function"
    },
    {
      "inputs": [
        {
          "internalType": "bytes32",
          "name": "role",
          "type": "bytes32"
        },
        {
          "internalType": "address",
          "name": "account",
          "type": "address"
        }
      ],
      "name": "hasRole",
      "outputs": [
        {
          "internalType": "bool",
          "name": "",
          "type": "bool"
        }
      ],
      "stateMutability": "view",
      "type": "function"
    },
    {
      "inputs": [
        {
          "internalType": "string",
          "name": "name",
          "type": "string"
        },
        {
          "internalType": "string",
          "name": "ticker",
          "type": "string"
        }
      ],
      "name": "initialize",
      "outputs": [],
      "stateMutability": "nonpayable",
      "type": "function"
    },
    {
      "inputs": [
        {
          "internalType": "address",
          "name": "owner",
          "type": "address"
        },
        {
          "internalType": "address",
          "name": "operator",
          "type": "address"
        }
      ],
      "name": "isApprovedForAll",
      "outputs": [
        {
          "internalType": "bool",
          "name": "",
          "type": "bool"
        }
      ],
      "stateMutability": "view",
      "type": "function"
    },
    {
      "inputs": [],
      "name": "name",
      "outputs": [
        {
          "internalType": "string",
          "name": "",
          "type": "string"
        }
      ],
      "stateMutability": "view",
      "type": "function"
    },
    {
      "inputs": [
        {
          "internalType": "uint256",
          "name": "tokenId",
          "type": "uint256"
        }
      ],
      "name": "ownerOf",
      "outputs": [
        {
          "internalType": "address",
          "name": "",
          "type": "address"
        }
      ],
      "stateMutability": "view",
      "type": "function"
    },
    {
      "inputs": [
        {
          "internalType": "bytes32",
          "name": "role",
          "type": "bytes32"
        },
        {
          "internalType": "address",
          "name": "account",
          "type": "address"
        }
      ],
      "name": "renounceRole",
      "outputs": [],
      "stateMutability": "nonpayable",
      "type": "function"
    },
    {
      "inputs": [
        {
          "internalType": "bytes32",
          "name": "role",
          "type": "bytes32"
        },
        {
          "internalType": "address",
          "name": "account",
          "type": "address"
        }
      ],
      "name": "revokeRole",
      "outputs": [],
      "stateMutability": "nonpayable",
      "type": "function"
    },
    {
      "inputs": [
        {
          "internalType": "address",
          "name": "to",
          "type": "address"
        }
      ],
      "name": "safeMint",
      "outputs": [
        {
          "internalType": "uint256",
          "name": "",
          "type": "uint256"
        }
      ],
      "stateMutability": "nonpayable",
      "type": "function"
    },
    {
      "inputs": [
        {
          "internalType": "address",
          "name": "from",
          "type": "address"
        },
        {
          "internalType": "address",
          "name": "to",
          "type": "address"
        },
        {
          "internalType": "uint256",
          "name": "tokenId",
          "type": "uint256"
        }
      ],
      "name": "safeTransferFrom",
      "outputs": [],
      "stateMutability": "nonpayable",
      "type": "function"
    },
    {
      "inputs": [
        {
          "internalType": "address",
          "name": "from",
          "type": "address"
        },
        {
          "internalType": "address",
          "name": "to",
          "type": "address"
        },
        {
          "internalType": "uint256",
          "name": "tokenId",
          "type": "uint256"
        },
        {
          "internalType": "bytes",
          "name": "_data",
          "type": "bytes"
        }
      ],
      "name": "safeTransferFrom",
      "outputs": [],
      "stateMutability": "nonpayable",
      "type": "function"
    },
    {
      "inputs": [
        {
          "internalType": "address",
          "name": "operator",
          "type": "address"
        },
        {
          "internalType": "bool",
          "name": "approved",
          "type": "bool"
        }
      ],
      "name": "setApprovalForAll",
      "outputs": [],
      "stateMutability": "nonpayable",
      "type": "function"
    },
    {
      "inputs": [
        {
          "internalType": "bytes4",
          "name": "interfaceId",
          "type": "bytes4"
        }
      ],
      "name": "supportsInterface",
      "outputs": [
        {
          "internalType": "bool",
          "name": "",
          "type": "bool"
        }
      ],
      "stateMutability": "view",
      "type": "function"
    },
    {
      "inputs": [],
      "name": "symbol",
      "outputs": [
        {
          "internalType": "string",
          "name": "",
          "type": "string"
        }
      ],
      "stateMutability": "view",
      "type": "function"
    },
    {
      "inputs": [
        {
          "internalType": "uint256",
          "name": "tokenId",
          "type": "uint256"
        }
      ],
      "name": "tokenURI",
      "outputs": [
        {
          "internalType": "string",
          "name": "",
          "type": "string"
        }
      ],
      "stateMutability": "view",
      "type": "function"
    },
    {
      "inputs": [
        {
          "internalType": "address",
          "name": "from",
          "type": "address"
        },
        {
          "internalType": "address",
          "name": "to",
          "type": "address"
        },
        {
          "internalType": "uint256",
          "name": "tokenId",
          "type": "uint256"
        }
      ],
      "name": "transferFrom",
      "outputs": [],
      "stateMutability": "nonpayable",
      "type": "function"
    }
  ],
  "bytecode": "0x608060405234801561001057600080fd5b50612281806100206000396000f3fe608060405234801561001057600080fd5b506004361061018e5760003560e01c80636352211e116100de578063ab2742dc11610097578063c87b56dd11610071578063c87b56dd146103dc578063d5391393146103ef578063d547741f14610416578063e985e9c51461042957600080fd5b8063ab2742dc14610342578063b88d4fde14610355578063c5e258e81461036857600080fd5b80636352211e146102e657806370a08231146102f957806391d148541461030c57806395d89b411461031f578063a217fddf14610327578063a22cb4651461032f57600080fd5b80632f2ff15d1161014b57806342842e0e1161012557806342842e0e1461028d57806342966c68146102a05780634589c930146102b35780634cd88b76146102d357600080fd5b80632f2ff15d1461025457806336568abe1461026757806340d097c31461027a57600080fd5b806301ffc9a71461019357806306fdde03146101bb578063081812fc146101d0578063095ea7b3146101fb57806323b872dd14610210578063248a9ca314610223575b600080fd5b6101a66101a1366004611dfc565b610465565b60405190151581526020015b60405180910390f35b6101c3610476565b6040516101b29190611fe6565b6101e36101de366004611dc2565b610508565b6040516001600160a01b0390911681526020016101b2565b61020e610209366004611d99565b6105a2565b005b61020e61021e366004611cab565b6106b8565b610246610231366004611dc2565b600090815260c9602052604090206001015490565b6040519081526020016101b2565b61020e610262366004611dda565b6106ea565b61020e610275366004611dda565b610710565b610246610288366004611c5f565b61078e565b61020e61029b366004611cab565b61082d565b61020e6102ae366004611dc2565b610848565b6102c66102c1366004611c5f565b6108c2565b6040516101b29190611fa2565b61020e6102e1366004611e34565b6109c7565b6101e36102f4366004611dc2565b610a83565b610246610307366004611c5f565b610afa565b6101a661031a366004611dda565b610b81565b6101c3610bac565b610246600081565b61020e61033d366004611d5f565b610bbb565b61020e610350366004611d99565b610bc6565b61020e610363366004611ce6565b610bdc565b6103bb610376366004611dc2565b604080518082019091526000808252602082015250600090815260fc602090815260409182902082518084019093525460ff8082168452610100909104169082015290565b60408051825160ff90811682526020938401511692810192909252016101b2565b6101c36103ea366004611dc2565b610c14565b6102467f9f2df0fed2c77648de5860a4cc508cd0818c85b8b8a1ab4ceeef8d981c8956a681565b61020e610424366004611dda565b610cfc565b6101a6610437366004611c79565b6001600160a01b039182166000908152606a6020908152604080832093909416825291909152205460ff1690565b600061047082610d22565b92915050565b6060606580546104859061218f565b80601f01602080910402602001604051908101604052809291908181526020018280546104b19061218f565b80156104fe5780601f106104d3576101008083540402835291602001916104fe565b820191906000526020600020905b8154815290600101906020018083116104e157829003601f168201915b5050505050905090565b6000818152606760205260408120546001600160a01b03166105865760405162461bcd60e51b815260206004820152602c60248201527f4552433732313a20617070726f76656420717565727920666f72206e6f6e657860448201526b34b9ba32b73a103a37b5b2b760a11b60648201526084015b60405180910390fd5b506000908152606960205260409020546001600160a01b031690565b60006105ad82610a83565b9050806001600160a01b0316836001600160a01b0316141561061b5760405162461bcd60e51b815260206004820152602160248201527f4552433732313a20617070726f76616c20746f2063757272656e74206f776e656044820152603960f91b606482015260840161057d565b336001600160a01b038216148061063757506106378133610437565b6106a95760405162461bcd60e51b815260206004820152603860248201527f4552433732313a20617070726f76652063616c6c6572206973206e6f74206f7760448201527f6e6572206e6f7220617070726f76656420666f7220616c6c0000000000000000606482015260840161057d565b6106b38383610d47565b505050565b6106c3335b82610db5565b6106df5760405162461bcd60e51b815260040161057d90612099565b6106b3838383610eac565b600082815260c96020526040902060010154610706813361104c565b6106b383836110b0565b6001600160a01b03811633146107805760405162461bcd60e51b815260206004820152602f60248201527f416363657373436f6e74726f6c3a2063616e206f6e6c792072656e6f756e636560448201526e103937b632b9903337b91039b2b63360891b606482015260840161057d565b61078a8282611136565b5050565b60007f9f2df0fed2c77648de5860a4cc508cd0818c85b8b8a1ab4ceeef8d981c8956a66107bb813361104c565b60006107c660fb5490565b60408051808201825260018152605f6020808301918252600085815260fc9091529290922090518154925160ff9081166101000261ffff19909416911617919091179055905061081a60fb80546001019055565b610824848261119d565b91505b50919050565b6106b383838360405180602001604052806000815250610bdc565b610851336106bd565b6108b65760405162461bcd60e51b815260206004820152603060248201527f4552433732314275726e61626c653a2063616c6c6572206973206e6f74206f7760448201526f1b995c881b9bdc88185c1c1c9bdd995960821b606482015260840161057d565b6108bf816111b7565b50565b606060006108cf83610afa565b9050806108ec575050604080516000815260208101909152919050565b60008167ffffffffffffffff81111561091557634e487b7160e01b600052604160045260246000fd5b60405190808252806020026020018201604052801561093e578160200160208202803683370190505b5090506000805b60fb548110156109bd57856001600160a01b031661096282610a83565b6001600160a01b031614156109ab578083838151811061099257634e487b7160e01b600052603260045260246000fd5b6020908102919091010152816109a7816121c4565b9250505b806109b5816121c4565b915050610945565b5090949350505050565b600054610100900460ff16806109e0575060005460ff16155b6109fc5760405162461bcd60e51b815260040161057d9061204b565b600054610100900460ff16158015610a1e576000805461ffff19166101011790555b610a288383611252565b610a306112c3565b610a386112c3565b610a436000336110b0565b610a6d7f9f2df0fed2c77648de5860a4cc508cd0818c85b8b8a1ab4ceeef8d981c8956a6336110b0565b80156106b3576000805461ff0019169055505050565b6000818152606760205260408120546001600160a01b0316806104705760405162461bcd60e51b815260206004820152602960248201527f4552433732313a206f776e657220717565727920666f72206e6f6e657869737460448201526832b73a103a37b5b2b760b91b606482015260840161057d565b60006001600160a01b038216610b655760405162461bcd60e51b815260206004820152602a60248201527f4552433732313a2062616c616e636520717565727920666f7220746865207a65604482015269726f206164647265737360b01b606482015260840161057d565b506001600160a01b031660009081526068602052604090205490565b600091825260c9602090815260408084206001600160a01b0393909316845291905290205460ff1690565b6060606680546104859061218f565b61078a338383611346565b6000610bd2813361104c565b6106b382846110b0565b610be63383610db5565b610c025760405162461bcd60e51b815260040161057d90612099565b610c0e84848484611415565b50505050565b6000818152606760205260409020546060906001600160a01b0316610c935760405162461bcd60e51b815260206004820152602f60248201527f4552433732314d657461646174613a2055524920717565727920666f72206e6f60448201526e3732bc34b9ba32b73a103a37b5b2b760891b606482015260840161057d565b6000610caa60408051602081019091526000815290565b90506000815111610cca5760405180602001604052806000815250610cf5565b80610cd484611448565b604051602001610ce5929190611ec1565b6040516020818303038152906040525b9392505050565b600082815260c96020526040902060010154610d18813361104c565b6106b38383611136565b60006001600160e01b03198216637965db0b60e01b1480610470575061047082611562565b600081815260696020526040902080546001600160a01b0319166001600160a01b0384169081179091558190610d7c82610a83565b6001600160a01b03167f8c5be1e5ebec7d5bd14f71427d1e84f3dd0314c0f7b2291e5b200ac8c7c3b92560405160405180910390a45050565b6000818152606760205260408120546001600160a01b0316610e2e5760405162461bcd60e51b815260206004820152602c60248201527f4552433732313a206f70657261746f7220717565727920666f72206e6f6e657860448201526b34b9ba32b73a103a37b5b2b760a11b606482015260840161057d565b6000610e3983610a83565b9050806001600160a01b0316846001600160a01b03161480610e745750836001600160a01b0316610e6984610508565b6001600160a01b0316145b80610ea457506001600160a01b038082166000908152606a602090815260408083209388168352929052205460ff165b949350505050565b826001600160a01b0316610ebf82610a83565b6001600160a01b031614610f275760405162461bcd60e51b815260206004820152602960248201527f4552433732313a207472616e73666572206f6620746f6b656e2074686174206960448201526839903737ba1037bbb760b91b606482015260840161057d565b6001600160a01b038216610f895760405162461bcd60e51b8152602060048201526024808201527f4552433732313a207472616e7366657220746f20746865207a65726f206164646044820152637265737360e01b606482015260840161057d565b610f94600082610d47565b6001600160a01b0383166000908152606860205260408120805460019290610fbd908490612135565b90915550506001600160a01b0382166000908152606860205260408120805460019290610feb9084906120ea565b909155505060008181526067602052604080822080546001600160a01b0319166001600160a01b0386811691821790925591518493918716917fddf252ad1be2c89b69c2b068fc378daa952ba7f163c4a11628f55a4df523b3ef91a4505050565b6110568282610b81565b61078a5761106e816001600160a01b031660146115b2565b6110798360206115b2565b60405160200161108a929190611ef0565b60408051601f198184030181529082905262461bcd60e51b825261057d91600401611fe6565b6110ba8282610b81565b61078a57600082815260c9602090815260408083206001600160a01b03851684529091529020805460ff191660011790556110f23390565b6001600160a01b0316816001600160a01b0316837f2f8788117e7eff1d82e926ec794901d17c78024a50270940304540a733656f0d60405160405180910390a45050565b6111408282610b81565b1561078a57600082815260c9602090815260408083206001600160a01b0385168085529252808320805460ff1916905551339285917ff6391f5c32d9c69d2a47ea670b442974b53935d1edc7fd64eb21e047a839171b9190a45050565b61078a828260405180602001604052806000815250611794565b60006111c282610a83565b90506111cf600083610d47565b6001600160a01b03811660009081526068602052604081208054600192906111f8908490612135565b909155505060008281526067602052604080822080546001600160a01b0319169055518391906001600160a01b038416907fddf252ad1be2c89b69c2b068fc378daa952ba7f163c4a11628f55a4df523b3ef908390a45050565b600054610100900460ff168061126b575060005460ff16155b6112875760405162461bcd60e51b815260040161057d9061204b565b600054610100900460ff161580156112a9576000805461ffff19166101011790555b6112b16117c7565b6112b96117c7565b610a6d8383611831565b600054610100900460ff16806112dc575060005460ff16155b6112f85760405162461bcd60e51b815260040161057d9061204b565b600054610100900460ff1615801561131a576000805461ffff19166101011790555b6113226117c7565b61132a6117c7565b6113326117c7565b80156108bf576000805461ff001916905550565b816001600160a01b0316836001600160a01b031614156113a85760405162461bcd60e51b815260206004820152601960248201527f4552433732313a20617070726f766520746f2063616c6c657200000000000000604482015260640161057d565b6001600160a01b038381166000818152606a6020908152604080832094871680845294825291829020805460ff191686151590811790915591519182527f17307eab39ab6107e8899845ad3d59bd9653f200f220920489ca2b5937696c31910160405180910390a3505050565b611420848484610eac565b61142c848484846118c6565b610c0e5760405162461bcd60e51b815260040161057d90611ff9565b60608161146c5750506040805180820190915260018152600360fc1b602082015290565b8160005b81156114965780611480816121c4565b915061148f9050600a83612102565b9150611470565b60008167ffffffffffffffff8111156114bf57634e487b7160e01b600052604160045260246000fd5b6040519080825280601f01601f1916602001820160405280156114e9576020820181803683370190505b5090505b8415610ea4576114fe600183612135565b915061150b600a866121df565b6115169060306120ea565b60f81b81838151811061153957634e487b7160e01b600052603260045260246000fd5b60200101906001600160f81b031916908160001a90535061155b600a86612102565b94506114ed565b60006001600160e01b031982166380ac58cd60e01b148061159357506001600160e01b03198216635b5e139f60e01b145b8061047057506301ffc9a760e01b6001600160e01b0319831614610470565b606060006115c1836002612116565b6115cc9060026120ea565b67ffffffffffffffff8111156115f257634e487b7160e01b600052604160045260246000fd5b6040519080825280601f01601f19166020018201604052801561161c576020820181803683370190505b509050600360fc1b8160008151811061164557634e487b7160e01b600052603260045260246000fd5b60200101906001600160f81b031916908160001a905350600f60fb1b8160018151811061168257634e487b7160e01b600052603260045260246000fd5b60200101906001600160f81b031916908160001a90535060006116a6846002612116565b6116b19060016120ea565b90505b6001811115611745576f181899199a1a9b1b9c1cb0b131b232b360811b85600f16601081106116f357634e487b7160e01b600052603260045260246000fd5b1a60f81b82828151811061171757634e487b7160e01b600052603260045260246000fd5b60200101906001600160f81b031916908160001a90535060049490941c9361173e81612178565b90506116b4565b508315610cf55760405162461bcd60e51b815260206004820181905260248201527f537472696e67733a20686578206c656e67746820696e73756666696369656e74604482015260640161057d565b61179e83836119d3565b6117ab60008484846118c6565b6106b35760405162461bcd60e51b815260040161057d90611ff9565b600054610100900460ff16806117e0575060005460ff16155b6117fc5760405162461bcd60e51b815260040161057d9061204b565b600054610100900460ff16158015611332576000805461ffff191661010117905580156108bf576000805461ff001916905550565b600054610100900460ff168061184a575060005460ff16155b6118665760405162461bcd60e51b815260040161057d9061204b565b600054610100900460ff16158015611888576000805461ffff19166101011790555b825161189b906065906020860190611b15565b5081516118af906066906020850190611b15565b5080156106b3576000805461ff0019169055505050565b60006001600160a01b0384163b156119c857604051630a85bd0160e11b81526001600160a01b0385169063150b7a029061190a903390899088908890600401611f65565b602060405180830381600087803b15801561192457600080fd5b505af1925050508015611954575060408051601f3d908101601f1916820190925261195191810190611e18565b60015b6119ae573d808015611982576040519150601f19603f3d011682016040523d82523d6000602084013e611987565b606091505b5080516119a65760405162461bcd60e51b815260040161057d90611ff9565b805181602001fd5b6001600160e01b031916630a85bd0160e11b149050610ea4565b506001949350505050565b6001600160a01b038216611a295760405162461bcd60e51b815260206004820181905260248201527f4552433732313a206d696e7420746f20746865207a65726f2061646472657373604482015260640161057d565b6000818152606760205260409020546001600160a01b031615611a8e5760405162461bcd60e51b815260206004820152601c60248201527f4552433732313a20746f6b656e20616c7265616479206d696e74656400000000604482015260640161057d565b6001600160a01b0382166000908152606860205260408120805460019290611ab79084906120ea565b909155505060008181526067602052604080822080546001600160a01b0319166001600160a01b03861690811790915590518392907fddf252ad1be2c89b69c2b068fc378daa952ba7f163c4a11628f55a4df523b3ef908290a45050565b828054611b219061218f565b90600052602060002090601f016020900481019282611b435760008555611b89565b82601f10611b5c57805160ff1916838001178555611b89565b82800160010185558215611b89579182015b82811115611b89578251825591602001919060010190611b6e565b50611b95929150611b99565b5090565b5b80821115611b955760008155600101611b9a565b600067ffffffffffffffff80841115611bc957611bc961221f565b604051601f8501601f19908116603f01168101908282118183101715611bf157611bf161221f565b81604052809350858152868686011115611c0a57600080fd5b858560208301376000602087830101525050509392505050565b80356001600160a01b0381168114611c3b57600080fd5b919050565b600082601f830112611c50578081fd5b610cf583833560208501611bae565b600060208284031215611c70578081fd5b610cf582611c24565b60008060408385031215611c8b578081fd5b611c9483611c24565b9150611ca260208401611c24565b90509250929050565b600080600060608486031215611cbf578081fd5b611cc884611c24565b9250611cd660208501611c24565b9150604084013590509250925092565b60008060008060808587031215611cfb578081fd5b611d0485611c24565b9350611d1260208601611c24565b925060408501359150606085013567ffffffffffffffff811115611d34578182fd5b8501601f81018713611d44578182fd5b611d5387823560208401611bae565b91505092959194509250565b60008060408385031215611d71578182fd5b611d7a83611c24565b915060208301358015158114611d8e578182fd5b809150509250929050565b60008060408385031215611dab578182fd5b611db483611c24565b946020939093013593505050565b600060208284031215611dd3578081fd5b5035919050565b60008060408385031215611dec578182fd5b82359150611ca260208401611c24565b600060208284031215611e0d578081fd5b8135610cf581612235565b600060208284031215611e29578081fd5b8151610cf581612235565b60008060408385031215611e46578182fd5b823567ffffffffffffffff80821115611e5d578384fd5b611e6986838701611c40565b93506020850135915080821115611e7e578283fd5b50611e8b85828601611c40565b9150509250929050565b60008151808452611ead81602086016020860161214c565b601f01601f19169290920160200192915050565b60008351611ed381846020880161214c565b835190830190611ee781836020880161214c565b01949350505050565b7f416363657373436f6e74726f6c3a206163636f756e7420000000000000000000815260008351611f2881601785016020880161214c565b7001034b99036b4b9b9b4b733903937b6329607d1b6017918401918201528351611f5981602884016020880161214c565b01602801949350505050565b6001600160a01b0385811682528416602082015260408101839052608060608201819052600090611f9890830184611e95565b9695505050505050565b6020808252825182820181905260009190848201906040850190845b81811015611fda57835183529284019291840191600101611fbe565b50909695505050505050565b602081526000610cf56020830184611e95565b60208082526032908201527f4552433732313a207472616e7366657220746f206e6f6e20455243373231526560408201527131b2b4bb32b91034b6b83632b6b2b73a32b960711b606082015260800190565b6020808252602e908201527f496e697469616c697a61626c653a20636f6e747261637420697320616c72656160408201526d191e481a5b9a5d1a585b1a5e995960921b606082015260800190565b60208082526031908201527f4552433732313a207472616e736665722063616c6c6572206973206e6f74206f6040820152701ddb995c881b9bdc88185c1c1c9bdd9959607a1b606082015260800190565b600082198211156120fd576120fd6121f3565b500190565b60008261211157612111612209565b500490565b6000816000190483118215151615612130576121306121f3565b500290565b600082821015612147576121476121f3565b500390565b60005b8381101561216757818101518382015260200161214f565b83811115610c0e5750506000910152565b600081612187576121876121f3565b506000190190565b600181811c908216806121a357607f821691505b6020821081141561082757634e487b7160e01b600052602260045260246000fd5b60006000198214156121d8576121d86121f3565b5060010190565b6000826121ee576121ee612209565b500690565b634e487b7160e01b600052601160045260246000fd5b634e487b7160e01b600052601260045260246000fd5b634e487b7160e01b600052604160045260246000fd5b6001600160e01b0319811681146108bf57600080fdfea2646970667358221220c879142d9a5bc040e9073b3e6799d9e58a98f2d189c8228687829ec565c8714f64736f6c63430008040033",
  "linkReferences": {},
  "deployedLinkReferences": {}
}