{
  "_format": "hh-sol-artifact-1",
  "contractName": "Hen",
  "sourceName": "contracts/Hen.sol",
  "abi": [
    {
      "anonymous": false,
      "inputs": [
        {
          "indexed": true,
          "internalType": "address",
          "name": "owner",
          "type": "address"
        },
        {
          "indexed": true,
          "internalType": "address",
          "name": "approved",
          "type": "address"
        },
        {
          "indexed": true,
          "internalType": "uint256",
          "name": "tokenId",
          "type": "uint256"
        }
      ],
      "name": "Approval",
      "type": "event"
    },
    {
      "anonymous": false,
      "inputs": [
        {
          "indexed": true,
          "internalType": "address",
          "name": "owner",
          "type": "address"
        },
        {
          "indexed": true,
          "internalType": "address",
          "name": "operator",
          "type": "address"
        },
        {
          "indexed": false,
          "internalType": "bool",
          "name": "approved",
          "type": "bool"
        }
      ],
      "name": "ApprovalForAll",
      "type": "event"
    },
    {
      "anonymous": false,
      "inputs": [
        {
          "indexed": true,
          "internalType": "bytes32",
          "name": "role",
          "type": "bytes32"
        },
        {
          "indexed": true,
          "internalType": "bytes32",
          "name": "previousAdminRole",
          "type": "bytes32"
        },
        {
          "indexed": true,
          "internalType": "bytes32",
          "name": "newAdminRole",
          "type": "bytes32"
        }
      ],
      "name": "RoleAdminChanged",
      "type": "event"
    },
    {
      "anonymous": false,
      "inputs": [
        {
          "indexed": true,
          "internalType": "bytes32",
          "name": "role",
          "type": "bytes32"
        },
        {
          "indexed": true,
          "internalType": "address",
          "name": "account",
          "type": "address"
        },
        {
          "indexed": true,
          "internalType": "address",
          "name": "sender",
          "type": "address"
        }
      ],
      "name": "RoleGranted",
      "type": "event"
    },
    {
      "anonymous": false,
      "inputs": [
        {
          "indexed": true,
          "internalType": "bytes32",
          "name": "role",
          "type": "bytes32"
        },
        {
          "indexed": true,
          "internalType": "address",
          "name": "account",
          "type": "address"
        },
        {
          "indexed": true,
          "internalType": "address",
          "name": "sender",
          "type": "address"
        }
      ],
      "name": "RoleRevoked",
      "type": "event"
    },
    {
      "anonymous": false,
      "inputs": [
        {
          "indexed": true,
          "internalType": "address",
          "name": "from",
          "type": "address"
        },
        {
          "indexed": true,
          "internalType": "address",
          "name": "to",
          "type": "address"
        },
        {
          "indexed": true,
          "internalType": "uint256",
          "name": "tokenId",
          "type": "uint256"
        }
      ],
      "name": "Transfer",
      "type": "event"
    },
    {
      "inputs": [],
      "name": "DEFAULT_ADMIN_ROLE",
      "outputs": [
        {
          "internalType": "bytes32",
          "name": "",
          "type": "bytes32"
        }
      ],
      "stateMutability": "view",
      "type": "function"
    },
    {
      "inputs": [],
      "name": "MINTER_ROLE",
      "outputs": [
        {
          "internalType": "bytes32",
          "name": "",
          "type": "bytes32"
        }
      ],
      "stateMutability": "view",
      "type": "function"
    },
    {
      "inputs": [
        {
          "internalType": "address",
          "name": "to",
          "type": "address"
        },
        {
          "internalType": "uint256",
          "name": "tokenId",
          "type": "uint256"
        }
      ],
      "name": "approve",
      "outputs": [],
      "stateMutability": "nonpayable",
      "type": "function"
    },
    {
      "inputs": [
        {
          "internalType": "address",
          "name": "owner",
          "type": "address"
        }
      ],
      "name": "balanceOf",
      "outputs": [
        {
          "internalType": "uint256",
          "name": "",
          "type": "uint256"
        }
      ],
      "stateMutability": "view",
      "type": "function"
    },
    {
      "inputs": [
        {
          "internalType": "uint256",
          "name": "tokenId",
          "type": "uint256"
        }
      ],
      "name": "burn",
      "outputs": [],
      "stateMutability": "nonpayable",
      "type": "function"
    },
    {
      "inputs": [
        {
          "internalType": "uint256",
          "name": "tokenId",
          "type": "uint256"
        }
      ],
      "name": "getApproved",
      "outputs": [
        {
          "internalType": "address",
          "name": "",
          "type": "address"
        }
      ],
      "stateMutability": "view",
      "type": "function"
    },
    {
      "inputs": [
        {
          "internalType": "address",
          "name": "user",
          "type": "address"
        }
      ],
      "name": "getHenByUser",
      "outputs": [
        {
          "internalType": "uint256[]",
          "name": "",
          "type": "uint256[]"
        }
      ],
      "stateMutability": "view",
      "type": "function"
    },
    {
      "inputs": [
        {
          "internalType": "uint256",
          "name": "tokenId",
          "type": "uint256"
        }
      ],
      "name": "getHenDetail",
      "outputs": [
        {
          "components": [
            {
              "internalType": "uint8",
              "name": "level",
              "type": "uint8"
            },
            {
              "internalType": "uint8",
              "name": "productivity",
              "type": "uint8"
            },
            {
              "internalType": "uint8",
              "name": "endurance",
              "type": "uint8"
            },
            {
              "internalType": "uint8",
              "name": "strength",
              "type": "uint8"
            },
            {
              "internalType": "uint8",
              "name": "stamina",
              "type": "uint8"
            },
            {
              "internalType": "uint8",
              "name": "health",
              "type": "uint8"
            }
          ],
          "internalType": "struct Hen.HenAttr",
          "name": "",
          "type": "tuple"
        }
      ],
      "stateMutability": "view",
      "type": "function"
    },
    {
      "inputs": [
        {
          "internalType": "bytes32",
          "name": "role",
          "type": "bytes32"
        }
      ],
      "name": "getRoleAdmin",
      "outputs": [
        {
          "internalType": "bytes32",
          "name": "",
          "type": "bytes32"
        }
      ],
      "stateMutability": "view",
      "type": "function"
    },
    {
      "inputs": [
        {
          "internalType": "bytes32",
          "name": "role",
          "type": "bytes32"
        },
        {
          "internalType": "address",
          "name": "account",
          "type": "address"
        }
      ],
      "name": "grantRole",
      "outputs": [],
      "stateMutability": "nonpayable",
      "type": "function"
    },
    {
      "inputs": [
        {
          "internalType": "address",
          "name": "to",
          "type": "address"
        },
        {
          "internalType": "bytes32",
          "name": "role",
          "type": "bytes32"
        }
      ],
      "name": "grantRole",
      "outputs": [],
      "stateMutability": "nonpayable",
      "type": "function"
    },
    {
      "inputs": [
        {
          "internalType": "bytes32",
          "name": "role",
          "type": "bytes32"
        },
        {
          "internalType": "address",
          "name": "account",
          "type": "address"
        }
      ],
      "name": "hasRole",
      "outputs": [
        {
          "internalType": "bool",
          "name": "",
          "type": "bool"
        }
      ],
      "stateMutability": "view",
      "type": "function"
    },
    {
      "inputs": [
        {
          "internalType": "string",
          "name": "name",
          "type": "string"
        },
        {
          "internalType": "string",
          "name": "ticker",
          "type": "string"
        }
      ],
      "name": "initialize",
      "outputs": [],
      "stateMutability": "nonpayable",
      "type": "function"
    },
    {
      "inputs": [
        {
          "internalType": "address",
          "name": "owner",
          "type": "address"
        },
        {
          "internalType": "address",
          "name": "operator",
          "type": "address"
        }
      ],
      "name": "isApprovedForAll",
      "outputs": [
        {
          "internalType": "bool",
          "name": "",
          "type": "bool"
        }
      ],
      "stateMutability": "view",
      "type": "function"
    },
    {
      "inputs": [],
      "name": "name",
      "outputs": [
        {
          "internalType": "string",
          "name": "",
          "type": "string"
        }
      ],
      "stateMutability": "view",
      "type": "function"
    },
    {
      "inputs": [
        {
          "internalType": "uint256",
          "name": "tokenId",
          "type": "uint256"
        }
      ],
      "name": "ownerOf",
      "outputs": [
        {
          "internalType": "address",
          "name": "",
          "type": "address"
        }
      ],
      "stateMutability": "view",
      "type": "function"
    },
    {
      "inputs": [
        {
          "internalType": "bytes32",
          "name": "role",
          "type": "bytes32"
        },
        {
          "internalType": "address",
          "name": "account",
          "type": "address"
        }
      ],
      "name": "renounceRole",
      "outputs": [],
      "stateMutability": "nonpayable",
      "type": "function"
    },
    {
      "inputs": [
        {
          "internalType": "bytes32",
          "name": "role",
          "type": "bytes32"
        },
        {
          "internalType": "address",
          "name": "account",
          "type": "address"
        }
      ],
      "name": "revokeRole",
      "outputs": [],
      "stateMutability": "nonpayable",
      "type": "function"
    },
    {
      "inputs": [
        {
          "internalType": "address",
          "name": "to",
          "type": "address"
        }
      ],
      "name": "safeMint",
      "outputs": [
        {
          "internalType": "uint256",
          "name": "",
          "type": "uint256"
        }
      ],
      "stateMutability": "nonpayable",
      "type": "function"
    },
    {
      "inputs": [
        {
          "internalType": "address",
          "name": "from",
          "type": "address"
        },
        {
          "internalType": "address",
          "name": "to",
          "type": "address"
        },
        {
          "internalType": "uint256",
          "name": "tokenId",
          "type": "uint256"
        }
      ],
      "name": "safeTransferFrom",
      "outputs": [],
      "stateMutability": "nonpayable",
      "type": "function"
    },
    {
      "inputs": [
        {
          "internalType": "address",
          "name": "from",
          "type": "address"
        },
        {
          "internalType": "address",
          "name": "to",
          "type": "address"
        },
        {
          "internalType": "uint256",
          "name": "tokenId",
          "type": "uint256"
        },
        {
          "internalType": "bytes",
          "name": "_data",
          "type": "bytes"
        }
      ],
      "name": "safeTransferFrom",
      "outputs": [],
      "stateMutability": "nonpayable",
      "type": "function"
    },
    {
      "inputs": [
        {
          "internalType": "address",
          "name": "operator",
          "type": "address"
        },
        {
          "internalType": "bool",
          "name": "approved",
          "type": "bool"
        }
      ],
      "name": "setApprovalForAll",
      "outputs": [],
      "stateMutability": "nonpayable",
      "type": "function"
    },
    {
      "inputs": [
        {
          "internalType": "bytes4",
          "name": "interfaceId",
          "type": "bytes4"
        }
      ],
      "name": "supportsInterface",
      "outputs": [
        {
          "internalType": "bool",
          "name": "",
          "type": "bool"
        }
      ],
      "stateMutability": "view",
      "type": "function"
    },
    {
      "inputs": [],
      "name": "symbol",
      "outputs": [
        {
          "internalType": "string",
          "name": "",
          "type": "string"
        }
      ],
      "stateMutability": "view",
      "type": "function"
    },
    {
      "inputs": [
        {
          "internalType": "uint256",
          "name": "tokenId",
          "type": "uint256"
        }
      ],
      "name": "tokenURI",
      "outputs": [
        {
          "internalType": "string",
          "name": "",
          "type": "string"
        }
      ],
      "stateMutability": "view",
      "type": "function"
    },
    {
      "inputs": [
        {
          "internalType": "address",
          "name": "from",
          "type": "address"
        },
        {
          "internalType": "address",
          "name": "to",
          "type": "address"
        },
        {
          "internalType": "uint256",
          "name": "tokenId",
          "type": "uint256"
        }
      ],
      "name": "transferFrom",
      "outputs": [],
      "stateMutability": "nonpayable",
      "type": "function"
    }
  ],
  "bytecode": "0x608060405234801561001057600080fd5b50612471806100206000396000f3fe608060405234801561001057600080fd5b506004361061018e5760003560e01c80636352211e116100de578063ab2742dc11610097578063c87b56dd11610071578063c87b56dd14610474578063d539139314610487578063d547741f146104ae578063e985e9c5146104c157600080fd5b8063ab2742dc14610342578063b88d4fde14610355578063c5e258e81461036857600080fd5b80636352211e146102e657806370a08231146102f957806391d148541461030c57806395d89b411461031f578063a217fddf14610327578063a22cb4651461032f57600080fd5b80632f2ff15d1161014b57806342842e0e1161012557806342842e0e1461028d57806342966c68146102a05780634589c930146102b35780634cd88b76146102d357600080fd5b80632f2ff15d1461025457806336568abe1461026757806340d097c31461027a57600080fd5b806301ffc9a71461019357806306fdde03146101bb578063081812fc146101d0578063095ea7b3146101fb57806323b872dd14610210578063248a9ca314610223575b600080fd5b6101a66101a1366004611fc7565b6104fd565b60405190151581526020015b60405180910390f35b6101c361050e565b6040516101b291906121b1565b6101e36101de366004611f8d565b6105a0565b6040516001600160a01b0390911681526020016101b2565b61020e610209366004611f64565b61063a565b005b61020e61021e366004611e76565b610750565b610246610231366004611f8d565b600090815260c9602052604090206001015490565b6040519081526020016101b2565b61020e610262366004611fa5565b610782565b61020e610275366004611fa5565b6107a8565b610246610288366004611e2a565b610826565b61020e61029b366004611e76565b61098e565b61020e6102ae366004611f8d565b6109a9565b6102c66102c1366004611e2a565b610a23565b6040516101b2919061216d565b61020e6102e1366004611fff565b610b28565b6101e36102f4366004611f8d565b610be4565b610246610307366004611e2a565b610c5b565b6101a661031a366004611fa5565b610ce2565b6101c3610d0d565b610246600081565b61020e61033d366004611f2a565b610d1c565b61020e610350366004611f64565b610d27565b61020e610363366004611eb1565b610d3d565b610419610376366004611f8d565b6040805160c081018252600080825260208201819052918101829052606081018290526080810182905260a081019190915250600090815260fd6020908152604091829020825160c081018452905460ff808216835261010082048116938301939093526201000081048316938201939093526301000000830482166060820152640100000000830482166080820152650100000000009092041660a082015290565b6040516101b29190600060c08201905060ff8084511683528060208501511660208401528060408501511660408401528060608501511660608401528060808501511660808401528060a08501511660a08401525092915050565b6101c3610482366004611f8d565b610d75565b6102467f9f2df0fed2c77648de5860a4cc508cd0818c85b8b8a1ab4ceeef8d981c8956a681565b61020e6104bc366004611fa5565b610e5d565b6101a66104cf366004611e44565b6001600160a01b039182166000908152606a6020908152604080832093909416825291909152205460ff1690565b600061050882610e83565b92915050565b60606065805461051d9061237f565b80601f01602080910402602001604051908101604052809291908181526020018280546105499061237f565b80156105965780601f1061056b57610100808354040283529160200191610596565b820191906000526020600020905b81548152906001019060200180831161057957829003601f168201915b5050505050905090565b6000818152606760205260408120546001600160a01b031661061e5760405162461bcd60e51b815260206004820152602c60248201527f4552433732313a20617070726f76656420717565727920666f72206e6f6e657860448201526b34b9ba32b73a103a37b5b2b760a11b60648201526084015b60405180910390fd5b506000908152606960205260409020546001600160a01b031690565b600061064582610be4565b9050806001600160a01b0316836001600160a01b031614156106b35760405162461bcd60e51b815260206004820152602160248201527f4552433732313a20617070726f76616c20746f2063757272656e74206f776e656044820152603960f91b6064820152608401610615565b336001600160a01b03821614806106cf57506106cf81336104cf565b6107415760405162461bcd60e51b815260206004820152603860248201527f4552433732313a20617070726f76652063616c6c6572206973206e6f74206f7760448201527f6e6572206e6f7220617070726f76656420666f7220616c6c00000000000000006064820152608401610615565b61074b8383610ea8565b505050565b61075b335b82610f16565b6107775760405162461bcd60e51b815260040161061590612264565b61074b83838361100d565b600082815260c9602052604090206001015461079e81336111ad565b61074b8383611211565b6001600160a01b03811633146108185760405162461bcd60e51b815260206004820152602f60248201527f416363657373436f6e74726f6c3a2063616e206f6e6c792072656e6f756e636560448201526e103937b632b9903337b91039b2b63360891b6064820152608401610615565b6108228282611297565b5050565b60007f9f2df0fed2c77648de5860a4cc508cd0818c85b8b8a1ab4ceeef8d981c8956a661085381336111ad565b600061085e60fb5490565b90506040518060c00160405280600160ff16815260200161087d6112fe565b60ff16815260200161088d6112fe565b60ff16815260200161089d6112fe565b60ff1681526020016108ad6112fe565b60ff1681526020016108bd6112fe565b60ff908116909152600083815260fd60209081526040918290208451815492860151938601516060870151608088015160a0909801518716650100000000000265ff000000000019988816640100000000029890981665ffff000000001991881663010000000263ff0000001993891662010000029390931663ffff0000199789166101000261ffff19909716949098169390931794909417949094169490941792909217169190911791909117905561097b60fb80546001019055565b6109858482611368565b91505b50919050565b61074b83838360405180602001604052806000815250610d3d565b6109b233610755565b610a175760405162461bcd60e51b815260206004820152603060248201527f4552433732314275726e61626c653a2063616c6c6572206973206e6f74206f7760448201526f1b995c881b9bdc88185c1c1c9bdd995960821b6064820152608401610615565b610a2081611382565b50565b60606000610a3083610c5b565b905080610a4d575050604080516000815260208101909152919050565b60008167ffffffffffffffff811115610a7657634e487b7160e01b600052604160045260246000fd5b604051908082528060200260200182016040528015610a9f578160200160208202803683370190505b5090506000805b60fb54811015610b1e57856001600160a01b0316610ac382610be4565b6001600160a01b03161415610b0c5780838381518110610af357634e487b7160e01b600052603260045260246000fd5b602090810291909101015281610b08816123b4565b9250505b80610b16816123b4565b915050610aa6565b5090949350505050565b600054610100900460ff1680610b41575060005460ff16155b610b5d5760405162461bcd60e51b815260040161061590612216565b600054610100900460ff16158015610b7f576000805461ffff19166101011790555b610b89838361141d565b610b9161148e565b610b9961148e565b610ba4600033611211565b610bce7f9f2df0fed2c77648de5860a4cc508cd0818c85b8b8a1ab4ceeef8d981c8956a633611211565b801561074b576000805461ff0019169055505050565b6000818152606760205260408120546001600160a01b0316806105085760405162461bcd60e51b815260206004820152602960248201527f4552433732313a206f776e657220717565727920666f72206e6f6e657869737460448201526832b73a103a37b5b2b760b91b6064820152608401610615565b60006001600160a01b038216610cc65760405162461bcd60e51b815260206004820152602a60248201527f4552433732313a2062616c616e636520717565727920666f7220746865207a65604482015269726f206164647265737360b01b6064820152608401610615565b506001600160a01b031660009081526068602052604090205490565b600091825260c9602090815260408084206001600160a01b0393909316845291905290205460ff1690565b60606066805461051d9061237f565b610822338383611511565b6000610d3381336111ad565b61074b8284611211565b610d473383610f16565b610d635760405162461bcd60e51b815260040161061590612264565b610d6f848484846115e0565b50505050565b6000818152606760205260409020546060906001600160a01b0316610df45760405162461bcd60e51b815260206004820152602f60248201527f4552433732314d657461646174613a2055524920717565727920666f72206e6f60448201526e3732bc34b9ba32b73a103a37b5b2b760891b6064820152608401610615565b6000610e0b60408051602081019091526000815290565b90506000815111610e2b5760405180602001604052806000815250610e56565b80610e3584611613565b604051602001610e4692919061208c565b6040516020818303038152906040525b9392505050565b600082815260c96020526040902060010154610e7981336111ad565b61074b8383611297565b60006001600160e01b03198216637965db0b60e01b148061050857506105088261172d565b600081815260696020526040902080546001600160a01b0319166001600160a01b0384169081179091558190610edd82610be4565b6001600160a01b03167f8c5be1e5ebec7d5bd14f71427d1e84f3dd0314c0f7b2291e5b200ac8c7c3b92560405160405180910390a45050565b6000818152606760205260408120546001600160a01b0316610f8f5760405162461bcd60e51b815260206004820152602c60248201527f4552433732313a206f70657261746f7220717565727920666f72206e6f6e657860448201526b34b9ba32b73a103a37b5b2b760a11b6064820152608401610615565b6000610f9a83610be4565b9050806001600160a01b0316846001600160a01b03161480610fd55750836001600160a01b0316610fca846105a0565b6001600160a01b0316145b8061100557506001600160a01b038082166000908152606a602090815260408083209388168352929052205460ff165b949350505050565b826001600160a01b031661102082610be4565b6001600160a01b0316146110885760405162461bcd60e51b815260206004820152602960248201527f4552433732313a207472616e73666572206f6620746f6b656e2074686174206960448201526839903737ba1037bbb760b91b6064820152608401610615565b6001600160a01b0382166110ea5760405162461bcd60e51b8152602060048201526024808201527f4552433732313a207472616e7366657220746f20746865207a65726f206164646044820152637265737360e01b6064820152608401610615565b6110f5600082610ea8565b6001600160a01b038316600090815260686020526040812080546001929061111e908490612325565b90915550506001600160a01b038216600090815260686020526040812080546001929061114c9084906122b5565b909155505060008181526067602052604080822080546001600160a01b0319166001600160a01b0386811691821790925591518493918716917fddf252ad1be2c89b69c2b068fc378daa952ba7f163c4a11628f55a4df523b3ef91a4505050565b6111b78282610ce2565b610822576111cf816001600160a01b0316601461177d565b6111da83602061177d565b6040516020016111eb9291906120bb565b60408051601f198184030181529082905262461bcd60e51b8252610615916004016121b1565b61121b8282610ce2565b61082257600082815260c9602090815260408083206001600160a01b03851684529091529020805460ff191660011790556112533390565b6001600160a01b0316816001600160a01b0316837f2f8788117e7eff1d82e926ec794901d17c78024a50270940304540a733656f0d60405160405180910390a45050565b6112a18282610ce2565b1561082257600082815260c9602090815260408083206001600160a01b0385168085529252808320805460ff1916905551339285917ff6391f5c32d9c69d2a47ea670b442974b53935d1edc7fd64eb21e047a839171b9190a45050565b60006063424460fc6000815480929190611317906123b4565b9091555060408051602081019490945283019190915260608201526080016040516020818303038152906040528051906020012060001c61135891906123cf565b6113639060016122cd565b905090565b61082282826040518060200160405280600081525061195f565b600061138d82610be4565b905061139a600083610ea8565b6001600160a01b03811660009081526068602052604081208054600192906113c3908490612325565b909155505060008281526067602052604080822080546001600160a01b0319169055518391906001600160a01b038416907fddf252ad1be2c89b69c2b068fc378daa952ba7f163c4a11628f55a4df523b3ef908390a45050565b600054610100900460ff1680611436575060005460ff16155b6114525760405162461bcd60e51b815260040161061590612216565b600054610100900460ff16158015611474576000805461ffff19166101011790555b61147c611992565b611484611992565b610bce83836119fc565b600054610100900460ff16806114a7575060005460ff16155b6114c35760405162461bcd60e51b815260040161061590612216565b600054610100900460ff161580156114e5576000805461ffff19166101011790555b6114ed611992565b6114f5611992565b6114fd611992565b8015610a20576000805461ff001916905550565b816001600160a01b0316836001600160a01b031614156115735760405162461bcd60e51b815260206004820152601960248201527f4552433732313a20617070726f766520746f2063616c6c6572000000000000006044820152606401610615565b6001600160a01b038381166000818152606a6020908152604080832094871680845294825291829020805460ff191686151590811790915591519182527f17307eab39ab6107e8899845ad3d59bd9653f200f220920489ca2b5937696c31910160405180910390a3505050565b6115eb84848461100d565b6115f784848484611a91565b610d6f5760405162461bcd60e51b8152600401610615906121c4565b6060816116375750506040805180820190915260018152600360fc1b602082015290565b8160005b8115611661578061164b816123b4565b915061165a9050600a836122f2565b915061163b565b60008167ffffffffffffffff81111561168a57634e487b7160e01b600052604160045260246000fd5b6040519080825280601f01601f1916602001820160405280156116b4576020820181803683370190505b5090505b8415611005576116c9600183612325565b91506116d6600a866123cf565b6116e19060306122b5565b60f81b81838151811061170457634e487b7160e01b600052603260045260246000fd5b60200101906001600160f81b031916908160001a905350611726600a866122f2565b94506116b8565b60006001600160e01b031982166380ac58cd60e01b148061175e57506001600160e01b03198216635b5e139f60e01b145b8061050857506301ffc9a760e01b6001600160e01b0319831614610508565b6060600061178c836002612306565b6117979060026122b5565b67ffffffffffffffff8111156117bd57634e487b7160e01b600052604160045260246000fd5b6040519080825280601f01601f1916602001820160405280156117e7576020820181803683370190505b509050600360fc1b8160008151811061181057634e487b7160e01b600052603260045260246000fd5b60200101906001600160f81b031916908160001a905350600f60fb1b8160018151811061184d57634e487b7160e01b600052603260045260246000fd5b60200101906001600160f81b031916908160001a9053506000611871846002612306565b61187c9060016122b5565b90505b6001811115611910576f181899199a1a9b1b9c1cb0b131b232b360811b85600f16601081106118be57634e487b7160e01b600052603260045260246000fd5b1a60f81b8282815181106118e257634e487b7160e01b600052603260045260246000fd5b60200101906001600160f81b031916908160001a90535060049490941c9361190981612368565b905061187f565b508315610e565760405162461bcd60e51b815260206004820181905260248201527f537472696e67733a20686578206c656e67746820696e73756666696369656e746044820152606401610615565b6119698383611b9e565b6119766000848484611a91565b61074b5760405162461bcd60e51b8152600401610615906121c4565b600054610100900460ff16806119ab575060005460ff16155b6119c75760405162461bcd60e51b815260040161061590612216565b600054610100900460ff161580156114fd576000805461ffff19166101011790558015610a20576000805461ff001916905550565b600054610100900460ff1680611a15575060005460ff16155b611a315760405162461bcd60e51b815260040161061590612216565b600054610100900460ff16158015611a53576000805461ffff19166101011790555b8251611a66906065906020860190611ce0565b508151611a7a906066906020850190611ce0565b50801561074b576000805461ff0019169055505050565b60006001600160a01b0384163b15611b9357604051630a85bd0160e11b81526001600160a01b0385169063150b7a0290611ad5903390899088908890600401612130565b602060405180830381600087803b158015611aef57600080fd5b505af1925050508015611b1f575060408051601f3d908101601f19168201909252611b1c91810190611fe3565b60015b611b79573d808015611b4d576040519150601f19603f3d011682016040523d82523d6000602084013e611b52565b606091505b508051611b715760405162461bcd60e51b8152600401610615906121c4565b805181602001fd5b6001600160e01b031916630a85bd0160e11b149050611005565b506001949350505050565b6001600160a01b038216611bf45760405162461bcd60e51b815260206004820181905260248201527f4552433732313a206d696e7420746f20746865207a65726f20616464726573736044820152606401610615565b6000818152606760205260409020546001600160a01b031615611c595760405162461bcd60e51b815260206004820152601c60248201527f4552433732313a20746f6b656e20616c7265616479206d696e746564000000006044820152606401610615565b6001600160a01b0382166000908152606860205260408120805460019290611c829084906122b5565b909155505060008181526067602052604080822080546001600160a01b0319166001600160a01b03861690811790915590518392907fddf252ad1be2c89b69c2b068fc378daa952ba7f163c4a11628f55a4df523b3ef908290a45050565b828054611cec9061237f565b90600052602060002090601f016020900481019282611d0e5760008555611d54565b82601f10611d2757805160ff1916838001178555611d54565b82800160010185558215611d54579182015b82811115611d54578251825591602001919060010190611d39565b50611d60929150611d64565b5090565b5b80821115611d605760008155600101611d65565b600067ffffffffffffffff80841115611d9457611d9461240f565b604051601f8501601f19908116603f01168101908282118183101715611dbc57611dbc61240f565b81604052809350858152868686011115611dd557600080fd5b858560208301376000602087830101525050509392505050565b80356001600160a01b0381168114611e0657600080fd5b919050565b600082601f830112611e1b578081fd5b610e5683833560208501611d79565b600060208284031215611e3b578081fd5b610e5682611def565b60008060408385031215611e56578081fd5b611e5f83611def565b9150611e6d60208401611def565b90509250929050565b600080600060608486031215611e8a578081fd5b611e9384611def565b9250611ea160208501611def565b9150604084013590509250925092565b60008060008060808587031215611ec6578081fd5b611ecf85611def565b9350611edd60208601611def565b925060408501359150606085013567ffffffffffffffff811115611eff578182fd5b8501601f81018713611f0f578182fd5b611f1e87823560208401611d79565b91505092959194509250565b60008060408385031215611f3c578182fd5b611f4583611def565b915060208301358015158114611f59578182fd5b809150509250929050565b60008060408385031215611f76578182fd5b611f7f83611def565b946020939093013593505050565b600060208284031215611f9e578081fd5b5035919050565b60008060408385031215611fb7578182fd5b82359150611e6d60208401611def565b600060208284031215611fd8578081fd5b8135610e5681612425565b600060208284031215611ff4578081fd5b8151610e5681612425565b60008060408385031215612011578182fd5b823567ffffffffffffffff80821115612028578384fd5b61203486838701611e0b565b93506020850135915080821115612049578283fd5b5061205685828601611e0b565b9150509250929050565b6000815180845261207881602086016020860161233c565b601f01601f19169290920160200192915050565b6000835161209e81846020880161233c565b8351908301906120b281836020880161233c565b01949350505050565b7f416363657373436f6e74726f6c3a206163636f756e74200000000000000000008152600083516120f381601785016020880161233c565b7001034b99036b4b9b9b4b733903937b6329607d1b601791840191820152835161212481602884016020880161233c565b01602801949350505050565b6001600160a01b038581168252841660208201526040810183905260806060820181905260009061216390830184612060565b9695505050505050565b6020808252825182820181905260009190848201906040850190845b818110156121a557835183529284019291840191600101612189565b50909695505050505050565b602081526000610e566020830184612060565b60208082526032908201527f4552433732313a207472616e7366657220746f206e6f6e20455243373231526560408201527131b2b4bb32b91034b6b83632b6b2b73a32b960711b606082015260800190565b6020808252602e908201527f496e697469616c697a61626c653a20636f6e747261637420697320616c72656160408201526d191e481a5b9a5d1a585b1a5e995960921b606082015260800190565b60208082526031908201527f4552433732313a207472616e736665722063616c6c6572206973206e6f74206f6040820152701ddb995c881b9bdc88185c1c1c9bdd9959607a1b606082015260800190565b600082198211156122c8576122c86123e3565b500190565b600060ff821660ff84168060ff038211156122ea576122ea6123e3565b019392505050565b600082612301576123016123f9565b500490565b6000816000190483118215151615612320576123206123e3565b500290565b600082821015612337576123376123e3565b500390565b60005b8381101561235757818101518382015260200161233f565b83811115610d6f5750506000910152565b600081612377576123776123e3565b506000190190565b600181811c9082168061239357607f821691505b6020821081141561098857634e487b7160e01b600052602260045260246000fd5b60006000198214156123c8576123c86123e3565b5060010190565b6000826123de576123de6123f9565b500690565b634e487b7160e01b600052601160045260246000fd5b634e487b7160e01b600052601260045260246000fd5b634e487b7160e01b600052604160045260246000fd5b6001600160e01b031981168114610a2057600080fdfea26469706673582212202c02448b790cd7dd82fab68821cac579c718e9f461fdf233656dc41c75a1622b64736f6c63430008040033",
  "linkReferences": {},
  "deployedLinkReferences": {}
}