{
  "_format": "hh-sol-artifact-1",
  "contractName": "Hen",
  "sourceName": "contracts/Hen.sol",
  "abi": [
    {
      "anonymous": false,
      "inputs": [
        {
          "indexed": true,
          "internalType": "address",
          "name": "owner",
          "type": "address"
        },
        {
          "indexed": true,
          "internalType": "address",
          "name": "approved",
          "type": "address"
        },
        {
          "indexed": true,
          "internalType": "uint256",
          "name": "tokenId",
          "type": "uint256"
        }
      ],
      "name": "Approval",
      "type": "event"
    },
    {
      "anonymous": false,
      "inputs": [
        {
          "indexed": true,
          "internalType": "address",
          "name": "owner",
          "type": "address"
        },
        {
          "indexed": true,
          "internalType": "address",
          "name": "operator",
          "type": "address"
        },
        {
          "indexed": false,
          "internalType": "bool",
          "name": "approved",
          "type": "bool"
        }
      ],
      "name": "ApprovalForAll",
      "type": "event"
    },
    {
      "anonymous": false,
      "inputs": [
        {
          "indexed": true,
          "internalType": "bytes32",
          "name": "role",
          "type": "bytes32"
        },
        {
          "indexed": true,
          "internalType": "bytes32",
          "name": "previousAdminRole",
          "type": "bytes32"
        },
        {
          "indexed": true,
          "internalType": "bytes32",
          "name": "newAdminRole",
          "type": "bytes32"
        }
      ],
      "name": "RoleAdminChanged",
      "type": "event"
    },
    {
      "anonymous": false,
      "inputs": [
        {
          "indexed": true,
          "internalType": "bytes32",
          "name": "role",
          "type": "bytes32"
        },
        {
          "indexed": true,
          "internalType": "address",
          "name": "account",
          "type": "address"
        },
        {
          "indexed": true,
          "internalType": "address",
          "name": "sender",
          "type": "address"
        }
      ],
      "name": "RoleGranted",
      "type": "event"
    },
    {
      "anonymous": false,
      "inputs": [
        {
          "indexed": true,
          "internalType": "bytes32",
          "name": "role",
          "type": "bytes32"
        },
        {
          "indexed": true,
          "internalType": "address",
          "name": "account",
          "type": "address"
        },
        {
          "indexed": true,
          "internalType": "address",
          "name": "sender",
          "type": "address"
        }
      ],
      "name": "RoleRevoked",
      "type": "event"
    },
    {
      "anonymous": false,
      "inputs": [
        {
          "indexed": true,
          "internalType": "address",
          "name": "from",
          "type": "address"
        },
        {
          "indexed": true,
          "internalType": "address",
          "name": "to",
          "type": "address"
        },
        {
          "indexed": true,
          "internalType": "uint256",
          "name": "tokenId",
          "type": "uint256"
        }
      ],
      "name": "Transfer",
      "type": "event"
    },
    {
      "inputs": [],
      "name": "DEFAULT_ADMIN_ROLE",
      "outputs": [
        {
          "internalType": "bytes32",
          "name": "",
          "type": "bytes32"
        }
      ],
      "stateMutability": "view",
      "type": "function"
    },
    {
      "inputs": [],
      "name": "MINTER_ROLE",
      "outputs": [
        {
          "internalType": "bytes32",
          "name": "",
          "type": "bytes32"
        }
      ],
      "stateMutability": "view",
      "type": "function"
    },
    {
      "inputs": [
        {
          "internalType": "address",
          "name": "to",
          "type": "address"
        },
        {
          "internalType": "uint256",
          "name": "tokenId",
          "type": "uint256"
        }
      ],
      "name": "approve",
      "outputs": [],
      "stateMutability": "nonpayable",
      "type": "function"
    },
    {
      "inputs": [
        {
          "internalType": "address",
          "name": "owner",
          "type": "address"
        }
      ],
      "name": "balanceOf",
      "outputs": [
        {
          "internalType": "uint256",
          "name": "",
          "type": "uint256"
        }
      ],
      "stateMutability": "view",
      "type": "function"
    },
    {
      "inputs": [
        {
          "internalType": "uint256",
          "name": "tokenId",
          "type": "uint256"
        }
      ],
      "name": "burn",
      "outputs": [],
      "stateMutability": "nonpayable",
      "type": "function"
    },
    {
      "inputs": [
        {
          "internalType": "uint256",
          "name": "tokenId",
          "type": "uint256"
        }
      ],
      "name": "getApproved",
      "outputs": [
        {
          "internalType": "address",
          "name": "",
          "type": "address"
        }
      ],
      "stateMutability": "view",
      "type": "function"
    },
    {
      "inputs": [
        {
          "internalType": "bytes32",
          "name": "role",
          "type": "bytes32"
        }
      ],
      "name": "getRoleAdmin",
      "outputs": [
        {
          "internalType": "bytes32",
          "name": "",
          "type": "bytes32"
        }
      ],
      "stateMutability": "view",
      "type": "function"
    },
    {
      "inputs": [
        {
          "internalType": "bytes32",
          "name": "role",
          "type": "bytes32"
        },
        {
          "internalType": "address",
          "name": "account",
          "type": "address"
        }
      ],
      "name": "grantRole",
      "outputs": [],
      "stateMutability": "nonpayable",
      "type": "function"
    },
    {
      "inputs": [
        {
          "internalType": "address",
          "name": "to",
          "type": "address"
        },
        {
          "internalType": "bytes32",
          "name": "role",
          "type": "bytes32"
        }
      ],
      "name": "grantRole",
      "outputs": [],
      "stateMutability": "nonpayable",
      "type": "function"
    },
    {
      "inputs": [
        {
          "internalType": "bytes32",
          "name": "role",
          "type": "bytes32"
        },
        {
          "internalType": "address",
          "name": "account",
          "type": "address"
        }
      ],
      "name": "hasRole",
      "outputs": [
        {
          "internalType": "bool",
          "name": "",
          "type": "bool"
        }
      ],
      "stateMutability": "view",
      "type": "function"
    },
    {
      "inputs": [
        {
          "internalType": "string",
          "name": "name",
          "type": "string"
        },
        {
          "internalType": "string",
          "name": "ticker",
          "type": "string"
        }
      ],
      "name": "initialize",
      "outputs": [],
      "stateMutability": "nonpayable",
      "type": "function"
    },
    {
      "inputs": [
        {
          "internalType": "address",
          "name": "owner",
          "type": "address"
        },
        {
          "internalType": "address",
          "name": "operator",
          "type": "address"
        }
      ],
      "name": "isApprovedForAll",
      "outputs": [
        {
          "internalType": "bool",
          "name": "",
          "type": "bool"
        }
      ],
      "stateMutability": "view",
      "type": "function"
    },
    {
      "inputs": [],
      "name": "name",
      "outputs": [
        {
          "internalType": "string",
          "name": "",
          "type": "string"
        }
      ],
      "stateMutability": "view",
      "type": "function"
    },
    {
      "inputs": [
        {
          "internalType": "uint256",
          "name": "tokenId",
          "type": "uint256"
        }
      ],
      "name": "ownerOf",
      "outputs": [
        {
          "internalType": "address",
          "name": "",
          "type": "address"
        }
      ],
      "stateMutability": "view",
      "type": "function"
    },
    {
      "inputs": [
        {
          "internalType": "bytes32",
          "name": "role",
          "type": "bytes32"
        },
        {
          "internalType": "address",
          "name": "account",
          "type": "address"
        }
      ],
      "name": "renounceRole",
      "outputs": [],
      "stateMutability": "nonpayable",
      "type": "function"
    },
    {
      "inputs": [
        {
          "internalType": "bytes32",
          "name": "role",
          "type": "bytes32"
        },
        {
          "internalType": "address",
          "name": "account",
          "type": "address"
        }
      ],
      "name": "revokeRole",
      "outputs": [],
      "stateMutability": "nonpayable",
      "type": "function"
    },
    {
      "inputs": [
        {
          "internalType": "address",
          "name": "to",
          "type": "address"
        }
      ],
      "name": "safeMint",
      "outputs": [],
      "stateMutability": "nonpayable",
      "type": "function"
    },
    {
      "inputs": [
        {
          "internalType": "address",
          "name": "from",
          "type": "address"
        },
        {
          "internalType": "address",
          "name": "to",
          "type": "address"
        },
        {
          "internalType": "uint256",
          "name": "tokenId",
          "type": "uint256"
        }
      ],
      "name": "safeTransferFrom",
      "outputs": [],
      "stateMutability": "nonpayable",
      "type": "function"
    },
    {
      "inputs": [
        {
          "internalType": "address",
          "name": "from",
          "type": "address"
        },
        {
          "internalType": "address",
          "name": "to",
          "type": "address"
        },
        {
          "internalType": "uint256",
          "name": "tokenId",
          "type": "uint256"
        },
        {
          "internalType": "bytes",
          "name": "_data",
          "type": "bytes"
        }
      ],
      "name": "safeTransferFrom",
      "outputs": [],
      "stateMutability": "nonpayable",
      "type": "function"
    },
    {
      "inputs": [
        {
          "internalType": "address",
          "name": "operator",
          "type": "address"
        },
        {
          "internalType": "bool",
          "name": "approved",
          "type": "bool"
        }
      ],
      "name": "setApprovalForAll",
      "outputs": [],
      "stateMutability": "nonpayable",
      "type": "function"
    },
    {
      "inputs": [
        {
          "internalType": "bytes4",
          "name": "interfaceId",
          "type": "bytes4"
        }
      ],
      "name": "supportsInterface",
      "outputs": [
        {
          "internalType": "bool",
          "name": "",
          "type": "bool"
        }
      ],
      "stateMutability": "view",
      "type": "function"
    },
    {
      "inputs": [],
      "name": "symbol",
      "outputs": [
        {
          "internalType": "string",
          "name": "",
          "type": "string"
        }
      ],
      "stateMutability": "view",
      "type": "function"
    },
    {
      "inputs": [
        {
          "internalType": "uint256",
          "name": "tokenId",
          "type": "uint256"
        }
      ],
      "name": "tokenURI",
      "outputs": [
        {
          "internalType": "string",
          "name": "",
          "type": "string"
        }
      ],
      "stateMutability": "view",
      "type": "function"
    },
    {
      "inputs": [
        {
          "internalType": "address",
          "name": "from",
          "type": "address"
        },
        {
          "internalType": "address",
          "name": "to",
          "type": "address"
        },
        {
          "internalType": "uint256",
          "name": "tokenId",
          "type": "uint256"
        }
      ],
      "name": "transferFrom",
      "outputs": [],
      "stateMutability": "nonpayable",
      "type": "function"
    }
  ],
  "bytecode": "0x608060405234801561001057600080fd5b50612025806100206000396000f3fe608060405234801561001057600080fd5b50600436106101585760003560e01c80636352211e116100c3578063ab2742dc1161007c578063ab2742dc146102ec578063b88d4fde146102ff578063c87b56dd14610312578063d539139314610325578063d547741f1461034c578063e985e9c51461035f57600080fd5b80636352211e1461029057806370a08231146102a357806391d14854146102b657806395d89b41146102c9578063a217fddf146102d1578063a22cb465146102d957600080fd5b80632f2ff15d116101155780632f2ff15d1461021e57806336568abe1461023157806340d097c31461024457806342842e0e1461025757806342966c681461026a5780634cd88b761461027d57600080fd5b806301ffc9a71461015d57806306fdde0314610185578063081812fc1461019a578063095ea7b3146101c557806323b872dd146101da578063248a9ca3146101ed575b600080fd5b61017061016b366004611bde565b61039b565b60405190151581526020015b60405180910390f35b61018d6103ac565b60405161017c9190611d84565b6101ad6101a8366004611ba4565b61043e565b6040516001600160a01b03909116815260200161017c565b6101d86101d3366004611b7b565b6104d8565b005b6101d86101e8366004611a8d565b6105ee565b6102106101fb366004611ba4565b600090815260c9602052604090206001015490565b60405190815260200161017c565b6101d861022c366004611bbc565b610620565b6101d861023f366004611bbc565b610646565b6101d8610252366004611a41565b6106c4565b6101d8610265366004611a8d565b610714565b6101d8610278366004611ba4565b61072f565b6101d861028b366004611c16565b6107a9565b6101ad61029e366004611ba4565b610865565b6102106102b1366004611a41565b6108dc565b6101706102c4366004611bbc565b610963565b61018d61098e565b610210600081565b6101d86102e7366004611b41565b61099d565b6101d86102fa366004611b7b565b6109a8565b6101d861030d366004611ac8565b6109be565b61018d610320366004611ba4565b6109f6565b6102107f9f2df0fed2c77648de5860a4cc508cd0818c85b8b8a1ab4ceeef8d981c8956a681565b6101d861035a366004611bbc565b610ade565b61017061036d366004611a5b565b6001600160a01b039182166000908152606a6020908152604080832093909416825291909152205460ff1690565b60006103a682610b04565b92915050565b6060606580546103bb90611f2d565b80601f01602080910402602001604051908101604052809291908181526020018280546103e790611f2d565b80156104345780601f1061040957610100808354040283529160200191610434565b820191906000526020600020905b81548152906001019060200180831161041757829003601f168201915b5050505050905090565b6000818152606760205260408120546001600160a01b03166104bc5760405162461bcd60e51b815260206004820152602c60248201527f4552433732313a20617070726f76656420717565727920666f72206e6f6e657860448201526b34b9ba32b73a103a37b5b2b760a11b60648201526084015b60405180910390fd5b506000908152606960205260409020546001600160a01b031690565b60006104e382610865565b9050806001600160a01b0316836001600160a01b031614156105515760405162461bcd60e51b815260206004820152602160248201527f4552433732313a20617070726f76616c20746f2063757272656e74206f776e656044820152603960f91b60648201526084016104b3565b336001600160a01b038216148061056d575061056d813361036d565b6105df5760405162461bcd60e51b815260206004820152603860248201527f4552433732313a20617070726f76652063616c6c6572206973206e6f74206f7760448201527f6e6572206e6f7220617070726f76656420666f7220616c6c000000000000000060648201526084016104b3565b6105e98383610b29565b505050565b6105f9335b82610b97565b6106155760405162461bcd60e51b81526004016104b390611e37565b6105e9838383610c8e565b600082815260c9602052604090206001015461063c8133610e2e565b6105e98383610e92565b6001600160a01b03811633146106b65760405162461bcd60e51b815260206004820152602f60248201527f416363657373436f6e74726f6c3a2063616e206f6e6c792072656e6f756e636560448201526e103937b632b9903337b91039b2b63360891b60648201526084016104b3565b6106c08282610f18565b5050565b7f9f2df0fed2c77648de5860a4cc508cd0818c85b8b8a1ab4ceeef8d981c8956a66106ef8133610e2e565b60006106fa60fb5490565b905061070a60fb80546001019055565b6105e98382610f7f565b6105e9838383604051806020016040528060008152506109be565b610738336105f3565b61079d5760405162461bcd60e51b815260206004820152603060248201527f4552433732314275726e61626c653a2063616c6c6572206973206e6f74206f7760448201526f1b995c881b9bdc88185c1c1c9bdd995960821b60648201526084016104b3565b6107a681610f99565b50565b600054610100900460ff16806107c2575060005460ff16155b6107de5760405162461bcd60e51b81526004016104b390611de9565b600054610100900460ff16158015610800576000805461ffff19166101011790555b61080a8383611034565b6108126110a5565b61081a6110a5565b610825600033610e92565b61084f7f9f2df0fed2c77648de5860a4cc508cd0818c85b8b8a1ab4ceeef8d981c8956a633610e92565b80156105e9576000805461ff0019169055505050565b6000818152606760205260408120546001600160a01b0316806103a65760405162461bcd60e51b815260206004820152602960248201527f4552433732313a206f776e657220717565727920666f72206e6f6e657869737460448201526832b73a103a37b5b2b760b91b60648201526084016104b3565b60006001600160a01b0382166109475760405162461bcd60e51b815260206004820152602a60248201527f4552433732313a2062616c616e636520717565727920666f7220746865207a65604482015269726f206164647265737360b01b60648201526084016104b3565b506001600160a01b031660009081526068602052604090205490565b600091825260c9602090815260408084206001600160a01b0393909316845291905290205460ff1690565b6060606680546103bb90611f2d565b6106c0338383611128565b60006109b48133610e2e565b6105e98284610e92565b6109c83383610b97565b6109e45760405162461bcd60e51b81526004016104b390611e37565b6109f0848484846111f7565b50505050565b6000818152606760205260409020546060906001600160a01b0316610a755760405162461bcd60e51b815260206004820152602f60248201527f4552433732314d657461646174613a2055524920717565727920666f72206e6f60448201526e3732bc34b9ba32b73a103a37b5b2b760891b60648201526084016104b3565b6000610a8c60408051602081019091526000815290565b90506000815111610aac5760405180602001604052806000815250610ad7565b80610ab68461122a565b604051602001610ac7929190611ca3565b6040516020818303038152906040525b9392505050565b600082815260c96020526040902060010154610afa8133610e2e565b6105e98383610f18565b60006001600160e01b03198216637965db0b60e01b14806103a657506103a682611344565b600081815260696020526040902080546001600160a01b0319166001600160a01b0384169081179091558190610b5e82610865565b6001600160a01b03167f8c5be1e5ebec7d5bd14f71427d1e84f3dd0314c0f7b2291e5b200ac8c7c3b92560405160405180910390a45050565b6000818152606760205260408120546001600160a01b0316610c105760405162461bcd60e51b815260206004820152602c60248201527f4552433732313a206f70657261746f7220717565727920666f72206e6f6e657860448201526b34b9ba32b73a103a37b5b2b760a11b60648201526084016104b3565b6000610c1b83610865565b9050806001600160a01b0316846001600160a01b03161480610c565750836001600160a01b0316610c4b8461043e565b6001600160a01b0316145b80610c8657506001600160a01b038082166000908152606a602090815260408083209388168352929052205460ff165b949350505050565b826001600160a01b0316610ca182610865565b6001600160a01b031614610d095760405162461bcd60e51b815260206004820152602960248201527f4552433732313a207472616e73666572206f6620746f6b656e2074686174206960448201526839903737ba1037bbb760b91b60648201526084016104b3565b6001600160a01b038216610d6b5760405162461bcd60e51b8152602060048201526024808201527f4552433732313a207472616e7366657220746f20746865207a65726f206164646044820152637265737360e01b60648201526084016104b3565b610d76600082610b29565b6001600160a01b0383166000908152606860205260408120805460019290610d9f908490611ed3565b90915550506001600160a01b0382166000908152606860205260408120805460019290610dcd908490611e88565b909155505060008181526067602052604080822080546001600160a01b0319166001600160a01b0386811691821790925591518493918716917fddf252ad1be2c89b69c2b068fc378daa952ba7f163c4a11628f55a4df523b3ef91a4505050565b610e388282610963565b6106c057610e50816001600160a01b03166014611394565b610e5b836020611394565b604051602001610e6c929190611cd2565b60408051601f198184030181529082905262461bcd60e51b82526104b391600401611d84565b610e9c8282610963565b6106c057600082815260c9602090815260408083206001600160a01b03851684529091529020805460ff19166001179055610ed43390565b6001600160a01b0316816001600160a01b0316837f2f8788117e7eff1d82e926ec794901d17c78024a50270940304540a733656f0d60405160405180910390a45050565b610f228282610963565b156106c057600082815260c9602090815260408083206001600160a01b0385168085529252808320805460ff1916905551339285917ff6391f5c32d9c69d2a47ea670b442974b53935d1edc7fd64eb21e047a839171b9190a45050565b6106c0828260405180602001604052806000815250611576565b6000610fa482610865565b9050610fb1600083610b29565b6001600160a01b0381166000908152606860205260408120805460019290610fda908490611ed3565b909155505060008281526067602052604080822080546001600160a01b0319169055518391906001600160a01b038416907fddf252ad1be2c89b69c2b068fc378daa952ba7f163c4a11628f55a4df523b3ef908390a45050565b600054610100900460ff168061104d575060005460ff16155b6110695760405162461bcd60e51b81526004016104b390611de9565b600054610100900460ff1615801561108b576000805461ffff19166101011790555b6110936115a9565b61109b6115a9565b61084f8383611613565b600054610100900460ff16806110be575060005460ff16155b6110da5760405162461bcd60e51b81526004016104b390611de9565b600054610100900460ff161580156110fc576000805461ffff19166101011790555b6111046115a9565b61110c6115a9565b6111146115a9565b80156107a6576000805461ff001916905550565b816001600160a01b0316836001600160a01b0316141561118a5760405162461bcd60e51b815260206004820152601960248201527f4552433732313a20617070726f766520746f2063616c6c65720000000000000060448201526064016104b3565b6001600160a01b038381166000818152606a6020908152604080832094871680845294825291829020805460ff191686151590811790915591519182527f17307eab39ab6107e8899845ad3d59bd9653f200f220920489ca2b5937696c31910160405180910390a3505050565b611202848484610c8e565b61120e848484846116a8565b6109f05760405162461bcd60e51b81526004016104b390611d97565b60608161124e5750506040805180820190915260018152600360fc1b602082015290565b8160005b8115611278578061126281611f68565b91506112719050600a83611ea0565b9150611252565b60008167ffffffffffffffff8111156112a157634e487b7160e01b600052604160045260246000fd5b6040519080825280601f01601f1916602001820160405280156112cb576020820181803683370190505b5090505b8415610c86576112e0600183611ed3565b91506112ed600a86611f83565b6112f8906030611e88565b60f81b81838151811061131b57634e487b7160e01b600052603260045260246000fd5b60200101906001600160f81b031916908160001a90535061133d600a86611ea0565b94506112cf565b60006001600160e01b031982166380ac58cd60e01b148061137557506001600160e01b03198216635b5e139f60e01b145b806103a657506301ffc9a760e01b6001600160e01b03198316146103a6565b606060006113a3836002611eb4565b6113ae906002611e88565b67ffffffffffffffff8111156113d457634e487b7160e01b600052604160045260246000fd5b6040519080825280601f01601f1916602001820160405280156113fe576020820181803683370190505b509050600360fc1b8160008151811061142757634e487b7160e01b600052603260045260246000fd5b60200101906001600160f81b031916908160001a905350600f60fb1b8160018151811061146457634e487b7160e01b600052603260045260246000fd5b60200101906001600160f81b031916908160001a9053506000611488846002611eb4565b611493906001611e88565b90505b6001811115611527576f181899199a1a9b1b9c1cb0b131b232b360811b85600f16601081106114d557634e487b7160e01b600052603260045260246000fd5b1a60f81b8282815181106114f957634e487b7160e01b600052603260045260246000fd5b60200101906001600160f81b031916908160001a90535060049490941c9361152081611f16565b9050611496565b508315610ad75760405162461bcd60e51b815260206004820181905260248201527f537472696e67733a20686578206c656e67746820696e73756666696369656e7460448201526064016104b3565b61158083836117b5565b61158d60008484846116a8565b6105e95760405162461bcd60e51b81526004016104b390611d97565b600054610100900460ff16806115c2575060005460ff16155b6115de5760405162461bcd60e51b81526004016104b390611de9565b600054610100900460ff16158015611114576000805461ffff191661010117905580156107a6576000805461ff001916905550565b600054610100900460ff168061162c575060005460ff16155b6116485760405162461bcd60e51b81526004016104b390611de9565b600054610100900460ff1615801561166a576000805461ffff19166101011790555b825161167d9060659060208601906118f7565b5081516116919060669060208501906118f7565b5080156105e9576000805461ff0019169055505050565b60006001600160a01b0384163b156117aa57604051630a85bd0160e11b81526001600160a01b0385169063150b7a02906116ec903390899088908890600401611d47565b602060405180830381600087803b15801561170657600080fd5b505af1925050508015611736575060408051601f3d908101601f1916820190925261173391810190611bfa565b60015b611790573d808015611764576040519150601f19603f3d011682016040523d82523d6000602084013e611769565b606091505b5080516117885760405162461bcd60e51b81526004016104b390611d97565b805181602001fd5b6001600160e01b031916630a85bd0160e11b149050610c86565b506001949350505050565b6001600160a01b03821661180b5760405162461bcd60e51b815260206004820181905260248201527f4552433732313a206d696e7420746f20746865207a65726f206164647265737360448201526064016104b3565b6000818152606760205260409020546001600160a01b0316156118705760405162461bcd60e51b815260206004820152601c60248201527f4552433732313a20746f6b656e20616c7265616479206d696e7465640000000060448201526064016104b3565b6001600160a01b0382166000908152606860205260408120805460019290611899908490611e88565b909155505060008181526067602052604080822080546001600160a01b0319166001600160a01b03861690811790915590518392907fddf252ad1be2c89b69c2b068fc378daa952ba7f163c4a11628f55a4df523b3ef908290a45050565b82805461190390611f2d565b90600052602060002090601f016020900481019282611925576000855561196b565b82601f1061193e57805160ff191683800117855561196b565b8280016001018555821561196b579182015b8281111561196b578251825591602001919060010190611950565b5061197792915061197b565b5090565b5b80821115611977576000815560010161197c565b600067ffffffffffffffff808411156119ab576119ab611fc3565b604051601f8501601f19908116603f011681019082821181831017156119d3576119d3611fc3565b816040528093508581528686860111156119ec57600080fd5b858560208301376000602087830101525050509392505050565b80356001600160a01b0381168114611a1d57600080fd5b919050565b600082601f830112611a32578081fd5b610ad783833560208501611990565b600060208284031215611a52578081fd5b610ad782611a06565b60008060408385031215611a6d578081fd5b611a7683611a06565b9150611a8460208401611a06565b90509250929050565b600080600060608486031215611aa1578081fd5b611aaa84611a06565b9250611ab860208501611a06565b9150604084013590509250925092565b60008060008060808587031215611add578081fd5b611ae685611a06565b9350611af460208601611a06565b925060408501359150606085013567ffffffffffffffff811115611b16578182fd5b8501601f81018713611b26578182fd5b611b3587823560208401611990565b91505092959194509250565b60008060408385031215611b53578182fd5b611b5c83611a06565b915060208301358015158114611b70578182fd5b809150509250929050565b60008060408385031215611b8d578182fd5b611b9683611a06565b946020939093013593505050565b600060208284031215611bb5578081fd5b5035919050565b60008060408385031215611bce578182fd5b82359150611a8460208401611a06565b600060208284031215611bef578081fd5b8135610ad781611fd9565b600060208284031215611c0b578081fd5b8151610ad781611fd9565b60008060408385031215611c28578182fd5b823567ffffffffffffffff80821115611c3f578384fd5b611c4b86838701611a22565b93506020850135915080821115611c60578283fd5b50611c6d85828601611a22565b9150509250929050565b60008151808452611c8f816020860160208601611eea565b601f01601f19169290920160200192915050565b60008351611cb5818460208801611eea565b835190830190611cc9818360208801611eea565b01949350505050565b7f416363657373436f6e74726f6c3a206163636f756e7420000000000000000000815260008351611d0a816017850160208801611eea565b7001034b99036b4b9b9b4b733903937b6329607d1b6017918401918201528351611d3b816028840160208801611eea565b01602801949350505050565b6001600160a01b0385811682528416602082015260408101839052608060608201819052600090611d7a90830184611c77565b9695505050505050565b602081526000610ad76020830184611c77565b60208082526032908201527f4552433732313a207472616e7366657220746f206e6f6e20455243373231526560408201527131b2b4bb32b91034b6b83632b6b2b73a32b960711b606082015260800190565b6020808252602e908201527f496e697469616c697a61626c653a20636f6e747261637420697320616c72656160408201526d191e481a5b9a5d1a585b1a5e995960921b606082015260800190565b60208082526031908201527f4552433732313a207472616e736665722063616c6c6572206973206e6f74206f6040820152701ddb995c881b9bdc88185c1c1c9bdd9959607a1b606082015260800190565b60008219821115611e9b57611e9b611f97565b500190565b600082611eaf57611eaf611fad565b500490565b6000816000190483118215151615611ece57611ece611f97565b500290565b600082821015611ee557611ee5611f97565b500390565b60005b83811015611f05578181015183820152602001611eed565b838111156109f05750506000910152565b600081611f2557611f25611f97565b506000190190565b600181811c90821680611f4157607f821691505b60208210811415611f6257634e487b7160e01b600052602260045260246000fd5b50919050565b6000600019821415611f7c57611f7c611f97565b5060010190565b600082611f9257611f92611fad565b500690565b634e487b7160e01b600052601160045260246000fd5b634e487b7160e01b600052601260045260246000fd5b634e487b7160e01b600052604160045260246000fd5b6001600160e01b0319811681146107a657600080fdfea2646970667358221220d007f2a26634348887cca223569b330ac3ca2d96cc2192fb5f9027f58e491bc064736f6c63430008040033",
  "linkReferences": {},
  "deployedLinkReferences": {}
}