{
  "_format": "hh-sol-artifact-1",
  "contractName": "HenHouseIco",
  "sourceName": "contracts/HenHouseIco.sol",
  "abi": [
    {
      "anonymous": false,
      "inputs": [
        {
          "indexed": true,
          "internalType": "address",
          "name": "account",
          "type": "address"
        }
      ],
      "name": "AddedToWhitelist",
      "type": "event"
    },
    {
      "anonymous": false,
      "inputs": [
        {
          "indexed": true,
          "internalType": "address",
          "name": "previousOwner",
          "type": "address"
        },
        {
          "indexed": true,
          "internalType": "address",
          "name": "newOwner",
          "type": "address"
        }
      ],
      "name": "OwnershipTransferred",
      "type": "event"
    },
    {
      "anonymous": false,
      "inputs": [
        {
          "indexed": true,
          "internalType": "address",
          "name": "account",
          "type": "address"
        }
      ],
      "name": "RemovedFromWhitelist",
      "type": "event"
    },
    {
      "inputs": [
        {
          "internalType": "address",
          "name": "_address",
          "type": "address"
        }
      ],
      "name": "addWhitelistAddress",
      "outputs": [],
      "stateMutability": "nonpayable",
      "type": "function"
    },
    {
      "inputs": [
        {
          "internalType": "address[]",
          "name": "addresses",
          "type": "address[]"
        }
      ],
      "name": "addWhitelistAddresses",
      "outputs": [],
      "stateMutability": "nonpayable",
      "type": "function"
    },
    {
      "inputs": [
        {
          "internalType": "address",
          "name": "beneficiary",
          "type": "address"
        }
      ],
      "name": "buyTokens",
      "outputs": [],
      "stateMutability": "payable",
      "type": "function"
    },
    {
      "inputs": [],
      "name": "getHenToken",
      "outputs": [
        {
          "internalType": "contract HenHouse",
          "name": "",
          "type": "address"
        }
      ],
      "stateMutability": "view",
      "type": "function"
    },
    {
      "inputs": [],
      "name": "initialize",
      "outputs": [],
      "stateMutability": "nonpayable",
      "type": "function"
    },
    {
      "inputs": [
        {
          "internalType": "address",
          "name": "_address",
          "type": "address"
        }
      ],
      "name": "isWhitelisted",
      "outputs": [
        {
          "internalType": "bool",
          "name": "",
          "type": "bool"
        }
      ],
      "stateMutability": "view",
      "type": "function"
    },
    {
      "inputs": [],
      "name": "owner",
      "outputs": [
        {
          "internalType": "address",
          "name": "",
          "type": "address"
        }
      ],
      "stateMutability": "view",
      "type": "function"
    },
    {
      "inputs": [
        {
          "internalType": "address",
          "name": "_address",
          "type": "address"
        }
      ],
      "name": "removeFromWhitelist",
      "outputs": [],
      "stateMutability": "nonpayable",
      "type": "function"
    },
    {
      "inputs": [
        {
          "internalType": "address[]",
          "name": "addresses",
          "type": "address[]"
        }
      ],
      "name": "removeWhitelistAddresses",
      "outputs": [],
      "stateMutability": "nonpayable",
      "type": "function"
    },
    {
      "inputs": [],
      "name": "renounceOwnership",
      "outputs": [],
      "stateMutability": "nonpayable",
      "type": "function"
    },
    {
      "inputs": [
        {
          "internalType": "contract HenHouse",
          "name": "henHouse",
          "type": "address"
        }
      ],
      "name": "setHenToken",
      "outputs": [],
      "stateMutability": "nonpayable",
      "type": "function"
    },
    {
      "inputs": [
        {
          "internalType": "address",
          "name": "newOwner",
          "type": "address"
        }
      ],
      "name": "transferOwnership",
      "outputs": [],
      "stateMutability": "nonpayable",
      "type": "function"
    },
    {
      "stateMutability": "payable",
      "type": "receive"
    }
  ],
  "bytecode": "0x608060405234801561001057600080fd5b50610b26806100206000396000f3fe6080604052600436106100ab5760003560e01c806394a7ef151161006457806394a7ef15146101aa578063a1d515c3146101ca578063ab02811f146101ea578063b83921a614610208578063ec8ac4d814610228578063f2fde38b1461023b57600080fd5b80630e256a5e146100c05780633af32abf146100e0578063715018a61461012e5780638129fc1c146101435780638ab1d681146101585780638da5cb5b1461017857600080fd5b366100bb576100b93361025b565b005b600080fd5b3480156100cc57600080fd5b506100b96100db366004610954565b6103bf565b3480156100ec57600080fd5b506101196100fb366004610931565b6001600160a01b031660009081526098602052604090205460ff1690565b60405190151581526020015b60405180910390f35b34801561013a57600080fd5b506100b961043b565b34801561014f57600080fd5b506100b9610471565b34801561016457600080fd5b506100b9610173366004610931565b6104ed565b34801561018457600080fd5b506033546001600160a01b03165b6040516001600160a01b039091168152602001610125565b3480156101b657600080fd5b506100b96101c5366004610931565b610560565b3480156101d657600080fd5b506100b96101e5366004610931565b6105d6565b3480156101f657600080fd5b506097546001600160a01b0316610192565b34801561021457600080fd5b506100b9610223366004610954565b610622565b6100b9610236366004610931565b61025b565b34801561024757600080fd5b506100b9610256366004610931565b61069a565b3360009081526098602052604090205460ff166102da5760405162461bcd60e51b815260206004820152603260248201527f57686974656c6973743a2062656e65666963696172792069736e74277420696e604482015271081d1a19481d1a19481dda1a5d195b1a5cdd60721b60648201526084015b60405180910390fd5b6002606554141561032d5760405162461bcd60e51b815260206004820152601f60248201527f5265656e7472616e637947756172643a207265656e7472616e742063616c6c0060448201526064016102d1565b6002606555346001600160a01b03821661034657600080fd5b8061035057600080fd5b6097546040516340c10f1960e01b81526001600160a01b03848116600483015260248201849052909116906340c10f1990604401600060405180830381600087803b15801561039e57600080fd5b505af11580156103b2573d6000803e3d6000fd5b5050600160655550505050565b6033546001600160a01b031633146103e95760405162461bcd60e51b81526004016102d190610a69565b60005b81518110156104375761042582828151811061041857634e487b7160e01b600052603260045260246000fd5b6020026020010151610560565b8061042f81610a9e565b9150506103ec565b5050565b6033546001600160a01b031633146104655760405162461bcd60e51b81526004016102d190610a69565b61046f600061072e565b565b600054610100900460ff168061048a575060005460ff16155b6104a65760405162461bcd60e51b81526004016102d190610a1b565b600054610100900460ff161580156104c8576000805461ffff19166101011790555b6104d0610780565b6104d86107e7565b80156104ea576000805461ff00191690555b50565b6033546001600160a01b031633146105175760405162461bcd60e51b81526004016102d190610a69565b6001600160a01b038116600081815260986020526040808220805460ff19169055517fcdd2e9b91a56913d370075169cefa1602ba36be5301664f752192bb1709df7579190a250565b6033546001600160a01b0316331461058a5760405162461bcd60e51b81526004016102d190610a69565b6001600160a01b038116600081815260986020526040808220805460ff19166001179055517fa850ae9193f515cbae8d35e8925bd2be26627fc91bce650b8652ed254e9cab039190a250565b6033546001600160a01b031633146106005760405162461bcd60e51b81526004016102d190610a69565b609780546001600160a01b0319166001600160a01b0392909216919091179055565b6033546001600160a01b0316331461064c5760405162461bcd60e51b81526004016102d190610a69565b60005b81518110156104375761068882828151811061067b57634e487b7160e01b600052603260045260246000fd5b60200260200101516104ed565b8061069281610a9e565b91505061064f565b6033546001600160a01b031633146106c45760405162461bcd60e51b81526004016102d190610a69565b6001600160a01b0381166107295760405162461bcd60e51b815260206004820152602660248201527f4f776e61626c653a206e6577206f776e657220697320746865207a65726f206160448201526564647265737360d01b60648201526084016102d1565b6104ea815b603380546001600160a01b038381166001600160a01b0319831681179093556040519116919082907f8be0079c531659141344cd1fd0a4f28419497f9722a3daafe3b4186f6b6457e090600090a35050565b600054610100900460ff1680610799575060005460ff16155b6107b55760405162461bcd60e51b81526004016102d190610a1b565b600054610100900460ff161580156107d7576000805461ffff19166101011790555b6107df610857565b6104d86108c1565b600054610100900460ff1680610800575060005460ff16155b61081c5760405162461bcd60e51b81526004016102d190610a1b565b600054610100900460ff1615801561083e576000805461ffff19166101011790555b600160655580156104ea576000805461ff001916905550565b600054610100900460ff1680610870575060005460ff16155b61088c5760405162461bcd60e51b81526004016102d190610a1b565b600054610100900460ff161580156104d8576000805461ffff191661010117905580156104ea576000805461ff001916905550565b600054610100900460ff16806108da575060005460ff16155b6108f65760405162461bcd60e51b81526004016102d190610a1b565b600054610100900460ff16158015610918576000805461ffff19166101011790555b6104d83361072e565b803561092c81610adb565b919050565b600060208284031215610942578081fd5b813561094d81610adb565b9392505050565b60006020808385031215610966578182fd5b823567ffffffffffffffff8082111561097d578384fd5b818501915085601f830112610990578384fd5b8135818111156109a2576109a2610ac5565b8060051b604051601f19603f830116810181811085821117156109c7576109c7610ac5565b604052828152858101935084860182860187018a10156109e5578788fd5b8795505b83861015610a0e576109fa81610921565b8552600195909501949386019386016109e9565b5098975050505050505050565b6020808252602e908201527f496e697469616c697a61626c653a20636f6e747261637420697320616c72656160408201526d191e481a5b9a5d1a585b1a5e995960921b606082015260800190565b6020808252818101527f4f776e61626c653a2063616c6c6572206973206e6f7420746865206f776e6572604082015260600190565b6000600019821415610abe57634e487b7160e01b81526011600452602481fd5b5060010190565b634e487b7160e01b600052604160045260246000fd5b6001600160a01b03811681146104ea57600080fdfea26469706673582212208ff216b511b460a1184a115904dbecc3e861997f4c57eeae3302ec55023e326f64736f6c63430008040033",
  "linkReferences": {},
  "deployedLinkReferences": {}
}