{
  "_format": "hh-sol-artifact-1",
  "contractName": "HenHouseIco",
  "sourceName": "contracts/HenHouseIco.sol",
  "abi": [
    {
      "anonymous": false,
      "inputs": [
        {
          "indexed": true,
          "internalType": "address",
          "name": "account",
          "type": "address"
        }
      ],
      "name": "AddedToWhitelist",
      "type": "event"
    },
    {
      "anonymous": false,
      "inputs": [
        {
          "indexed": true,
          "internalType": "address",
          "name": "previousOwner",
          "type": "address"
        },
        {
          "indexed": true,
          "internalType": "address",
          "name": "newOwner",
          "type": "address"
        }
      ],
      "name": "OwnershipTransferred",
      "type": "event"
    },
    {
      "anonymous": false,
      "inputs": [
        {
          "indexed": true,
          "internalType": "address",
          "name": "account",
          "type": "address"
        }
      ],
      "name": "RemovedFromWhitelist",
      "type": "event"
    },
    {
      "inputs": [
        {
          "internalType": "address",
          "name": "_address",
          "type": "address"
        }
      ],
      "name": "addWhitelistAddress",
      "outputs": [],
      "stateMutability": "nonpayable",
      "type": "function"
    },
    {
      "inputs": [
        {
          "internalType": "address[]",
          "name": "addresses",
          "type": "address[]"
        }
      ],
      "name": "addWhitelistAddresses",
      "outputs": [],
      "stateMutability": "nonpayable",
      "type": "function"
    },
    {
      "inputs": [
        {
          "internalType": "address",
          "name": "beneficiary",
          "type": "address"
        }
      ],
      "name": "buyTokens",
      "outputs": [],
      "stateMutability": "payable",
      "type": "function"
    },
    {
      "inputs": [],
      "name": "getHenToken",
      "outputs": [
        {
          "internalType": "contract HenHouse",
          "name": "",
          "type": "address"
        }
      ],
      "stateMutability": "view",
      "type": "function"
    },
    {
      "inputs": [],
      "name": "initialize",
      "outputs": [],
      "stateMutability": "nonpayable",
      "type": "function"
    },
    {
      "inputs": [
        {
          "internalType": "address",
          "name": "_address",
          "type": "address"
        }
      ],
      "name": "isWhitelisted",
      "outputs": [
        {
          "internalType": "bool",
          "name": "",
          "type": "bool"
        }
      ],
      "stateMutability": "view",
      "type": "function"
    },
    {
      "inputs": [],
      "name": "owner",
      "outputs": [
        {
          "internalType": "address",
          "name": "",
          "type": "address"
        }
      ],
      "stateMutability": "view",
      "type": "function"
    },
    {
      "inputs": [
        {
          "internalType": "address",
          "name": "_address",
          "type": "address"
        }
      ],
      "name": "removeFromWhitelist",
      "outputs": [],
      "stateMutability": "nonpayable",
      "type": "function"
    },
    {
      "inputs": [
        {
          "internalType": "address[]",
          "name": "addresses",
          "type": "address[]"
        }
      ],
      "name": "removeWhitelistAddresses",
      "outputs": [],
      "stateMutability": "nonpayable",
      "type": "function"
    },
    {
      "inputs": [],
      "name": "renounceOwnership",
      "outputs": [],
      "stateMutability": "nonpayable",
      "type": "function"
    },
    {
      "inputs": [
        {
          "internalType": "contract HenHouse",
          "name": "henHouse",
          "type": "address"
        }
      ],
      "name": "setHenToken",
      "outputs": [],
      "stateMutability": "nonpayable",
      "type": "function"
    },
    {
      "inputs": [
        {
          "internalType": "address",
          "name": "newOwner",
          "type": "address"
        }
      ],
      "name": "transferOwnership",
      "outputs": [],
      "stateMutability": "nonpayable",
      "type": "function"
    },
    {
      "stateMutability": "payable",
      "type": "receive"
    }
  ],
  "bytecode": "0x608060405234801561001057600080fd5b50610ae4806100206000396000f3fe6080604052600436106100ab5760003560e01c806394a7ef151161006457806394a7ef15146101aa578063a1d515c3146101ca578063ab02811f146101ea578063b83921a614610208578063ec8ac4d814610228578063f2fde38b1461023b57600080fd5b80630e256a5e146100c05780633af32abf146100e0578063715018a61461012e5780638129fc1c146101435780638ab1d681146101585780638da5cb5b1461017857600080fd5b366100bb576100b93361025b565b005b600080fd5b3480156100cc57600080fd5b506100b96100db3660046108e9565b610354565b3480156100ec57600080fd5b506101196100fb3660046108c6565b6001600160a01b031660009081526098602052604090205460ff1690565b60405190151581526020015b60405180910390f35b34801561013a57600080fd5b506100b96103d0565b34801561014f57600080fd5b506100b9610406565b34801561016457600080fd5b506100b96101733660046108c6565b610482565b34801561018457600080fd5b506033546001600160a01b03165b6040516001600160a01b039091168152602001610125565b3480156101b657600080fd5b506100b96101c53660046108c6565b6104f5565b3480156101d657600080fd5b506100b96101e53660046108c6565b61056b565b3480156101f657600080fd5b506097546001600160a01b0316610192565b34801561021457600080fd5b506100b96102233660046108e9565b6105b7565b6100b96102363660046108c6565b61025b565b34801561024757600080fd5b506100b96102563660046108c6565b61062f565b600260655414156102b35760405162461bcd60e51b815260206004820152601f60248201527f5265656e7472616e637947756172643a207265656e7472616e742063616c6c0060448201526064015b60405180910390fd5b600260655560006102c634610258610a33565b90506001600160a01b0382166102db57600080fd5b806102e557600080fd5b6097546040516340c10f1960e01b81526001600160a01b03848116600483015260248201849052909116906340c10f1990604401600060405180830381600087803b15801561033357600080fd5b505af1158015610347573d6000803e3d6000fd5b5050600160655550505050565b6033546001600160a01b0316331461037e5760405162461bcd60e51b81526004016102aa906109fe565b60005b81518110156103cc576103ba8282815181106103ad57634e487b7160e01b600052603260045260246000fd5b60200260200101516104f5565b806103c481610a52565b915050610381565b5050565b6033546001600160a01b031633146103fa5760405162461bcd60e51b81526004016102aa906109fe565b61040460006106c3565b565b600054610100900460ff168061041f575060005460ff16155b61043b5760405162461bcd60e51b81526004016102aa906109b0565b600054610100900460ff1615801561045d576000805461ffff19166101011790555b610465610715565b61046d61077c565b801561047f576000805461ff00191690555b50565b6033546001600160a01b031633146104ac5760405162461bcd60e51b81526004016102aa906109fe565b6001600160a01b038116600081815260986020526040808220805460ff19169055517fcdd2e9b91a56913d370075169cefa1602ba36be5301664f752192bb1709df7579190a250565b6033546001600160a01b0316331461051f5760405162461bcd60e51b81526004016102aa906109fe565b6001600160a01b038116600081815260986020526040808220805460ff19166001179055517fa850ae9193f515cbae8d35e8925bd2be26627fc91bce650b8652ed254e9cab039190a250565b6033546001600160a01b031633146105955760405162461bcd60e51b81526004016102aa906109fe565b609780546001600160a01b0319166001600160a01b0392909216919091179055565b6033546001600160a01b031633146105e15760405162461bcd60e51b81526004016102aa906109fe565b60005b81518110156103cc5761061d82828151811061061057634e487b7160e01b600052603260045260246000fd5b6020026020010151610482565b8061062781610a52565b9150506105e4565b6033546001600160a01b031633146106595760405162461bcd60e51b81526004016102aa906109fe565b6001600160a01b0381166106be5760405162461bcd60e51b815260206004820152602660248201527f4f776e61626c653a206e6577206f776e657220697320746865207a65726f206160448201526564647265737360d01b60648201526084016102aa565b61047f815b603380546001600160a01b038381166001600160a01b0319831681179093556040519116919082907f8be0079c531659141344cd1fd0a4f28419497f9722a3daafe3b4186f6b6457e090600090a35050565b600054610100900460ff168061072e575060005460ff16155b61074a5760405162461bcd60e51b81526004016102aa906109b0565b600054610100900460ff1615801561076c576000805461ffff19166101011790555b6107746107ec565b61046d610856565b600054610100900460ff1680610795575060005460ff16155b6107b15760405162461bcd60e51b81526004016102aa906109b0565b600054610100900460ff161580156107d3576000805461ffff19166101011790555b6001606555801561047f576000805461ff001916905550565b600054610100900460ff1680610805575060005460ff16155b6108215760405162461bcd60e51b81526004016102aa906109b0565b600054610100900460ff1615801561046d576000805461ffff1916610101179055801561047f576000805461ff001916905550565b600054610100900460ff168061086f575060005460ff16155b61088b5760405162461bcd60e51b81526004016102aa906109b0565b600054610100900460ff161580156108ad576000805461ffff19166101011790555b61046d336106c3565b80356108c181610a99565b919050565b6000602082840312156108d7578081fd5b81356108e281610a99565b9392505050565b600060208083850312156108fb578182fd5b823567ffffffffffffffff80821115610912578384fd5b818501915085601f830112610925578384fd5b81358181111561093757610937610a83565b8060051b604051601f19603f8301168101818110858211171561095c5761095c610a83565b604052828152858101935084860182860187018a101561097a578788fd5b8795505b838610156109a35761098f816108b6565b85526001959095019493860193860161097e565b5098975050505050505050565b6020808252602e908201527f496e697469616c697a61626c653a20636f6e747261637420697320616c72656160408201526d191e481a5b9a5d1a585b1a5e995960921b606082015260800190565b6020808252818101527f4f776e61626c653a2063616c6c6572206973206e6f7420746865206f776e6572604082015260600190565b6000816000190483118215151615610a4d57610a4d610a6d565b500290565b6000600019821415610a6657610a66610a6d565b5060010190565b634e487b7160e01b600052601160045260246000fd5b634e487b7160e01b600052604160045260246000fd5b6001600160a01b038116811461047f57600080fdfea2646970667358221220fa0473ffc29574a06ed79cb3c095302c2f07f459f6fdd81f8ada4a069b75e5e764736f6c63430008040033",
  "linkReferences": {},
  "deployedLinkReferences": {}
}