{
  "_format": "hh-sol-artifact-1",
  "contractName": "Egg",
  "sourceName": "contracts/Egg.sol",
  "abi": [
    {
      "anonymous": false,
      "inputs": [
        {
          "indexed": true,
          "internalType": "address",
          "name": "owner",
          "type": "address"
        },
        {
          "indexed": true,
          "internalType": "address",
          "name": "spender",
          "type": "address"
        },
        {
          "indexed": false,
          "internalType": "uint256",
          "name": "value",
          "type": "uint256"
        }
      ],
      "name": "Approval",
      "type": "event"
    },
    {
      "anonymous": false,
      "inputs": [
        {
          "indexed": true,
          "internalType": "bytes32",
          "name": "role",
          "type": "bytes32"
        },
        {
          "indexed": true,
          "internalType": "bytes32",
          "name": "previousAdminRole",
          "type": "bytes32"
        },
        {
          "indexed": true,
          "internalType": "bytes32",
          "name": "newAdminRole",
          "type": "bytes32"
        }
      ],
      "name": "RoleAdminChanged",
      "type": "event"
    },
    {
      "anonymous": false,
      "inputs": [
        {
          "indexed": true,
          "internalType": "bytes32",
          "name": "role",
          "type": "bytes32"
        },
        {
          "indexed": true,
          "internalType": "address",
          "name": "account",
          "type": "address"
        },
        {
          "indexed": true,
          "internalType": "address",
          "name": "sender",
          "type": "address"
        }
      ],
      "name": "RoleGranted",
      "type": "event"
    },
    {
      "anonymous": false,
      "inputs": [
        {
          "indexed": true,
          "internalType": "bytes32",
          "name": "role",
          "type": "bytes32"
        },
        {
          "indexed": true,
          "internalType": "address",
          "name": "account",
          "type": "address"
        },
        {
          "indexed": true,
          "internalType": "address",
          "name": "sender",
          "type": "address"
        }
      ],
      "name": "RoleRevoked",
      "type": "event"
    },
    {
      "anonymous": false,
      "inputs": [
        {
          "indexed": true,
          "internalType": "address",
          "name": "from",
          "type": "address"
        },
        {
          "indexed": true,
          "internalType": "address",
          "name": "to",
          "type": "address"
        },
        {
          "indexed": false,
          "internalType": "uint256",
          "name": "value",
          "type": "uint256"
        }
      ],
      "name": "Transfer",
      "type": "event"
    },
    {
      "inputs": [],
      "name": "DEFAULT_ADMIN_ROLE",
      "outputs": [
        {
          "internalType": "bytes32",
          "name": "",
          "type": "bytes32"
        }
      ],
      "stateMutability": "view",
      "type": "function"
    },
    {
      "inputs": [],
      "name": "MINTER_ROLE",
      "outputs": [
        {
          "internalType": "bytes32",
          "name": "",
          "type": "bytes32"
        }
      ],
      "stateMutability": "view",
      "type": "function"
    },
    {
      "inputs": [
        {
          "internalType": "address",
          "name": "owner",
          "type": "address"
        },
        {
          "internalType": "address",
          "name": "spender",
          "type": "address"
        }
      ],
      "name": "allowance",
      "outputs": [
        {
          "internalType": "uint256",
          "name": "",
          "type": "uint256"
        }
      ],
      "stateMutability": "view",
      "type": "function"
    },
    {
      "inputs": [
        {
          "internalType": "address",
          "name": "spender",
          "type": "address"
        },
        {
          "internalType": "uint256",
          "name": "amount",
          "type": "uint256"
        }
      ],
      "name": "approve",
      "outputs": [
        {
          "internalType": "bool",
          "name": "",
          "type": "bool"
        }
      ],
      "stateMutability": "nonpayable",
      "type": "function"
    },
    {
      "inputs": [
        {
          "internalType": "address",
          "name": "account",
          "type": "address"
        }
      ],
      "name": "balanceOf",
      "outputs": [
        {
          "internalType": "uint256",
          "name": "",
          "type": "uint256"
        }
      ],
      "stateMutability": "view",
      "type": "function"
    },
    {
      "inputs": [
        {
          "internalType": "uint256",
          "name": "amount",
          "type": "uint256"
        }
      ],
      "name": "burn",
      "outputs": [],
      "stateMutability": "nonpayable",
      "type": "function"
    },
    {
      "inputs": [
        {
          "internalType": "address",
          "name": "account",
          "type": "address"
        },
        {
          "internalType": "uint256",
          "name": "amount",
          "type": "uint256"
        }
      ],
      "name": "burnFrom",
      "outputs": [],
      "stateMutability": "nonpayable",
      "type": "function"
    },
    {
      "inputs": [],
      "name": "decimals",
      "outputs": [
        {
          "internalType": "uint8",
          "name": "",
          "type": "uint8"
        }
      ],
      "stateMutability": "view",
      "type": "function"
    },
    {
      "inputs": [
        {
          "internalType": "address",
          "name": "spender",
          "type": "address"
        },
        {
          "internalType": "uint256",
          "name": "subtractedValue",
          "type": "uint256"
        }
      ],
      "name": "decreaseAllowance",
      "outputs": [
        {
          "internalType": "bool",
          "name": "",
          "type": "bool"
        }
      ],
      "stateMutability": "nonpayable",
      "type": "function"
    },
    {
      "inputs": [
        {
          "internalType": "bytes32",
          "name": "role",
          "type": "bytes32"
        }
      ],
      "name": "getRoleAdmin",
      "outputs": [
        {
          "internalType": "bytes32",
          "name": "",
          "type": "bytes32"
        }
      ],
      "stateMutability": "view",
      "type": "function"
    },
    {
      "inputs": [
        {
          "internalType": "bytes32",
          "name": "role",
          "type": "bytes32"
        },
        {
          "internalType": "address",
          "name": "account",
          "type": "address"
        }
      ],
      "name": "grantRole",
      "outputs": [],
      "stateMutability": "nonpayable",
      "type": "function"
    },
    {
      "inputs": [
        {
          "internalType": "address",
          "name": "to",
          "type": "address"
        },
        {
          "internalType": "bytes32",
          "name": "role",
          "type": "bytes32"
        }
      ],
      "name": "grantRole",
      "outputs": [],
      "stateMutability": "nonpayable",
      "type": "function"
    },
    {
      "inputs": [
        {
          "internalType": "bytes32",
          "name": "role",
          "type": "bytes32"
        },
        {
          "internalType": "address",
          "name": "account",
          "type": "address"
        }
      ],
      "name": "hasRole",
      "outputs": [
        {
          "internalType": "bool",
          "name": "",
          "type": "bool"
        }
      ],
      "stateMutability": "view",
      "type": "function"
    },
    {
      "inputs": [
        {
          "internalType": "address",
          "name": "spender",
          "type": "address"
        },
        {
          "internalType": "uint256",
          "name": "addedValue",
          "type": "uint256"
        }
      ],
      "name": "increaseAllowance",
      "outputs": [
        {
          "internalType": "bool",
          "name": "",
          "type": "bool"
        }
      ],
      "stateMutability": "nonpayable",
      "type": "function"
    },
    {
      "inputs": [],
      "name": "initialize",
      "outputs": [],
      "stateMutability": "nonpayable",
      "type": "function"
    },
    {
      "inputs": [
        {
          "internalType": "address",
          "name": "to",
          "type": "address"
        },
        {
          "internalType": "uint256",
          "name": "amount",
          "type": "uint256"
        }
      ],
      "name": "mint",
      "outputs": [],
      "stateMutability": "nonpayable",
      "type": "function"
    },
    {
      "inputs": [],
      "name": "name",
      "outputs": [
        {
          "internalType": "string",
          "name": "",
          "type": "string"
        }
      ],
      "stateMutability": "view",
      "type": "function"
    },
    {
      "inputs": [
        {
          "internalType": "bytes32",
          "name": "role",
          "type": "bytes32"
        },
        {
          "internalType": "address",
          "name": "account",
          "type": "address"
        }
      ],
      "name": "renounceRole",
      "outputs": [],
      "stateMutability": "nonpayable",
      "type": "function"
    },
    {
      "inputs": [
        {
          "internalType": "bytes32",
          "name": "role",
          "type": "bytes32"
        },
        {
          "internalType": "address",
          "name": "account",
          "type": "address"
        }
      ],
      "name": "revokeRole",
      "outputs": [],
      "stateMutability": "nonpayable",
      "type": "function"
    },
    {
      "inputs": [
        {
          "internalType": "address",
          "name": "from",
          "type": "address"
        },
        {
          "internalType": "uint256",
          "name": "value",
          "type": "uint256"
        }
      ],
      "name": "spend",
      "outputs": [
        {
          "internalType": "bool",
          "name": "",
          "type": "bool"
        }
      ],
      "stateMutability": "nonpayable",
      "type": "function"
    },
    {
      "inputs": [
        {
          "internalType": "bytes4",
          "name": "interfaceId",
          "type": "bytes4"
        }
      ],
      "name": "supportsInterface",
      "outputs": [
        {
          "internalType": "bool",
          "name": "",
          "type": "bool"
        }
      ],
      "stateMutability": "view",
      "type": "function"
    },
    {
      "inputs": [],
      "name": "symbol",
      "outputs": [
        {
          "internalType": "string",
          "name": "",
          "type": "string"
        }
      ],
      "stateMutability": "view",
      "type": "function"
    },
    {
      "inputs": [],
      "name": "totalSupply",
      "outputs": [
        {
          "internalType": "uint256",
          "name": "",
          "type": "uint256"
        }
      ],
      "stateMutability": "view",
      "type": "function"
    },
    {
      "inputs": [
        {
          "internalType": "address",
          "name": "recipient",
          "type": "address"
        },
        {
          "internalType": "uint256",
          "name": "amount",
          "type": "uint256"
        }
      ],
      "name": "transfer",
      "outputs": [
        {
          "internalType": "bool",
          "name": "",
          "type": "bool"
        }
      ],
      "stateMutability": "nonpayable",
      "type": "function"
    },
    {
      "inputs": [
        {
          "internalType": "address",
          "name": "sender",
          "type": "address"
        },
        {
          "internalType": "address",
          "name": "recipient",
          "type": "address"
        },
        {
          "internalType": "uint256",
          "name": "amount",
          "type": "uint256"
        }
      ],
      "name": "transferFrom",
      "outputs": [
        {
          "internalType": "bool",
          "name": "",
          "type": "bool"
        }
      ],
      "stateMutability": "nonpayable",
      "type": "function"
    }
  ],
  "bytecode": "0x608060405234801561001057600080fd5b50611772806100206000396000f3fe608060405234801561001057600080fd5b50600436106101735760003560e01c806370a08231116100de578063a457c2d711610097578063af7d6ca311610071578063af7d6ca314610320578063d539139314610333578063d547741f1461035a578063dd62ed3e1461036d57600080fd5b8063a457c2d7146102e7578063a9059cbb146102fa578063ab2742dc1461030d57600080fd5b806370a082311461028057806379cc6790146102a95780638129fc1c146102bc57806391d14854146102c457806395d89b41146102d7578063a217fddf146102df57600080fd5b80632f2ff15d116101305780632f2ff15d14610210578063313ce5671461022557806336568abe14610234578063395093511461024757806340c10f191461025a57806342966c681461026d57600080fd5b806301ffc9a71461017857806306fdde03146101a0578063095ea7b3146101b557806318160ddd146101c857806323b872dd146101da578063248a9ca3146101ed575b600080fd5b61018b61018636600461153c565b6103a6565b60405190151581526020015b60405180910390f35b6101a86103dd565b60405161019791906115d9565b61018b6101c33660046114d9565b61046f565b6035545b604051908152602001610197565b61018b6101e836600461149e565b610485565b6101cc6101fb366004611502565b600090815260c9602052604090206001015490565b61022361021e36600461151a565b610534565b005b60405160128152602001610197565b61022361024236600461151a565b61055f565b61018b6102553660046114d9565b6105dd565b6102236102683660046114d9565b610619565b61022361027b366004611502565b61064e565b6101cc61028e366004611452565b6001600160a01b031660009081526033602052604090205490565b6102236102b73660046114d9565b61065b565b6102236106dc565b61018b6102d236600461151a565b6107d6565b6101a8610801565b6101cc600081565b61018b6102f53660046114d9565b610810565b61018b6103083660046114d9565b6108a9565b61022361031b3660046114d9565b6108b6565b61018b61032e3660046114d9565b6108cc565b6101cc7f9f2df0fed2c77648de5860a4cc508cd0818c85b8b8a1ab4ceeef8d981c8956a681565b61022361036836600461151a565b6108d8565b6101cc61037b36600461146c565b6001600160a01b03918216600090815260346020908152604080832093909416825291909152205490565b60006001600160e01b03198216637965db0b60e01b14806103d757506301ffc9a760e01b6001600160e01b03198316145b92915050565b6060603680546103ec906116eb565b80601f0160208091040260200160405190810160405280929190818152602001828054610418906116eb565b80156104655780601f1061043a57610100808354040283529160200191610465565b820191906000526020600020905b81548152906001019060200180831161044857829003601f168201915b5050505050905090565b600061047c3384846108fe565b50600192915050565b6000610492848484610a22565b6001600160a01b03841660009081526034602090815260408083203384529091529020548281101561051c5760405162461bcd60e51b815260206004820152602860248201527f45524332303a207472616e7366657220616d6f756e74206578636565647320616044820152676c6c6f77616e636560c01b60648201526084015b60405180910390fd5b61052985338584036108fe565b506001949350505050565b600082815260c960205260409020600101546105508133610bf2565b61055a8383610c56565b505050565b6001600160a01b03811633146105cf5760405162461bcd60e51b815260206004820152602f60248201527f416363657373436f6e74726f6c3a2063616e206f6e6c792072656e6f756e636560448201526e103937b632b9903337b91039b2b63360891b6064820152608401610513565b6105d98282610cdc565b5050565b3360008181526034602090815260408083206001600160a01b0387168452909152812054909161047c91859061061490869061165a565b6108fe565b7f9f2df0fed2c77648de5860a4cc508cd0818c85b8b8a1ab4ceeef8d981c8956a66106448133610bf2565b61055a8383610d43565b6106583382610e22565b50565b6000610667833361037b565b9050818110156106c55760405162461bcd60e51b8152602060048201526024808201527f45524332303a206275726e20616d6f756e74206578636565647320616c6c6f77604482015263616e636560e01b6064820152608401610513565b6106d283338484036108fe565b61055a8383610e22565b600054610100900460ff16806106f5575060005460ff16155b6107115760405162461bcd60e51b81526004016105139061160c565b600054610100900460ff16158015610733576000805461ffff19166101011790555b61077d6040518060400160405280600d81526020016c48656e20486f7573652045676760981b8152506040518060400160405280600381526020016245474760e81b815250610f70565b610785610fef565b61078d611056565b610798600033610c56565b6107c27f9f2df0fed2c77648de5860a4cc508cd0818c85b8b8a1ab4ceeef8d981c8956a633610c56565b8015610658576000805461ff001916905550565b600091825260c9602090815260408084206001600160a01b0393909316845291905290205460ff1690565b6060603780546103ec906116eb565b3360009081526034602090815260408083206001600160a01b0386168452909152812054828110156108925760405162461bcd60e51b815260206004820152602560248201527f45524332303a2064656372656173656420616c6c6f77616e63652062656c6f77604482015264207a65726f60d81b6064820152608401610513565b61089f33858584036108fe565b5060019392505050565b600061047c338484610a22565b60006108c28133610bf2565b61055a8284610c56565b600061047c8383610e22565b600082815260c960205260409020600101546108f48133610bf2565b61055a8383610cdc565b6001600160a01b0383166109605760405162461bcd60e51b8152602060048201526024808201527f45524332303a20617070726f76652066726f6d20746865207a65726f206164646044820152637265737360e01b6064820152608401610513565b6001600160a01b0382166109c15760405162461bcd60e51b815260206004820152602260248201527f45524332303a20617070726f766520746f20746865207a65726f206164647265604482015261737360f01b6064820152608401610513565b6001600160a01b0383811660008181526034602090815260408083209487168084529482529182902085905590518481527f8c5be1e5ebec7d5bd14f71427d1e84f3dd0314c0f7b2291e5b200ac8c7c3b925910160405180910390a3505050565b6001600160a01b038316610a865760405162461bcd60e51b815260206004820152602560248201527f45524332303a207472616e736665722066726f6d20746865207a65726f206164604482015264647265737360d81b6064820152608401610513565b6001600160a01b038216610ae85760405162461bcd60e51b815260206004820152602360248201527f45524332303a207472616e7366657220746f20746865207a65726f206164647260448201526265737360e81b6064820152608401610513565b6001600160a01b03831660009081526033602052604090205481811015610b605760405162461bcd60e51b815260206004820152602660248201527f45524332303a207472616e7366657220616d6f756e7420657863656564732062604482015265616c616e636560d01b6064820152608401610513565b6001600160a01b03808516600090815260336020526040808220858503905591851681529081208054849290610b9790849061165a565b92505081905550826001600160a01b0316846001600160a01b03167fddf252ad1be2c89b69c2b068fc378daa952ba7f163c4a11628f55a4df523b3ef84604051610be391815260200190565b60405180910390a35b50505050565b610bfc82826107d6565b6105d957610c14816001600160a01b031660146110b5565b610c1f8360206110b5565b604051602001610c30929190611564565b60408051601f198184030181529082905262461bcd60e51b8252610513916004016115d9565b610c6082826107d6565b6105d957600082815260c9602090815260408083206001600160a01b03851684529091529020805460ff19166001179055610c983390565b6001600160a01b0316816001600160a01b0316837f2f8788117e7eff1d82e926ec794901d17c78024a50270940304540a733656f0d60405160405180910390a45050565b610ce682826107d6565b156105d957600082815260c9602090815260408083206001600160a01b0385168085529252808320805460ff1916905551339285917ff6391f5c32d9c69d2a47ea670b442974b53935d1edc7fd64eb21e047a839171b9190a45050565b6001600160a01b038216610d995760405162461bcd60e51b815260206004820152601f60248201527f45524332303a206d696e7420746f20746865207a65726f2061646472657373006044820152606401610513565b8060356000828254610dab919061165a565b90915550506001600160a01b03821660009081526033602052604081208054839290610dd890849061165a565b90915550506040518181526001600160a01b038316906000907fddf252ad1be2c89b69c2b068fc378daa952ba7f163c4a11628f55a4df523b3ef9060200160405180910390a35050565b6001600160a01b038216610e825760405162461bcd60e51b815260206004820152602160248201527f45524332303a206275726e2066726f6d20746865207a65726f206164647265736044820152607360f81b6064820152608401610513565b6001600160a01b03821660009081526033602052604090205481811015610ef65760405162461bcd60e51b815260206004820152602260248201527f45524332303a206275726e20616d6f756e7420657863656564732062616c616e604482015261636560f01b6064820152608401610513565b6001600160a01b0383166000908152603360205260408120838303905560358054849290610f25908490611691565b90915550506040518281526000906001600160a01b038516907fddf252ad1be2c89b69c2b068fc378daa952ba7f163c4a11628f55a4df523b3ef9060200160405180910390a3505050565b600054610100900460ff1680610f89575060005460ff16155b610fa55760405162461bcd60e51b81526004016105139061160c565b600054610100900460ff16158015610fc7576000805461ffff19166101011790555b610fcf61129e565b610fd98383611308565b801561055a576000805461ff0019169055505050565b600054610100900460ff1680611008575060005460ff16155b6110245760405162461bcd60e51b81526004016105139061160c565b600054610100900460ff16158015611046576000805461ffff19166101011790555b61104e61129e565b6107c261129e565b600054610100900460ff168061106f575060005460ff16155b61108b5760405162461bcd60e51b81526004016105139061160c565b600054610100900460ff161580156110ad576000805461ffff19166101011790555b61104661129e565b606060006110c4836002611672565b6110cf90600261165a565b67ffffffffffffffff8111156110f557634e487b7160e01b600052604160045260246000fd5b6040519080825280601f01601f19166020018201604052801561111f576020820181803683370190505b509050600360fc1b8160008151811061114857634e487b7160e01b600052603260045260246000fd5b60200101906001600160f81b031916908160001a905350600f60fb1b8160018151811061118557634e487b7160e01b600052603260045260246000fd5b60200101906001600160f81b031916908160001a90535060006111a9846002611672565b6111b490600161165a565b90505b6001811115611248576f181899199a1a9b1b9c1cb0b131b232b360811b85600f16601081106111f657634e487b7160e01b600052603260045260246000fd5b1a60f81b82828151811061121a57634e487b7160e01b600052603260045260246000fd5b60200101906001600160f81b031916908160001a90535060049490941c93611241816116d4565b90506111b7565b5083156112975760405162461bcd60e51b815260206004820181905260248201527f537472696e67733a20686578206c656e67746820696e73756666696369656e746044820152606401610513565b9392505050565b600054610100900460ff16806112b7575060005460ff16155b6112d35760405162461bcd60e51b81526004016105139061160c565b600054610100900460ff161580156107c2576000805461ffff19166101011790558015610658576000805461ff001916905550565b600054610100900460ff1680611321575060005460ff16155b61133d5760405162461bcd60e51b81526004016105139061160c565b600054610100900460ff1615801561135f576000805461ffff19166101011790555b825161137290603690602086019061139d565b50815161138690603790602085019061139d565b50801561055a576000805461ff0019169055505050565b8280546113a9906116eb565b90600052602060002090601f0160209004810192826113cb5760008555611411565b82601f106113e457805160ff1916838001178555611411565b82800160010185558215611411579182015b828111156114115782518255916020019190600101906113f6565b5061141d929150611421565b5090565b5b8082111561141d5760008155600101611422565b80356001600160a01b038116811461144d57600080fd5b919050565b600060208284031215611463578081fd5b61129782611436565b6000806040838503121561147e578081fd5b61148783611436565b915061149560208401611436565b90509250929050565b6000806000606084860312156114b2578081fd5b6114bb84611436565b92506114c960208501611436565b9150604084013590509250925092565b600080604083850312156114eb578182fd5b6114f483611436565b946020939093013593505050565b600060208284031215611513578081fd5b5035919050565b6000806040838503121561152c578182fd5b8235915061149560208401611436565b60006020828403121561154d578081fd5b81356001600160e01b031981168114611297578182fd5b7f416363657373436f6e74726f6c3a206163636f756e742000000000000000000081526000835161159c8160178501602088016116a8565b7001034b99036b4b9b9b4b733903937b6329607d1b60179184019182015283516115cd8160288401602088016116a8565b01602801949350505050565b60208152600082518060208401526115f88160408501602087016116a8565b601f01601f19169190910160400192915050565b6020808252602e908201527f496e697469616c697a61626c653a20636f6e747261637420697320616c72656160408201526d191e481a5b9a5d1a585b1a5e995960921b606082015260800190565b6000821982111561166d5761166d611726565b500190565b600081600019048311821515161561168c5761168c611726565b500290565b6000828210156116a3576116a3611726565b500390565b60005b838110156116c35781810151838201526020016116ab565b83811115610bec5750506000910152565b6000816116e3576116e3611726565b506000190190565b600181811c908216806116ff57607f821691505b6020821081141561172057634e487b7160e01b600052602260045260246000fd5b50919050565b634e487b7160e01b600052601160045260246000fdfea2646970667358221220f04017a83777a8164e7e57fa5167c987646180c9b0041eef6c56b52094b968b764736f6c63430008040033",
  "linkReferences": {},
  "deployedLinkReferences": {}
}