{
  "_format": "hh-sol-artifact-1",
  "contractName": "HenSummoner",
  "sourceName": "contracts/HenSummoner.sol",
  "abi": [
    {
      "anonymous": false,
      "inputs": [
        {
          "indexed": true,
          "internalType": "address",
          "name": "owner",
          "type": "address"
        },
        {
          "indexed": false,
          "internalType": "contract Hen",
          "name": "hen",
          "type": "address"
        },
        {
          "indexed": false,
          "internalType": "uint256",
          "name": "tokenId",
          "type": "uint256"
        }
      ],
      "name": "NewHen",
      "type": "event"
    },
    {
      "anonymous": false,
      "inputs": [
        {
          "indexed": true,
          "internalType": "address",
          "name": "previousOwner",
          "type": "address"
        },
        {
          "indexed": true,
          "internalType": "address",
          "name": "newOwner",
          "type": "address"
        }
      ],
      "name": "OwnershipTransferred",
      "type": "event"
    },
    {
      "inputs": [],
      "name": "getHen",
      "outputs": [
        {
          "internalType": "contract Hen",
          "name": "",
          "type": "address"
        }
      ],
      "stateMutability": "view",
      "type": "function"
    },
    {
      "inputs": [],
      "name": "getHenToken",
      "outputs": [
        {
          "internalType": "contract HenHouse",
          "name": "",
          "type": "address"
        }
      ],
      "stateMutability": "view",
      "type": "function"
    },
    {
      "inputs": [],
      "name": "getSummonPrice",
      "outputs": [
        {
          "internalType": "uint256",
          "name": "",
          "type": "uint256"
        }
      ],
      "stateMutability": "view",
      "type": "function"
    },
    {
      "inputs": [],
      "name": "initialize",
      "outputs": [],
      "stateMutability": "nonpayable",
      "type": "function"
    },
    {
      "inputs": [],
      "name": "owner",
      "outputs": [
        {
          "internalType": "address",
          "name": "",
          "type": "address"
        }
      ],
      "stateMutability": "view",
      "type": "function"
    },
    {
      "inputs": [],
      "name": "renounceOwnership",
      "outputs": [],
      "stateMutability": "nonpayable",
      "type": "function"
    },
    {
      "inputs": [
        {
          "internalType": "contract Hen",
          "name": "hen",
          "type": "address"
        }
      ],
      "name": "setHen",
      "outputs": [],
      "stateMutability": "nonpayable",
      "type": "function"
    },
    {
      "inputs": [
        {
          "internalType": "contract HenHouse",
          "name": "henHouse",
          "type": "address"
        }
      ],
      "name": "setHenToken",
      "outputs": [],
      "stateMutability": "nonpayable",
      "type": "function"
    },
    {
      "inputs": [
        {
          "internalType": "uint256",
          "name": "summonPrice",
          "type": "uint256"
        }
      ],
      "name": "setSummonPrice",
      "outputs": [],
      "stateMutability": "nonpayable",
      "type": "function"
    },
    {
      "inputs": [],
      "name": "summon",
      "outputs": [],
      "stateMutability": "nonpayable",
      "type": "function"
    },
    {
      "inputs": [
        {
          "internalType": "address",
          "name": "newOwner",
          "type": "address"
        }
      ],
      "name": "transferOwnership",
      "outputs": [],
      "stateMutability": "nonpayable",
      "type": "function"
    }
  ],
  "bytecode": "0x608060405234801561001057600080fd5b50610796806100206000396000f3fe608060405234801561001057600080fd5b50600436106100a95760003560e01c80638da5cb5b116100715780638da5cb5b146100f1578063a1d515c314610116578063a1f7bd1c14610129578063ab02811f1461013a578063eb77e5e81461014b578063f2fde38b1461015e57600080fd5b80630c0e047e146100ae578063363dd19e146100c4578063715018a6146100ce5780638129fc1c146100d657806384505746146100de575b600080fd5b6067546040519081526020015b60405180910390f35b6100cc610171565b005b6100cc6102c4565b6100cc610303565b6100cc6100ec366004610698565b610377565b6033546001600160a01b03165b6040516001600160a01b0390911681526020016100bb565b6100cc610124366004610655565b6103a6565b6065546001600160a01b03166100fe565b6066546001600160a01b03166100fe565b6100cc610159366004610655565b6103f2565b6100cc61016c366004610655565b61043e565b6065546040516340d097c360e01b81523360048201526000916001600160a01b0316906340d097c390602401602060405180830381600087803b1580156101b757600080fd5b505af11580156101cb573d6000803e3d6000fd5b505050506040513d601f19601f820116820180604052508101906101ef91906106b0565b60665460675460405163af7d6ca360e01b815233600482015260248101919091529192506001600160a01b03169063af7d6ca390604401602060405180830381600087803b15801561024057600080fd5b505af1158015610254573d6000803e3d6000fd5b505050506040513d601f19601f820116820180604052508101906102789190610678565b50606554604080516001600160a01b0390921682526020820183905233917f6a64d25c55965e64f87c4e78760daf8278853a4672ae8ccd3e3c193f49b5a7a7910160405180910390a250565b6033546001600160a01b031633146102f75760405162461bcd60e51b81526004016102ee90610716565b60405180910390fd5b61030160006104d2565b565b600054610100900460ff168061031c575060005460ff16155b6103385760405162461bcd60e51b81526004016102ee906106c8565b600054610100900460ff1615801561035a576000805461ffff19166101011790555b610362610524565b8015610374576000805461ff00191690555b50565b6033546001600160a01b031633146103a15760405162461bcd60e51b81526004016102ee90610716565b606755565b6033546001600160a01b031633146103d05760405162461bcd60e51b81526004016102ee90610716565b606680546001600160a01b0319166001600160a01b0392909216919091179055565b6033546001600160a01b0316331461041c5760405162461bcd60e51b81526004016102ee90610716565b606580546001600160a01b0319166001600160a01b0392909216919091179055565b6033546001600160a01b031633146104685760405162461bcd60e51b81526004016102ee90610716565b6001600160a01b0381166104cd5760405162461bcd60e51b815260206004820152602660248201527f4f776e61626c653a206e6577206f776e657220697320746865207a65726f206160448201526564647265737360d01b60648201526084016102ee565b610374815b603380546001600160a01b038381166001600160a01b0319831681179093556040519116919082907f8be0079c531659141344cd1fd0a4f28419497f9722a3daafe3b4186f6b6457e090600090a35050565b600054610100900460ff168061053d575060005460ff16155b6105595760405162461bcd60e51b81526004016102ee906106c8565b600054610100900460ff1615801561057b576000805461ffff19166101011790555b61058361058b565b6103626105f5565b600054610100900460ff16806105a4575060005460ff16155b6105c05760405162461bcd60e51b81526004016102ee906106c8565b600054610100900460ff16158015610362576000805461ffff19166101011790558015610374576000805461ff001916905550565b600054610100900460ff168061060e575060005460ff16155b61062a5760405162461bcd60e51b81526004016102ee906106c8565b600054610100900460ff1615801561064c576000805461ffff19166101011790555b610362336104d2565b600060208284031215610666578081fd5b81356106718161074b565b9392505050565b600060208284031215610689578081fd5b81518015158114610671578182fd5b6000602082840312156106a9578081fd5b5035919050565b6000602082840312156106c1578081fd5b5051919050565b6020808252602e908201527f496e697469616c697a61626c653a20636f6e747261637420697320616c72656160408201526d191e481a5b9a5d1a585b1a5e995960921b606082015260800190565b6020808252818101527f4f776e61626c653a2063616c6c6572206973206e6f7420746865206f776e6572604082015260600190565b6001600160a01b038116811461037457600080fdfea26469706673582212206a82a34c4066913fb68a8935f96e5b29f07c69c94f9b1d222c7e81dea4b3452864736f6c63430008040033",
  "linkReferences": {},
  "deployedLinkReferences": {}
}