{
  "_format": "hh-sol-artifact-1",
  "contractName": "HenSummoner",
  "sourceName": "contracts/HenSummoner.sol",
  "abi": [
    {
      "anonymous": false,
      "inputs": [
        {
          "indexed": true,
          "internalType": "address",
          "name": "previousOwner",
          "type": "address"
        },
        {
          "indexed": true,
          "internalType": "address",
          "name": "newOwner",
          "type": "address"
        }
      ],
      "name": "OwnershipTransferred",
      "type": "event"
    },
    {
      "inputs": [],
      "name": "getHen",
      "outputs": [
        {
          "internalType": "contract Hen",
          "name": "",
          "type": "address"
        }
      ],
      "stateMutability": "view",
      "type": "function"
    },
    {
      "inputs": [],
      "name": "getHenToken",
      "outputs": [
        {
          "internalType": "contract HenHouse",
          "name": "",
          "type": "address"
        }
      ],
      "stateMutability": "view",
      "type": "function"
    },
    {
      "inputs": [],
      "name": "getSummonPrice",
      "outputs": [
        {
          "internalType": "uint256",
          "name": "",
          "type": "uint256"
        }
      ],
      "stateMutability": "view",
      "type": "function"
    },
    {
      "inputs": [],
      "name": "initialize",
      "outputs": [],
      "stateMutability": "nonpayable",
      "type": "function"
    },
    {
      "inputs": [],
      "name": "owner",
      "outputs": [
        {
          "internalType": "address",
          "name": "",
          "type": "address"
        }
      ],
      "stateMutability": "view",
      "type": "function"
    },
    {
      "inputs": [],
      "name": "renounceOwnership",
      "outputs": [],
      "stateMutability": "nonpayable",
      "type": "function"
    },
    {
      "inputs": [
        {
          "internalType": "contract Hen",
          "name": "hen",
          "type": "address"
        }
      ],
      "name": "setHen",
      "outputs": [],
      "stateMutability": "nonpayable",
      "type": "function"
    },
    {
      "inputs": [
        {
          "internalType": "contract HenHouse",
          "name": "henHouse",
          "type": "address"
        }
      ],
      "name": "setHenToken",
      "outputs": [],
      "stateMutability": "nonpayable",
      "type": "function"
    },
    {
      "inputs": [
        {
          "internalType": "uint256",
          "name": "summonPrice",
          "type": "uint256"
        }
      ],
      "name": "setSummonPrice",
      "outputs": [],
      "stateMutability": "nonpayable",
      "type": "function"
    },
    {
      "inputs": [],
      "name": "summon",
      "outputs": [],
      "stateMutability": "nonpayable",
      "type": "function"
    },
    {
      "inputs": [
        {
          "internalType": "address",
          "name": "newOwner",
          "type": "address"
        }
      ],
      "name": "transferOwnership",
      "outputs": [],
      "stateMutability": "nonpayable",
      "type": "function"
    }
  ],
  "bytecode": "0x608060405234801561001057600080fd5b5061066a806100206000396000f3fe608060405234801561001057600080fd5b50600436106100a95760003560e01c80638da5cb5b116100715780638da5cb5b146100f1578063a1d515c314610116578063a1f7bd1c14610129578063ab02811f1461013a578063eb77e5e81461014b578063f2fde38b1461015e57600080fd5b80630c0e047e146100ae578063363dd19e146100c4578063715018a6146100ce5780638129fc1c146100d657806384505746146100de575b600080fd5b6065546040519081526020015b60405180910390f35b6100cc610171565b005b6100cc6101d0565b6100cc61020f565b6100cc6100ec366004610584565b610283565b6033546001600160a01b03165b6040516001600160a01b0390911681526020016100bb565b6100cc610124366004610561565b6102b2565b6066546001600160a01b03166100fe565b6067546001600160a01b03166100fe565b6100cc610159366004610561565b6102fe565b6100cc61016c366004610561565b61034a565b6066546040516340d097c360e01b81523360048201526001600160a01b03909116906340d097c390602401600060405180830381600087803b1580156101b657600080fd5b505af11580156101ca573d6000803e3d6000fd5b50505050565b6033546001600160a01b031633146102035760405162461bcd60e51b81526004016101fa906105ea565b60405180910390fd5b61020d60006103de565b565b600054610100900460ff1680610228575060005460ff16155b6102445760405162461bcd60e51b81526004016101fa9061059c565b600054610100900460ff16158015610266576000805461ffff19166101011790555b61026e610430565b8015610280576000805461ff00191690555b50565b6033546001600160a01b031633146102ad5760405162461bcd60e51b81526004016101fa906105ea565b606555565b6033546001600160a01b031633146102dc5760405162461bcd60e51b81526004016101fa906105ea565b606780546001600160a01b0319166001600160a01b0392909216919091179055565b6033546001600160a01b031633146103285760405162461bcd60e51b81526004016101fa906105ea565b606680546001600160a01b0319166001600160a01b0392909216919091179055565b6033546001600160a01b031633146103745760405162461bcd60e51b81526004016101fa906105ea565b6001600160a01b0381166103d95760405162461bcd60e51b815260206004820152602660248201527f4f776e61626c653a206e6577206f776e657220697320746865207a65726f206160448201526564647265737360d01b60648201526084016101fa565b610280815b603380546001600160a01b038381166001600160a01b0319831681179093556040519116919082907f8be0079c531659141344cd1fd0a4f28419497f9722a3daafe3b4186f6b6457e090600090a35050565b600054610100900460ff1680610449575060005460ff16155b6104655760405162461bcd60e51b81526004016101fa9061059c565b600054610100900460ff16158015610487576000805461ffff19166101011790555b61048f610497565b61026e610501565b600054610100900460ff16806104b0575060005460ff16155b6104cc5760405162461bcd60e51b81526004016101fa9061059c565b600054610100900460ff1615801561026e576000805461ffff19166101011790558015610280576000805461ff001916905550565b600054610100900460ff168061051a575060005460ff16155b6105365760405162461bcd60e51b81526004016101fa9061059c565b600054610100900460ff16158015610558576000805461ffff19166101011790555b61026e336103de565b600060208284031215610572578081fd5b813561057d8161061f565b9392505050565b600060208284031215610595578081fd5b5035919050565b6020808252602e908201527f496e697469616c697a61626c653a20636f6e747261637420697320616c72656160408201526d191e481a5b9a5d1a585b1a5e995960921b606082015260800190565b6020808252818101527f4f776e61626c653a2063616c6c6572206973206e6f7420746865206f776e6572604082015260600190565b6001600160a01b038116811461028057600080fdfea2646970667358221220084f01ab0db897bf2d72c749473cbf55e82a541577359fe7d82d16da7db612c764736f6c63430008040033",
  "linkReferences": {},
  "deployedLinkReferences": {}
}