{
  "_format": "hh-sol-artifact-1",
  "contractName": "HenHouse",
  "sourceName": "contracts/HenHouse.sol",
  "abi": [
    {
      "anonymous": false,
      "inputs": [
        {
          "indexed": true,
          "internalType": "uint256",
          "name": "houseId",
          "type": "uint256"
        },
        {
          "indexed": false,
          "internalType": "uint8",
          "name": "minLevel",
          "type": "uint8"
        },
        {
          "indexed": false,
          "internalType": "uint8",
          "name": "minProductivity",
          "type": "uint8"
        }
      ],
      "name": "HouseCreated",
      "type": "event"
    },
    {
      "anonymous": false,
      "inputs": [
        {
          "indexed": true,
          "internalType": "address",
          "name": "previousOwner",
          "type": "address"
        },
        {
          "indexed": true,
          "internalType": "address",
          "name": "newOwner",
          "type": "address"
        }
      ],
      "name": "OwnershipTransferred",
      "type": "event"
    },
    {
      "anonymous": false,
      "inputs": [
        {
          "indexed": false,
          "internalType": "uint256",
          "name": "workId",
          "type": "uint256"
        },
        {
          "indexed": false,
          "internalType": "uint256",
          "name": "houseId",
          "type": "uint256"
        },
        {
          "indexed": false,
          "internalType": "uint256",
          "name": "tokenId",
          "type": "uint256"
        },
        {
          "indexed": false,
          "internalType": "address",
          "name": "owner",
          "type": "address"
        },
        {
          "indexed": false,
          "internalType": "uint256",
          "name": "blockNumber",
          "type": "uint256"
        }
      ],
      "name": "WorkStarted",
      "type": "event"
    },
    {
      "inputs": [
        {
          "internalType": "uint256",
          "name": "workId",
          "type": "uint256"
        }
      ],
      "name": "collectEggs",
      "outputs": [],
      "stateMutability": "nonpayable",
      "type": "function"
    },
    {
      "inputs": [
        {
          "internalType": "uint8",
          "name": "minLevel",
          "type": "uint8"
        },
        {
          "internalType": "uint8",
          "name": "minProductivity",
          "type": "uint8"
        }
      ],
      "name": "createHouse",
      "outputs": [],
      "stateMutability": "nonpayable",
      "type": "function"
    },
    {
      "inputs": [],
      "name": "getAllHouses",
      "outputs": [
        {
          "components": [
            {
              "internalType": "uint256",
              "name": "houseId",
              "type": "uint256"
            },
            {
              "internalType": "uint8",
              "name": "minLevel",
              "type": "uint8"
            },
            {
              "internalType": "uint8",
              "name": "minProductivity",
              "type": "uint8"
            }
          ],
          "internalType": "struct HenHouse.House[]",
          "name": "",
          "type": "tuple[]"
        }
      ],
      "stateMutability": "view",
      "type": "function"
    },
    {
      "inputs": [
        {
          "internalType": "uint256",
          "name": "houseId",
          "type": "uint256"
        }
      ],
      "name": "getDetail",
      "outputs": [
        {
          "components": [
            {
              "internalType": "uint256",
              "name": "houseId",
              "type": "uint256"
            },
            {
              "internalType": "uint8",
              "name": "minLevel",
              "type": "uint8"
            },
            {
              "internalType": "uint8",
              "name": "minProductivity",
              "type": "uint8"
            }
          ],
          "internalType": "struct HenHouse.House",
          "name": "",
          "type": "tuple"
        }
      ],
      "stateMutability": "view",
      "type": "function"
    },
    {
      "inputs": [],
      "name": "getEggToken",
      "outputs": [
        {
          "internalType": "contract EggToken",
          "name": "",
          "type": "address"
        }
      ],
      "stateMutability": "view",
      "type": "function"
    },
    {
      "inputs": [],
      "name": "getHen",
      "outputs": [
        {
          "internalType": "contract HenNFT",
          "name": "",
          "type": "address"
        }
      ],
      "stateMutability": "view",
      "type": "function"
    },
    {
      "inputs": [],
      "name": "getHenToken",
      "outputs": [
        {
          "internalType": "contract HenToken",
          "name": "",
          "type": "address"
        }
      ],
      "stateMutability": "view",
      "type": "function"
    },
    {
      "inputs": [
        {
          "internalType": "uint256",
          "name": "houseId",
          "type": "uint256"
        },
        {
          "internalType": "address",
          "name": "account",
          "type": "address"
        }
      ],
      "name": "getMyWorks",
      "outputs": [
        {
          "components": [
            {
              "internalType": "uint256",
              "name": "workId",
              "type": "uint256"
            },
            {
              "internalType": "uint256",
              "name": "houseId",
              "type": "uint256"
            },
            {
              "internalType": "uint256",
              "name": "tokenId",
              "type": "uint256"
            },
            {
              "internalType": "address payable",
              "name": "owner",
              "type": "address"
            },
            {
              "internalType": "uint256",
              "name": "blockNumber",
              "type": "uint256"
            }
          ],
          "internalType": "struct HenHouse.Work[]",
          "name": "",
          "type": "tuple[]"
        }
      ],
      "stateMutability": "view",
      "type": "function"
    },
    {
      "inputs": [
        {
          "internalType": "uint256",
          "name": "workId",
          "type": "uint256"
        }
      ],
      "name": "getWork",
      "outputs": [
        {
          "components": [
            {
              "internalType": "uint256",
              "name": "workId",
              "type": "uint256"
            },
            {
              "internalType": "uint256",
              "name": "houseId",
              "type": "uint256"
            },
            {
              "internalType": "uint256",
              "name": "tokenId",
              "type": "uint256"
            },
            {
              "internalType": "address payable",
              "name": "owner",
              "type": "address"
            },
            {
              "internalType": "uint256",
              "name": "blockNumber",
              "type": "uint256"
            }
          ],
          "internalType": "struct HenHouse.Work",
          "name": "",
          "type": "tuple"
        }
      ],
      "stateMutability": "view",
      "type": "function"
    },
    {
      "inputs": [],
      "name": "initialize",
      "outputs": [],
      "stateMutability": "nonpayable",
      "type": "function"
    },
    {
      "inputs": [],
      "name": "owner",
      "outputs": [
        {
          "internalType": "address",
          "name": "",
          "type": "address"
        }
      ],
      "stateMutability": "view",
      "type": "function"
    },
    {
      "inputs": [],
      "name": "renounceOwnership",
      "outputs": [],
      "stateMutability": "nonpayable",
      "type": "function"
    },
    {
      "inputs": [
        {
          "internalType": "contract EggToken",
          "name": "eggToken",
          "type": "address"
        }
      ],
      "name": "setEggToken",
      "outputs": [],
      "stateMutability": "nonpayable",
      "type": "function"
    },
    {
      "inputs": [
        {
          "internalType": "contract HenNFT",
          "name": "hen",
          "type": "address"
        }
      ],
      "name": "setHen",
      "outputs": [],
      "stateMutability": "nonpayable",
      "type": "function"
    },
    {
      "inputs": [
        {
          "internalType": "contract HenToken",
          "name": "henToken",
          "type": "address"
        }
      ],
      "name": "setHenToken",
      "outputs": [],
      "stateMutability": "nonpayable",
      "type": "function"
    },
    {
      "inputs": [
        {
          "internalType": "uint256",
          "name": "houseId",
          "type": "uint256"
        },
        {
          "internalType": "uint256",
          "name": "tokenId",
          "type": "uint256"
        }
      ],
      "name": "startWork",
      "outputs": [],
      "stateMutability": "nonpayable",
      "type": "function"
    },
    {
      "inputs": [
        {
          "internalType": "address",
          "name": "newOwner",
          "type": "address"
        }
      ],
      "name": "transferOwnership",
      "outputs": [],
      "stateMutability": "nonpayable",
      "type": "function"
    }
  ],
  "bytecode": "0x608060405234801561001057600080fd5b50611577806100206000396000f3fe608060405234801561001057600080fd5b506004361061010b5760003560e01c8063a1d515c3116100a2578063d87deea811610071578063d87deea81461026a578063e03796e11461027f578063e743f08214610292578063eb77e5e8146102a3578063f2fde38b146102b657600080fd5b8063a1d515c314610222578063a1f7bd1c14610235578063aab13f1a14610246578063ab02811f1461025957600080fd5b80638da5cb5b116100de5780638da5cb5b1461015e5780638f8f289e14610183578063957e8ce8146101a35780639d66a9cd146101b657600080fd5b80630a1ee3b114610110578063573d21f314610125578063715018a61461014e5780638129fc1c14610156575b600080fd5b61012361011e3660046111f3565b6102c9565b005b6101386101333660046111f3565b6104bd565b6040516101459190611414565b60405180910390f35b61012361051d565b610123610553565b6033546001600160a01b03165b6040516001600160a01b039091168152602001610145565b61019661019136600461120b565b6105cf565b60405161014591906112f3565b6101236101b1366004611115565b6107e3565b6102156101c43660046111f3565b604080516060808201835260008083526020808401829052928401819052938452609c82529282902082519384018352805484526001015460ff808216928501929092526101009004169082015290565b60405161014591906113e9565b610123610230366004611115565b61082f565b6099546001600160a01b031661016b565b61012361025436600461125b565b61087b565b609a546001600160a01b031661016b565b610272610956565b6040516101459190611288565b61012361028d36600461123a565b610adf565b609b546001600160a01b031661016b565b6101236102b1366004611115565b610deb565b6101236102c4366004611115565b610e37565b6000818152609d602052604090206003810154600282015460048301546001909301546001600160a01b039092169290913384146103595760405162461bcd60e51b815260206004820152602260248201527f596f752063616e206f6e6c7920636f6c6c65637420796f7572206f776e206567604482015261677360f01b60648201526084015b60405180910390fd5b6099546040516318bc4b1d60e31b8152600481018590526000916001600160a01b03169063c5e258e89060240160e06040518083038186803b15801561039e57600080fd5b505afa1580156103b2573d6000803e3d6000fd5b505050506040513d601f19601f820116820180604052508101906103d69190611138565b905060006103e484436114b2565b82516000858152609c60209081526040909120600101549085015161041191610100900460ff16906114c9565b61041b9190611489565b60ff16610428919061146a565b61043a90670de0b6b3a764000061146a565b609b546040516340c10f1960e01b8152336004820152602481018390529192506001600160a01b0316906340c10f1990604401600060405180830381600087803b15801561048757600080fd5b505af115801561049b573d6000803e3d6000fd5b50505060009788525050609d6020525050604090932043600490910155505050565b6104c56110be565b506000908152609d6020908152604091829020825160a0810184528154815260018201549281019290925260028101549282019290925260038201546001600160a01b03166060820152600490910154608082015290565b6033546001600160a01b031633146105475760405162461bcd60e51b8152600401610350906113b4565b6105516000610ecb565b565b600054610100900460ff168061056c575060005460ff16155b6105885760405162461bcd60e51b815260040161035090611366565b600054610100900460ff161580156105aa576000805461ffff19166101011790555b6105b2610f1d565b6105ba610f84565b80156105cc576000805461ff00191690555b50565b606060006105dc60985490565b905060008060005b838110156106685760006105f9826001611452565b6000818152609d602052604090206001810154600390910154919250906001600160a01b0316898214801561063f5750886001600160a01b0316816001600160a01b0316145b156106525761064f600187611452565b95505b5050508080610660906114ec565b9150506105e4565b5060008267ffffffffffffffff81111561069257634e487b7160e01b600052604160045260246000fd5b6040519080825280602002602001820160405280156106cb57816020015b6106b86110be565b8152602001906001900390816106b05790505b50905060005b848110156107d65760006106e6826001611452565b6000818152609d602052604090206001810154600390910154919250906001600160a01b03168a8214801561072c5750896001600160a01b0316816001600160a01b0316145b156107c0576000838152609d6020908152604091829020825160a0810184528154815260018201549281019290925260028101549282019290925260038201546001600160a01b031660608201526004820154608082015286518790899081106107a657634e487b7160e01b600052603260045260246000fd5b60209081029190910101526107bc600188611452565b9650505b50505080806107ce906114ec565b9150506106d1565b5093505050505b92915050565b6033546001600160a01b0316331461080d5760405162461bcd60e51b8152600401610350906113b4565b609b80546001600160a01b0319166001600160a01b0392909216919091179055565b6033546001600160a01b031633146108595760405162461bcd60e51b8152600401610350906113b4565b609a80546001600160a01b0319166001600160a01b0392909216919091179055565b6033546001600160a01b031633146108a55760405162461bcd60e51b8152600401610350906113b4565b6108b3609780546001019055565b60006108be60975490565b6040805160608101825282815260ff86811660208084018281528884168587018181526000898152609c855288902096518755915160019096018054925186166101000261ffff1990931696909516959095171790925583519081529081019190915291925082917f1dc6adc87151f33e5ba5f51b502b7915daf96179e5de548d1c891f0b6d624e48910160405180910390a2505050565b6060600061096360975490565b9050806109b45760408051600080825260208201909252906109ad565b60408051606081018252600080825260208083018290529282015282526000199092019101816109805790505b5091505090565b60008167ffffffffffffffff8111156109dd57634e487b7160e01b600052604160045260246000fd5b604051908082528060200260200182016040528015610a2857816020015b60408051606081018252600080825260208083018290529282015282526000199092019101816109fb5790505b5090506000805b83811015610ad6576000610a44826001611452565b6000818152609c6020908152604091829020825160608101845281548152600182015460ff8082169483019490945261010090049092169282019290925286519293509091869086908110610aa957634e487b7160e01b600052603260045260246000fd5b6020908102919091010152610abf600185611452565b935050508080610ace906114ec565b915050610a2f565b50909392505050565b610aed609880546001019055565b6000610af860985490565b6099546040516318bc4b1d60e31b8152600481018590529192506000916001600160a01b039091169063c5e258e89060240160e06040518083038186803b158015610b4257600080fd5b505afa158015610b56573d6000803e3d6000fd5b505050506040513d601f19601f82011682018060405250810190610b7a9190611138565b6000858152609c6020526040902060010154815191925060ff90811691161015610c045760405162461bcd60e51b815260206004820152603560248201527f546869732068656e20646f6573206e6f74206d65657420746865206d696e696d604482015274756d206c6576656c20726571756972656d656e747360581b6064820152608401610350565b6000848152609c60209081526040909120600101549082015160ff610100909204821691161015610c9d5760405162461bcd60e51b815260206004820152603c60248201527f546869732068656e20646f6573206e6f74206d65657420746865206d696e696d60448201527f756d2070726f64756374697669747920726571756972656d656e7473000000006064820152608401610350565b6099546040516323b872dd60e01b8152336004820152306024820152604481018590526001600160a01b03909116906323b872dd90606401600060405180830381600087803b158015610cef57600080fd5b505af1158015610d03573d6000803e3d6000fd5b50506040805160a08101825285815260208082018981528284018981523360608501818152436080870181815260008d8152609d9097529588902096518755935160018701559151600286015590516003850180546001600160a01b03929092166001600160a01b0319909216919091179055915160049093019290925591517fe02139421e3e2dadb2d10dbeae5910b3a186bd8449e83e166b4fea9f1035e2d09450610ddd9350869289928992948552602085019390935260408401919091526001600160a01b03166060830152608082015260a00190565b60405180910390a150505050565b6033546001600160a01b03163314610e155760405162461bcd60e51b8152600401610350906113b4565b609980546001600160a01b0319166001600160a01b0392909216919091179055565b6033546001600160a01b03163314610e615760405162461bcd60e51b8152600401610350906113b4565b6001600160a01b038116610ec65760405162461bcd60e51b815260206004820152602660248201527f4f776e61626c653a206e6577206f776e657220697320746865207a65726f206160448201526564647265737360d01b6064820152608401610350565b6105cc815b603380546001600160a01b038381166001600160a01b0319831681179093556040519116919082907f8be0079c531659141344cd1fd0a4f28419497f9722a3daafe3b4186f6b6457e090600090a35050565b600054610100900460ff1680610f36575060005460ff16155b610f525760405162461bcd60e51b815260040161035090611366565b600054610100900460ff16158015610f74576000805461ffff19166101011790555b610f7c610ff4565b6105ba61105e565b600054610100900460ff1680610f9d575060005460ff16155b610fb95760405162461bcd60e51b815260040161035090611366565b600054610100900460ff16158015610fdb576000805461ffff19166101011790555b600160655580156105cc576000805461ff001916905550565b600054610100900460ff168061100d575060005460ff16155b6110295760405162461bcd60e51b815260040161035090611366565b600054610100900460ff161580156105ba576000805461ffff191661010117905580156105cc576000805461ff001916905550565b600054610100900460ff1680611077575060005460ff16155b6110935760405162461bcd60e51b815260040161035090611366565b600054610100900460ff161580156110b5576000805461ffff19166101011790555b6105ba33610ecb565b6040518060a0016040528060008152602001600081526020016000815260200160006001600160a01b03168152602001600081525090565b80516003811061110557600080fd5b919050565b805161110581611532565b600060208284031215611126578081fd5b81356111318161151d565b9392505050565b600060e08284031215611149578081fd5b60405160e0810181811067ffffffffffffffff8211171561117857634e487b7160e01b83526041600452602483fd5b6040526111848361110a565b81526111926020840161110a565b60208201526111a36040840161110a565b60408201526111b46060840161110a565b60608201526111c56080840161110a565b60808201526111d660a0840161110a565b60a08201526111e760c084016110f6565b60c08201529392505050565b600060208284031215611204578081fd5b5035919050565b6000806040838503121561121d578081fd5b82359150602083013561122f8161151d565b809150509250929050565b6000806040838503121561124c578182fd5b50508035926020909101359150565b6000806040838503121561126d578182fd5b823561127881611532565b9150602083013561122f81611532565b6020808252825182820181905260009190848201906040850190845b818110156112e7576112d48385518051825260ff602082015116602083015260ff60408201511660408301525050565b92840192606092909201916001016112a4565b50909695505050505050565b6020808252825182820181905260009190848201906040850190845b818110156112e7576113538385518051825260208082015190830152604080820151908301526060808201516001600160a01b031690830152608090810151910152565b9284019260a0929092019160010161130f565b6020808252602e908201527f496e697469616c697a61626c653a20636f6e747261637420697320616c72656160408201526d191e481a5b9a5d1a585b1a5e995960921b606082015260800190565b6020808252818101527f4f776e61626c653a2063616c6c6572206973206e6f7420746865206f776e6572604082015260600190565b606081016107dd82848051825260ff602082015116602083015260ff60408201511660408301525050565b8151815260208083015190820152604080830151908201526060808301516001600160a01b0316908201526080808301519082015260a081016107dd565b6000821982111561146557611465611507565b500190565b600081600019048311821515161561148457611484611507565b500290565b600060ff821660ff84168160ff04811182151516156114aa576114aa611507565b029392505050565b6000828210156114c4576114c4611507565b500390565b600060ff821660ff8416808210156114e3576114e3611507565b90039392505050565b600060001982141561150057611500611507565b5060010190565b634e487b7160e01b600052601160045260246000fd5b6001600160a01b03811681146105cc57600080fd5b60ff811681146105cc57600080fdfea264697066735822122049b96c85ad681ecccbe9a887507cbe707fac78141f233aeec2a23d393cbd116464736f6c63430008040033",
  "linkReferences": {},
  "deployedLinkReferences": {}
}