{
  "_format": "hh-sol-artifact-1",
  "contractName": "HenHouse",
  "sourceName": "contracts/HenHouse.sol",
  "abi": [
    {
      "anonymous": false,
      "inputs": [
        {
          "indexed": true,
          "internalType": "uint256",
          "name": "houseId",
          "type": "uint256"
        },
        {
          "indexed": false,
          "internalType": "uint8",
          "name": "minLevel",
          "type": "uint8"
        },
        {
          "indexed": false,
          "internalType": "uint8",
          "name": "minProductivity",
          "type": "uint8"
        }
      ],
      "name": "HouseCreated",
      "type": "event"
    },
    {
      "anonymous": false,
      "inputs": [
        {
          "indexed": true,
          "internalType": "address",
          "name": "previousOwner",
          "type": "address"
        },
        {
          "indexed": true,
          "internalType": "address",
          "name": "newOwner",
          "type": "address"
        }
      ],
      "name": "OwnershipTransferred",
      "type": "event"
    },
    {
      "inputs": [
        {
          "internalType": "uint8",
          "name": "minLevel",
          "type": "uint8"
        },
        {
          "internalType": "uint8",
          "name": "minProductivity",
          "type": "uint8"
        }
      ],
      "name": "createHouse",
      "outputs": [],
      "stateMutability": "nonpayable",
      "type": "function"
    },
    {
      "inputs": [],
      "name": "getAllHouses",
      "outputs": [
        {
          "components": [
            {
              "internalType": "uint256",
              "name": "houseId",
              "type": "uint256"
            },
            {
              "internalType": "uint8",
              "name": "minLevel",
              "type": "uint8"
            },
            {
              "internalType": "uint8",
              "name": "minProductivity",
              "type": "uint8"
            }
          ],
          "internalType": "struct HenHouse.House[]",
          "name": "",
          "type": "tuple[]"
        }
      ],
      "stateMutability": "view",
      "type": "function"
    },
    {
      "inputs": [
        {
          "internalType": "uint256",
          "name": "houseId",
          "type": "uint256"
        }
      ],
      "name": "getDetail",
      "outputs": [
        {
          "components": [
            {
              "internalType": "uint256",
              "name": "houseId",
              "type": "uint256"
            },
            {
              "internalType": "uint8",
              "name": "minLevel",
              "type": "uint8"
            },
            {
              "internalType": "uint8",
              "name": "minProductivity",
              "type": "uint8"
            }
          ],
          "internalType": "struct HenHouse.House",
          "name": "",
          "type": "tuple"
        }
      ],
      "stateMutability": "view",
      "type": "function"
    },
    {
      "inputs": [],
      "name": "getHen",
      "outputs": [
        {
          "internalType": "contract HenNFT",
          "name": "",
          "type": "address"
        }
      ],
      "stateMutability": "view",
      "type": "function"
    },
    {
      "inputs": [],
      "name": "getHenToken",
      "outputs": [
        {
          "internalType": "contract HenToken",
          "name": "",
          "type": "address"
        }
      ],
      "stateMutability": "view",
      "type": "function"
    },
    {
      "inputs": [
        {
          "internalType": "uint256",
          "name": "workId",
          "type": "uint256"
        }
      ],
      "name": "getWork",
      "outputs": [
        {
          "components": [
            {
              "internalType": "uint256",
              "name": "houseId",
              "type": "uint256"
            },
            {
              "internalType": "uint256",
              "name": "tokenId",
              "type": "uint256"
            },
            {
              "internalType": "uint256",
              "name": "blockNumber",
              "type": "uint256"
            }
          ],
          "internalType": "struct HenHouse.Work",
          "name": "",
          "type": "tuple"
        }
      ],
      "stateMutability": "view",
      "type": "function"
    },
    {
      "inputs": [],
      "name": "initialize",
      "outputs": [],
      "stateMutability": "nonpayable",
      "type": "function"
    },
    {
      "inputs": [],
      "name": "owner",
      "outputs": [
        {
          "internalType": "address",
          "name": "",
          "type": "address"
        }
      ],
      "stateMutability": "view",
      "type": "function"
    },
    {
      "inputs": [],
      "name": "renounceOwnership",
      "outputs": [],
      "stateMutability": "nonpayable",
      "type": "function"
    },
    {
      "inputs": [
        {
          "internalType": "contract HenNFT",
          "name": "hen",
          "type": "address"
        }
      ],
      "name": "setHen",
      "outputs": [],
      "stateMutability": "nonpayable",
      "type": "function"
    },
    {
      "inputs": [
        {
          "internalType": "contract HenToken",
          "name": "henToken",
          "type": "address"
        }
      ],
      "name": "setHenToken",
      "outputs": [],
      "stateMutability": "nonpayable",
      "type": "function"
    },
    {
      "inputs": [
        {
          "internalType": "uint256",
          "name": "houseId",
          "type": "uint256"
        },
        {
          "internalType": "uint256",
          "name": "tokenId",
          "type": "uint256"
        }
      ],
      "name": "startWork",
      "outputs": [],
      "stateMutability": "nonpayable",
      "type": "function"
    },
    {
      "inputs": [
        {
          "internalType": "address",
          "name": "newOwner",
          "type": "address"
        }
      ],
      "name": "transferOwnership",
      "outputs": [],
      "stateMutability": "nonpayable",
      "type": "function"
    }
  ],
  "bytecode": "0x608060405234801561001057600080fd5b50610bf9806100206000396000f3fe608060405234801561001057600080fd5b50600436106100cf5760003560e01c8063a1f7bd1c1161008c578063d87deea811610066578063d87deea8146101f9578063e03796e11461020e578063eb77e5e814610221578063f2fde38b1461023457600080fd5b8063a1f7bd1c146101c4578063aab13f1a146101d5578063ab02811f146101e857600080fd5b8063573d21f3146100d4578063715018a61461010e5780638129fc1c146101185780638da5cb5b146101205780639d66a9cd14610145578063a1d515c3146101b1575b600080fd5b6100e76100e23660046109db565b610247565b60408051825181526020808401519082015291810151908201526060015b60405180910390f35b6101166102a4565b005b6101166102e3565b6033546001600160a01b03165b6040516001600160a01b039091168152602001610105565b6101a46101533660046109db565b604080516060808201835260008083526020808401829052928401819052938452609b82529282902082519384018352805484526001015460ff808216928501929092526101009004169082015290565b6040516101059190610b34565b6101166101bf3660046109b8565b61035f565b6099546001600160a01b031661012d565b6101166101e3366004610a14565b6103ab565b609a546001600160a01b031661012d565b610201610486565b6040516101059190610a46565b61011661021c3660046109f3565b61060f565b61011661022f3660046109b8565b6106cf565b6101166102423660046109b8565b61071b565b61026b60405180606001604052806000815260200160008152602001600081525090565b506000908152609c6020908152604091829020825160608101845281548152600182015492810192909252600201549181019190915290565b6033546001600160a01b031633146102d75760405162461bcd60e51b81526004016102ce90610aff565b60405180910390fd5b6102e160006107af565b565b600054610100900460ff16806102fc575060005460ff16155b6103185760405162461bcd60e51b81526004016102ce90610ab1565b600054610100900460ff1615801561033a576000805461ffff19166101011790555b610342610801565b61034a610868565b801561035c576000805461ff00191690555b50565b6033546001600160a01b031633146103895760405162461bcd60e51b81526004016102ce90610aff565b609a80546001600160a01b0319166001600160a01b0392909216919091179055565b6033546001600160a01b031633146103d55760405162461bcd60e51b81526004016102ce90610aff565b6103e3609780546001019055565b60006103ee60975490565b6040805160608101825282815260ff86811660208084018281528884168587018181526000898152609b855288902096518755915160019096018054925186166101000261ffff1990931696909516959095171790925583519081529081019190915291925082917f1dc6adc87151f33e5ba5f51b502b7915daf96179e5de548d1c891f0b6d624e48910160405180910390a2505050565b6060600061049360975490565b9050806104e45760408051600080825260208201909252906104dd565b60408051606081018252600080825260208083018290529282015282526000199092019101816104b05790505b5091505090565b60008167ffffffffffffffff81111561050d57634e487b7160e01b600052604160045260246000fd5b60405190808252806020026020018201604052801561055857816020015b604080516060810182526000808252602080830182905292820152825260001990920191018161052b5790505b5090506000805b83811015610606576000610574826001610b65565b6000818152609b6020908152604091829020825160608101845281548152600182015460ff80821694830194909452610100900490921692820192909252865192935090918690869081106105d957634e487b7160e01b600052603260045260246000fd5b60209081029190910101526105ef600185610b65565b9350505080806105fe90610b7d565b91505061055f565b50909392505050565b61061d609880546001019055565b600061062860985490565b6099546040516323b872dd60e01b8152336004820152306024820152604481018590529192506001600160a01b0316906323b872dd90606401600060405180830381600087803b15801561067b57600080fd5b505af115801561068f573d6000803e3d6000fd5b5050604080516060810182529586526020808701958652438783019081526000958652609c90915293209451855550509051600183015551600290910155565b6033546001600160a01b031633146106f95760405162461bcd60e51b81526004016102ce90610aff565b609980546001600160a01b0319166001600160a01b0392909216919091179055565b6033546001600160a01b031633146107455760405162461bcd60e51b81526004016102ce90610aff565b6001600160a01b0381166107aa5760405162461bcd60e51b815260206004820152602660248201527f4f776e61626c653a206e6577206f776e657220697320746865207a65726f206160448201526564647265737360d01b60648201526084016102ce565b61035c815b603380546001600160a01b038381166001600160a01b0319831681179093556040519116919082907f8be0079c531659141344cd1fd0a4f28419497f9722a3daafe3b4186f6b6457e090600090a35050565b600054610100900460ff168061081a575060005460ff16155b6108365760405162461bcd60e51b81526004016102ce90610ab1565b600054610100900460ff16158015610858576000805461ffff19166101011790555b6108606108d8565b61034a610942565b600054610100900460ff1680610881575060005460ff16155b61089d5760405162461bcd60e51b81526004016102ce90610ab1565b600054610100900460ff161580156108bf576000805461ffff19166101011790555b6001606555801561035c576000805461ff001916905550565b600054610100900460ff16806108f1575060005460ff16155b61090d5760405162461bcd60e51b81526004016102ce90610ab1565b600054610100900460ff1615801561034a576000805461ffff1916610101179055801561035c576000805461ff001916905550565b600054610100900460ff168061095b575060005460ff16155b6109775760405162461bcd60e51b81526004016102ce90610ab1565b600054610100900460ff16158015610999576000805461ffff19166101011790555b61034a336107af565b803560ff811681146109b357600080fd5b919050565b6000602082840312156109c9578081fd5b81356109d481610bae565b9392505050565b6000602082840312156109ec578081fd5b5035919050565b60008060408385031215610a05578081fd5b50508035926020909101359150565b60008060408385031215610a26578182fd5b610a2f836109a2565b9150610a3d602084016109a2565b90509250929050565b6020808252825182820181905260009190848201906040850190845b81811015610aa557610a928385518051825260ff602082015116602083015260ff60408201511660408301525050565b9284019260609290920191600101610a62565b50909695505050505050565b6020808252602e908201527f496e697469616c697a61626c653a20636f6e747261637420697320616c72656160408201526d191e481a5b9a5d1a585b1a5e995960921b606082015260800190565b6020808252818101527f4f776e61626c653a2063616c6c6572206973206e6f7420746865206f776e6572604082015260600190565b60608101610b5f82848051825260ff602082015116602083015260ff60408201511660408301525050565b92915050565b60008219821115610b7857610b78610b98565b500190565b6000600019821415610b9157610b91610b98565b5060010190565b634e487b7160e01b600052601160045260246000fd5b6001600160a01b038116811461035c57600080fdfea26469706673582212209fe4583dc3c20e9c7db98131b2595ceeb83413a3b1155f42468c1b69a9f6d81964736f6c63430008040033",
  "linkReferences": {},
  "deployedLinkReferences": {}
}