{
  "_format": "hh-sol-artifact-1",
  "contractName": "HenHouse",
  "sourceName": "contracts/HenHouse.sol",
  "abi": [
    {
      "anonymous": false,
      "inputs": [
        {
          "indexed": true,
          "internalType": "uint256",
          "name": "houseId",
          "type": "uint256"
        },
        {
          "indexed": false,
          "internalType": "uint8",
          "name": "minLevel",
          "type": "uint8"
        },
        {
          "indexed": false,
          "internalType": "uint8",
          "name": "minProductivity",
          "type": "uint8"
        }
      ],
      "name": "HouseCreated",
      "type": "event"
    },
    {
      "anonymous": false,
      "inputs": [
        {
          "indexed": true,
          "internalType": "address",
          "name": "previousOwner",
          "type": "address"
        },
        {
          "indexed": true,
          "internalType": "address",
          "name": "newOwner",
          "type": "address"
        }
      ],
      "name": "OwnershipTransferred",
      "type": "event"
    },
    {
      "inputs": [
        {
          "internalType": "uint8",
          "name": "minLevel",
          "type": "uint8"
        },
        {
          "internalType": "uint8",
          "name": "minProductivity",
          "type": "uint8"
        }
      ],
      "name": "createHouse",
      "outputs": [],
      "stateMutability": "nonpayable",
      "type": "function"
    },
    {
      "inputs": [],
      "name": "getAllHouses",
      "outputs": [
        {
          "components": [
            {
              "internalType": "uint256",
              "name": "houseId",
              "type": "uint256"
            },
            {
              "internalType": "uint8",
              "name": "minLevel",
              "type": "uint8"
            },
            {
              "internalType": "uint8",
              "name": "minProductivity",
              "type": "uint8"
            }
          ],
          "internalType": "struct HenHouse.House[]",
          "name": "",
          "type": "tuple[]"
        }
      ],
      "stateMutability": "view",
      "type": "function"
    },
    {
      "inputs": [
        {
          "internalType": "uint256",
          "name": "houseId",
          "type": "uint256"
        }
      ],
      "name": "getDetail",
      "outputs": [
        {
          "components": [
            {
              "internalType": "uint256",
              "name": "houseId",
              "type": "uint256"
            },
            {
              "internalType": "uint8",
              "name": "minLevel",
              "type": "uint8"
            },
            {
              "internalType": "uint8",
              "name": "minProductivity",
              "type": "uint8"
            }
          ],
          "internalType": "struct HenHouse.House",
          "name": "",
          "type": "tuple"
        }
      ],
      "stateMutability": "view",
      "type": "function"
    },
    {
      "inputs": [],
      "name": "getHenToken",
      "outputs": [
        {
          "internalType": "contract HenToken",
          "name": "",
          "type": "address"
        }
      ],
      "stateMutability": "view",
      "type": "function"
    },
    {
      "inputs": [],
      "name": "initialize",
      "outputs": [],
      "stateMutability": "nonpayable",
      "type": "function"
    },
    {
      "inputs": [],
      "name": "owner",
      "outputs": [
        {
          "internalType": "address",
          "name": "",
          "type": "address"
        }
      ],
      "stateMutability": "view",
      "type": "function"
    },
    {
      "inputs": [],
      "name": "renounceOwnership",
      "outputs": [],
      "stateMutability": "nonpayable",
      "type": "function"
    },
    {
      "inputs": [
        {
          "internalType": "contract HenToken",
          "name": "henToken",
          "type": "address"
        }
      ],
      "name": "setHenToken",
      "outputs": [],
      "stateMutability": "nonpayable",
      "type": "function"
    },
    {
      "inputs": [
        {
          "internalType": "address",
          "name": "newOwner",
          "type": "address"
        }
      ],
      "name": "transferOwnership",
      "outputs": [],
      "stateMutability": "nonpayable",
      "type": "function"
    }
  ],
  "bytecode": "0x608060405234801561001057600080fd5b506109c7806100206000396000f3fe608060405234801561001057600080fd5b50600436106100935760003560e01c8063a1d515c311610066578063a1d515c314610140578063aab13f1a14610153578063ab02811f14610166578063d87deea814610177578063f2fde38b1461018c57600080fd5b8063715018a6146100985780638129fc1c146100a25780638da5cb5b146100aa5780639d66a9cd146100d4575b600080fd5b6100a061019f565b005b6100a06101de565b6033546001600160a01b03165b6040516001600160a01b0390911681526020015b60405180910390f35b6101336100e23660046107ca565b604080516060808201835260008083526020808401829052928401819052938452609982529282902082519384018352805484526001015460ff808216928501929092526101009004169082015290565b6040516100cb9190610902565b6100a061014e3660046107a7565b61025a565b6100a06101613660046107e2565b6102a6565b6098546001600160a01b03166100b7565b61017f610381565b6040516100cb9190610814565b6100a061019a3660046107a7565b61050a565b6033546001600160a01b031633146101d25760405162461bcd60e51b81526004016101c9906108cd565b60405180910390fd5b6101dc600061059e565b565b600054610100900460ff16806101f7575060005460ff16155b6102135760405162461bcd60e51b81526004016101c99061087f565b600054610100900460ff16158015610235576000805461ffff19166101011790555b61023d6105f0565b610245610657565b8015610257576000805461ff00191690555b50565b6033546001600160a01b031633146102845760405162461bcd60e51b81526004016101c9906108cd565b609880546001600160a01b0319166001600160a01b0392909216919091179055565b6033546001600160a01b031633146102d05760405162461bcd60e51b81526004016101c9906108cd565b6102de609780546001019055565b60006102e960975490565b6040805160608101825282815260ff868116602080840182815288841685870181815260008981526099855288902096518755915160019096018054925186166101000261ffff1990931696909516959095171790925583519081529081019190915291925082917f1dc6adc87151f33e5ba5f51b502b7915daf96179e5de548d1c891f0b6d624e48910160405180910390a2505050565b6060600061038e60975490565b9050806103df5760408051600080825260208201909252906103d8565b60408051606081018252600080825260208083018290529282015282526000199092019101816103ab5790505b5091505090565b60008167ffffffffffffffff81111561040857634e487b7160e01b600052604160045260246000fd5b60405190808252806020026020018201604052801561045357816020015b60408051606081018252600080825260208083018290529282015282526000199092019101816104265790505b5090506000805b8381101561050157600061046f826001610933565b600081815260996020908152604091829020825160608101845281548152600182015460ff80821694830194909452610100900490921692820192909252865192935090918690869081106104d457634e487b7160e01b600052603260045260246000fd5b60209081029190910101526104ea600185610933565b9350505080806104f99061094b565b91505061045a565b50909392505050565b6033546001600160a01b031633146105345760405162461bcd60e51b81526004016101c9906108cd565b6001600160a01b0381166105995760405162461bcd60e51b815260206004820152602660248201527f4f776e61626c653a206e6577206f776e657220697320746865207a65726f206160448201526564647265737360d01b60648201526084016101c9565b610257815b603380546001600160a01b038381166001600160a01b0319831681179093556040519116919082907f8be0079c531659141344cd1fd0a4f28419497f9722a3daafe3b4186f6b6457e090600090a35050565b600054610100900460ff1680610609575060005460ff16155b6106255760405162461bcd60e51b81526004016101c99061087f565b600054610100900460ff16158015610647576000805461ffff19166101011790555b61064f6106c7565b610245610731565b600054610100900460ff1680610670575060005460ff16155b61068c5760405162461bcd60e51b81526004016101c99061087f565b600054610100900460ff161580156106ae576000805461ffff19166101011790555b60016065558015610257576000805461ff001916905550565b600054610100900460ff16806106e0575060005460ff16155b6106fc5760405162461bcd60e51b81526004016101c99061087f565b600054610100900460ff16158015610245576000805461ffff19166101011790558015610257576000805461ff001916905550565b600054610100900460ff168061074a575060005460ff16155b6107665760405162461bcd60e51b81526004016101c99061087f565b600054610100900460ff16158015610788576000805461ffff19166101011790555b6102453361059e565b803560ff811681146107a257600080fd5b919050565b6000602082840312156107b8578081fd5b81356107c38161097c565b9392505050565b6000602082840312156107db578081fd5b5035919050565b600080604083850312156107f4578081fd5b6107fd83610791565b915061080b60208401610791565b90509250929050565b6020808252825182820181905260009190848201906040850190845b81811015610873576108608385518051825260ff602082015116602083015260ff60408201511660408301525050565b9284019260609290920191600101610830565b50909695505050505050565b6020808252602e908201527f496e697469616c697a61626c653a20636f6e747261637420697320616c72656160408201526d191e481a5b9a5d1a585b1a5e995960921b606082015260800190565b6020808252818101527f4f776e61626c653a2063616c6c6572206973206e6f7420746865206f776e6572604082015260600190565b6060810161092d82848051825260ff602082015116602083015260ff60408201511660408301525050565b92915050565b6000821982111561094657610946610966565b500190565b600060001982141561095f5761095f610966565b5060010190565b634e487b7160e01b600052601160045260246000fd5b6001600160a01b038116811461025757600080fdfea2646970667358221220b8a6723016b14c96943e2b0b2fd351706c68c78b1d651f7b3c7794d91c5c215d64736f6c63430008040033",
  "linkReferences": {},
  "deployedLinkReferences": {}
}