{
  "_format": "hh-sol-artifact-1",
  "contractName": "HenHouse",
  "sourceName": "contracts/HenHouse.sol",
  "abi": [
    {
      "anonymous": false,
      "inputs": [
        {
          "indexed": true,
          "internalType": "address",
          "name": "owner",
          "type": "address"
        },
        {
          "indexed": true,
          "internalType": "address",
          "name": "spender",
          "type": "address"
        },
        {
          "indexed": false,
          "internalType": "uint256",
          "name": "value",
          "type": "uint256"
        }
      ],
      "name": "Approval",
      "type": "event"
    },
    {
      "anonymous": false,
      "inputs": [
        {
          "indexed": true,
          "internalType": "address",
          "name": "previousOwner",
          "type": "address"
        },
        {
          "indexed": true,
          "internalType": "address",
          "name": "newOwner",
          "type": "address"
        }
      ],
      "name": "OwnershipTransferred",
      "type": "event"
    },
    {
      "anonymous": false,
      "inputs": [
        {
          "indexed": true,
          "internalType": "address",
          "name": "from",
          "type": "address"
        },
        {
          "indexed": true,
          "internalType": "address",
          "name": "to",
          "type": "address"
        },
        {
          "indexed": false,
          "internalType": "uint256",
          "name": "value",
          "type": "uint256"
        }
      ],
      "name": "Transfer",
      "type": "event"
    },
    {
      "inputs": [
        {
          "internalType": "address",
          "name": "owner",
          "type": "address"
        },
        {
          "internalType": "address",
          "name": "spender",
          "type": "address"
        }
      ],
      "name": "allowance",
      "outputs": [
        {
          "internalType": "uint256",
          "name": "",
          "type": "uint256"
        }
      ],
      "stateMutability": "view",
      "type": "function"
    },
    {
      "inputs": [
        {
          "internalType": "address",
          "name": "spender",
          "type": "address"
        },
        {
          "internalType": "uint256",
          "name": "amount",
          "type": "uint256"
        }
      ],
      "name": "approve",
      "outputs": [
        {
          "internalType": "bool",
          "name": "",
          "type": "bool"
        }
      ],
      "stateMutability": "nonpayable",
      "type": "function"
    },
    {
      "inputs": [
        {
          "internalType": "address",
          "name": "account",
          "type": "address"
        }
      ],
      "name": "balanceOf",
      "outputs": [
        {
          "internalType": "uint256",
          "name": "",
          "type": "uint256"
        }
      ],
      "stateMutability": "view",
      "type": "function"
    },
    {
      "inputs": [
        {
          "internalType": "uint256",
          "name": "amount",
          "type": "uint256"
        }
      ],
      "name": "burn",
      "outputs": [],
      "stateMutability": "nonpayable",
      "type": "function"
    },
    {
      "inputs": [
        {
          "internalType": "address",
          "name": "account",
          "type": "address"
        },
        {
          "internalType": "uint256",
          "name": "amount",
          "type": "uint256"
        }
      ],
      "name": "burnFrom",
      "outputs": [],
      "stateMutability": "nonpayable",
      "type": "function"
    },
    {
      "inputs": [],
      "name": "decimals",
      "outputs": [
        {
          "internalType": "uint8",
          "name": "",
          "type": "uint8"
        }
      ],
      "stateMutability": "view",
      "type": "function"
    },
    {
      "inputs": [
        {
          "internalType": "address",
          "name": "spender",
          "type": "address"
        },
        {
          "internalType": "uint256",
          "name": "subtractedValue",
          "type": "uint256"
        }
      ],
      "name": "decreaseAllowance",
      "outputs": [
        {
          "internalType": "bool",
          "name": "",
          "type": "bool"
        }
      ],
      "stateMutability": "nonpayable",
      "type": "function"
    },
    {
      "inputs": [
        {
          "internalType": "address",
          "name": "spender",
          "type": "address"
        },
        {
          "internalType": "uint256",
          "name": "addedValue",
          "type": "uint256"
        }
      ],
      "name": "increaseAllowance",
      "outputs": [
        {
          "internalType": "bool",
          "name": "",
          "type": "bool"
        }
      ],
      "stateMutability": "nonpayable",
      "type": "function"
    },
    {
      "inputs": [],
      "name": "initialize",
      "outputs": [],
      "stateMutability": "nonpayable",
      "type": "function"
    },
    {
      "inputs": [
        {
          "internalType": "address",
          "name": "to",
          "type": "address"
        },
        {
          "internalType": "uint256",
          "name": "amount",
          "type": "uint256"
        }
      ],
      "name": "mint",
      "outputs": [],
      "stateMutability": "nonpayable",
      "type": "function"
    },
    {
      "inputs": [],
      "name": "name",
      "outputs": [
        {
          "internalType": "string",
          "name": "",
          "type": "string"
        }
      ],
      "stateMutability": "view",
      "type": "function"
    },
    {
      "inputs": [],
      "name": "owner",
      "outputs": [
        {
          "internalType": "address",
          "name": "",
          "type": "address"
        }
      ],
      "stateMutability": "view",
      "type": "function"
    },
    {
      "inputs": [],
      "name": "renounceOwnership",
      "outputs": [],
      "stateMutability": "nonpayable",
      "type": "function"
    },
    {
      "inputs": [
        {
          "internalType": "address",
          "name": "from",
          "type": "address"
        },
        {
          "internalType": "uint256",
          "name": "value",
          "type": "uint256"
        }
      ],
      "name": "spend",
      "outputs": [
        {
          "internalType": "bool",
          "name": "",
          "type": "bool"
        }
      ],
      "stateMutability": "nonpayable",
      "type": "function"
    },
    {
      "inputs": [],
      "name": "symbol",
      "outputs": [
        {
          "internalType": "string",
          "name": "",
          "type": "string"
        }
      ],
      "stateMutability": "view",
      "type": "function"
    },
    {
      "inputs": [],
      "name": "totalSupply",
      "outputs": [
        {
          "internalType": "uint256",
          "name": "",
          "type": "uint256"
        }
      ],
      "stateMutability": "view",
      "type": "function"
    },
    {
      "inputs": [
        {
          "internalType": "address",
          "name": "recipient",
          "type": "address"
        },
        {
          "internalType": "uint256",
          "name": "amount",
          "type": "uint256"
        }
      ],
      "name": "transfer",
      "outputs": [
        {
          "internalType": "bool",
          "name": "",
          "type": "bool"
        }
      ],
      "stateMutability": "nonpayable",
      "type": "function"
    },
    {
      "inputs": [
        {
          "internalType": "address",
          "name": "sender",
          "type": "address"
        },
        {
          "internalType": "address",
          "name": "recipient",
          "type": "address"
        },
        {
          "internalType": "uint256",
          "name": "amount",
          "type": "uint256"
        }
      ],
      "name": "transferFrom",
      "outputs": [
        {
          "internalType": "bool",
          "name": "",
          "type": "bool"
        }
      ],
      "stateMutability": "nonpayable",
      "type": "function"
    },
    {
      "inputs": [
        {
          "internalType": "address",
          "name": "newOwner",
          "type": "address"
        }
      ],
      "name": "transferOwnership",
      "outputs": [],
      "stateMutability": "nonpayable",
      "type": "function"
    }
  ],
  "bytecode": "0x608060405234801561001057600080fd5b506112a6806100206000396000f3fe608060405234801561001057600080fd5b50600436106101215760003560e01c8063715018a6116100ad578063a457c2d711610071578063a457c2d714610245578063a9059cbb14610258578063af7d6ca31461026b578063dd62ed3e1461027e578063f2fde38b146102b757600080fd5b8063715018a6146101ff57806379cc6790146102075780638129fc1c1461021a5780638da5cb5b1461022257806395d89b411461023d57600080fd5b8063313ce567116100f4578063313ce5671461018c578063395093511461019b57806340c10f19146101ae57806342966c68146101c357806370a08231146101d657600080fd5b806306fdde0314610126578063095ea7b31461014457806318160ddd1461016757806323b872dd14610179575b600080fd5b61012e6102ca565b60405161013b919061111a565b60405180910390f35b6101576101523660046110d9565b61035c565b604051901515815260200161013b565b6035545b60405190815260200161013b565b61015761018736600461109e565b610372565b6040516012815260200161013b565b6101576101a93660046110d9565b610421565b6101c16101bc3660046110d9565b61045d565b005b6101c16101d1366004611102565b610495565b61016b6101e436600461104b565b6001600160a01b031660009081526033602052604090205490565b6101c16104a2565b6101c16102153660046110d9565b6104d8565b6101c161055e565b6097546040516001600160a01b03909116815260200161013b565b61012e61061f565b6101576102533660046110d9565b61062e565b6101576102663660046110d9565b6106c7565b6101576102793660046110d9565b6106d4565b61016b61028c36600461106c565b6001600160a01b03918216600090815260346020908152604080832093909416825291909152205490565b6101c16102c536600461104b565b6106e0565b6060603680546102d99061121f565b80601f01602080910402602001604051908101604052809291908181526020018280546103059061121f565b80156103525780601f1061032757610100808354040283529160200191610352565b820191906000526020600020905b81548152906001019060200180831161033557829003601f168201915b5050505050905090565b6000610369338484610778565b50600192915050565b600061037f84848461089c565b6001600160a01b0384166000908152603460209081526040808320338452909152902054828110156104095760405162461bcd60e51b815260206004820152602860248201527f45524332303a207472616e7366657220616d6f756e74206578636565647320616044820152676c6c6f77616e636560c01b60648201526084015b60405180910390fd5b6104168533858403610778565b506001949350505050565b3360008181526034602090815260408083206001600160a01b038716845290915281205490916103699185906104589086906111f0565b610778565b6097546001600160a01b031633146104875760405162461bcd60e51b8152600401610400906111bb565b6104918282610a6b565b5050565b61049f3382610b4a565b50565b6097546001600160a01b031633146104cc5760405162461bcd60e51b8152600401610400906111bb565b6104d66000610c98565b565b60006104e4833361028c565b9050818110156105425760405162461bcd60e51b8152602060048201526024808201527f45524332303a206275726e20616d6f756e74206578636565647320616c6c6f77604482015263616e636560e01b6064820152608401610400565b61054f8333848403610778565b6105598383610b4a565b505050565b600054610100900460ff1680610577575060005460ff16155b6105935760405162461bcd60e51b81526004016104009061116d565b600054610100900460ff161580156105b5576000805461ffff19166101011790555b6105fb6040518060400160405280600981526020016848656e20486f75736560b81b815250604051806040016040528060038152602001622422a760e91b815250610cea565b610603610d69565b61060b610dd0565b801561049f576000805461ff001916905550565b6060603780546102d99061121f565b3360009081526034602090815260408083206001600160a01b0386168452909152812054828110156106b05760405162461bcd60e51b815260206004820152602560248201527f45524332303a2064656372656173656420616c6c6f77616e63652062656c6f77604482015264207a65726f60d81b6064820152608401610400565b6106bd3385858403610778565b5060019392505050565b600061036933848461089c565b60006103698383610b4a565b6097546001600160a01b0316331461070a5760405162461bcd60e51b8152600401610400906111bb565b6001600160a01b03811661076f5760405162461bcd60e51b815260206004820152602660248201527f4f776e61626c653a206e6577206f776e657220697320746865207a65726f206160448201526564647265737360d01b6064820152608401610400565b61049f81610c98565b6001600160a01b0383166107da5760405162461bcd60e51b8152602060048201526024808201527f45524332303a20617070726f76652066726f6d20746865207a65726f206164646044820152637265737360e01b6064820152608401610400565b6001600160a01b03821661083b5760405162461bcd60e51b815260206004820152602260248201527f45524332303a20617070726f766520746f20746865207a65726f206164647265604482015261737360f01b6064820152608401610400565b6001600160a01b0383811660008181526034602090815260408083209487168084529482529182902085905590518481527f8c5be1e5ebec7d5bd14f71427d1e84f3dd0314c0f7b2291e5b200ac8c7c3b925910160405180910390a3505050565b6001600160a01b0383166109005760405162461bcd60e51b815260206004820152602560248201527f45524332303a207472616e736665722066726f6d20746865207a65726f206164604482015264647265737360d81b6064820152608401610400565b6001600160a01b0382166109625760405162461bcd60e51b815260206004820152602360248201527f45524332303a207472616e7366657220746f20746865207a65726f206164647260448201526265737360e81b6064820152608401610400565b6001600160a01b038316600090815260336020526040902054818110156109da5760405162461bcd60e51b815260206004820152602660248201527f45524332303a207472616e7366657220616d6f756e7420657863656564732062604482015265616c616e636560d01b6064820152608401610400565b6001600160a01b03808516600090815260336020526040808220858503905591851681529081208054849290610a119084906111f0565b92505081905550826001600160a01b0316846001600160a01b03167fddf252ad1be2c89b69c2b068fc378daa952ba7f163c4a11628f55a4df523b3ef84604051610a5d91815260200190565b60405180910390a350505050565b6001600160a01b038216610ac15760405162461bcd60e51b815260206004820152601f60248201527f45524332303a206d696e7420746f20746865207a65726f2061646472657373006044820152606401610400565b8060356000828254610ad391906111f0565b90915550506001600160a01b03821660009081526033602052604081208054839290610b009084906111f0565b90915550506040518181526001600160a01b038316906000907fddf252ad1be2c89b69c2b068fc378daa952ba7f163c4a11628f55a4df523b3ef9060200160405180910390a35050565b6001600160a01b038216610baa5760405162461bcd60e51b815260206004820152602160248201527f45524332303a206275726e2066726f6d20746865207a65726f206164647265736044820152607360f81b6064820152608401610400565b6001600160a01b03821660009081526033602052604090205481811015610c1e5760405162461bcd60e51b815260206004820152602260248201527f45524332303a206275726e20616d6f756e7420657863656564732062616c616e604482015261636560f01b6064820152608401610400565b6001600160a01b0383166000908152603360205260408120838303905560358054849290610c4d908490611208565b90915550506040518281526000906001600160a01b038516907fddf252ad1be2c89b69c2b068fc378daa952ba7f163c4a11628f55a4df523b3ef9060200160405180910390a3505050565b609780546001600160a01b038381166001600160a01b0319831681179093556040519116919082907f8be0079c531659141344cd1fd0a4f28419497f9722a3daafe3b4186f6b6457e090600090a35050565b600054610100900460ff1680610d03575060005460ff16155b610d1f5760405162461bcd60e51b81526004016104009061116d565b600054610100900460ff16158015610d41576000805461ffff19166101011790555b610d49610e37565b610d538383610ea1565b8015610559576000805461ff0019169055505050565b600054610100900460ff1680610d82575060005460ff16155b610d9e5760405162461bcd60e51b81526004016104009061116d565b600054610100900460ff16158015610dc0576000805461ffff19166101011790555b610dc8610e37565b61060b610e37565b600054610100900460ff1680610de9575060005460ff16155b610e055760405162461bcd60e51b81526004016104009061116d565b600054610100900460ff16158015610e27576000805461ffff19166101011790555b610e2f610e37565b61060b610f36565b600054610100900460ff1680610e50575060005460ff16155b610e6c5760405162461bcd60e51b81526004016104009061116d565b600054610100900460ff1615801561060b576000805461ffff1916610101179055801561049f576000805461ff001916905550565b600054610100900460ff1680610eba575060005460ff16155b610ed65760405162461bcd60e51b81526004016104009061116d565b600054610100900460ff16158015610ef8576000805461ffff19166101011790555b8251610f0b906036906020860190610f96565b508151610f1f906037906020850190610f96565b508015610559576000805461ff0019169055505050565b600054610100900460ff1680610f4f575060005460ff16155b610f6b5760405162461bcd60e51b81526004016104009061116d565b600054610100900460ff16158015610f8d576000805461ffff19166101011790555b61060b33610c98565b828054610fa29061121f565b90600052602060002090601f016020900481019282610fc4576000855561100a565b82601f10610fdd57805160ff191683800117855561100a565b8280016001018555821561100a579182015b8281111561100a578251825591602001919060010190610fef565b5061101692915061101a565b5090565b5b80821115611016576000815560010161101b565b80356001600160a01b038116811461104657600080fd5b919050565b60006020828403121561105c578081fd5b6110658261102f565b9392505050565b6000806040838503121561107e578081fd5b6110878361102f565b91506110956020840161102f565b90509250929050565b6000806000606084860312156110b2578081fd5b6110bb8461102f565b92506110c96020850161102f565b9150604084013590509250925092565b600080604083850312156110eb578182fd5b6110f48361102f565b946020939093013593505050565b600060208284031215611113578081fd5b5035919050565b6000602080835283518082850152825b818110156111465785810183015185820160400152820161112a565b818111156111575783604083870101525b50601f01601f1916929092016040019392505050565b6020808252602e908201527f496e697469616c697a61626c653a20636f6e747261637420697320616c72656160408201526d191e481a5b9a5d1a585b1a5e995960921b606082015260800190565b6020808252818101527f4f776e61626c653a2063616c6c6572206973206e6f7420746865206f776e6572604082015260600190565b600082198211156112035761120361125a565b500190565b60008282101561121a5761121a61125a565b500390565b600181811c9082168061123357607f821691505b6020821081141561125457634e487b7160e01b600052602260045260246000fd5b50919050565b634e487b7160e01b600052601160045260246000fdfea26469706673582212202452f774dc99417923fe903a4c7ede2969b6caaaeec8af03780cc38111a23ae264736f6c63430008040033",
  "linkReferences": {},
  "deployedLinkReferences": {}
}