{
  "_format": "hh-sol-artifact-1",
  "contractName": "HenHouse",
  "sourceName": "contracts/HenHouse.sol",
  "abi": [
    {
      "anonymous": false,
      "inputs": [
        {
          "indexed": true,
          "internalType": "address",
          "name": "owner",
          "type": "address"
        },
        {
          "indexed": true,
          "internalType": "address",
          "name": "spender",
          "type": "address"
        },
        {
          "indexed": false,
          "internalType": "uint256",
          "name": "value",
          "type": "uint256"
        }
      ],
      "name": "Approval",
      "type": "event"
    },
    {
      "anonymous": false,
      "inputs": [
        {
          "indexed": true,
          "internalType": "bytes32",
          "name": "role",
          "type": "bytes32"
        },
        {
          "indexed": true,
          "internalType": "bytes32",
          "name": "previousAdminRole",
          "type": "bytes32"
        },
        {
          "indexed": true,
          "internalType": "bytes32",
          "name": "newAdminRole",
          "type": "bytes32"
        }
      ],
      "name": "RoleAdminChanged",
      "type": "event"
    },
    {
      "anonymous": false,
      "inputs": [
        {
          "indexed": true,
          "internalType": "bytes32",
          "name": "role",
          "type": "bytes32"
        },
        {
          "indexed": true,
          "internalType": "address",
          "name": "account",
          "type": "address"
        },
        {
          "indexed": true,
          "internalType": "address",
          "name": "sender",
          "type": "address"
        }
      ],
      "name": "RoleGranted",
      "type": "event"
    },
    {
      "anonymous": false,
      "inputs": [
        {
          "indexed": true,
          "internalType": "bytes32",
          "name": "role",
          "type": "bytes32"
        },
        {
          "indexed": true,
          "internalType": "address",
          "name": "account",
          "type": "address"
        },
        {
          "indexed": true,
          "internalType": "address",
          "name": "sender",
          "type": "address"
        }
      ],
      "name": "RoleRevoked",
      "type": "event"
    },
    {
      "anonymous": false,
      "inputs": [
        {
          "indexed": true,
          "internalType": "address",
          "name": "from",
          "type": "address"
        },
        {
          "indexed": true,
          "internalType": "address",
          "name": "to",
          "type": "address"
        },
        {
          "indexed": false,
          "internalType": "uint256",
          "name": "value",
          "type": "uint256"
        }
      ],
      "name": "Transfer",
      "type": "event"
    },
    {
      "inputs": [],
      "name": "DEFAULT_ADMIN_ROLE",
      "outputs": [
        {
          "internalType": "bytes32",
          "name": "",
          "type": "bytes32"
        }
      ],
      "stateMutability": "view",
      "type": "function"
    },
    {
      "inputs": [],
      "name": "MINTER_ROLE",
      "outputs": [
        {
          "internalType": "bytes32",
          "name": "",
          "type": "bytes32"
        }
      ],
      "stateMutability": "view",
      "type": "function"
    },
    {
      "inputs": [
        {
          "internalType": "address",
          "name": "owner",
          "type": "address"
        },
        {
          "internalType": "address",
          "name": "spender",
          "type": "address"
        }
      ],
      "name": "allowance",
      "outputs": [
        {
          "internalType": "uint256",
          "name": "",
          "type": "uint256"
        }
      ],
      "stateMutability": "view",
      "type": "function"
    },
    {
      "inputs": [
        {
          "internalType": "address",
          "name": "spender",
          "type": "address"
        },
        {
          "internalType": "uint256",
          "name": "amount",
          "type": "uint256"
        }
      ],
      "name": "approve",
      "outputs": [
        {
          "internalType": "bool",
          "name": "",
          "type": "bool"
        }
      ],
      "stateMutability": "nonpayable",
      "type": "function"
    },
    {
      "inputs": [
        {
          "internalType": "address",
          "name": "account",
          "type": "address"
        }
      ],
      "name": "balanceOf",
      "outputs": [
        {
          "internalType": "uint256",
          "name": "",
          "type": "uint256"
        }
      ],
      "stateMutability": "view",
      "type": "function"
    },
    {
      "inputs": [
        {
          "internalType": "uint256",
          "name": "amount",
          "type": "uint256"
        }
      ],
      "name": "burn",
      "outputs": [],
      "stateMutability": "nonpayable",
      "type": "function"
    },
    {
      "inputs": [
        {
          "internalType": "address",
          "name": "account",
          "type": "address"
        },
        {
          "internalType": "uint256",
          "name": "amount",
          "type": "uint256"
        }
      ],
      "name": "burnFrom",
      "outputs": [],
      "stateMutability": "nonpayable",
      "type": "function"
    },
    {
      "inputs": [],
      "name": "decimals",
      "outputs": [
        {
          "internalType": "uint8",
          "name": "",
          "type": "uint8"
        }
      ],
      "stateMutability": "view",
      "type": "function"
    },
    {
      "inputs": [
        {
          "internalType": "address",
          "name": "spender",
          "type": "address"
        },
        {
          "internalType": "uint256",
          "name": "subtractedValue",
          "type": "uint256"
        }
      ],
      "name": "decreaseAllowance",
      "outputs": [
        {
          "internalType": "bool",
          "name": "",
          "type": "bool"
        }
      ],
      "stateMutability": "nonpayable",
      "type": "function"
    },
    {
      "inputs": [
        {
          "internalType": "bytes32",
          "name": "role",
          "type": "bytes32"
        }
      ],
      "name": "getRoleAdmin",
      "outputs": [
        {
          "internalType": "bytes32",
          "name": "",
          "type": "bytes32"
        }
      ],
      "stateMutability": "view",
      "type": "function"
    },
    {
      "inputs": [
        {
          "internalType": "bytes32",
          "name": "role",
          "type": "bytes32"
        },
        {
          "internalType": "address",
          "name": "account",
          "type": "address"
        }
      ],
      "name": "grantRole",
      "outputs": [],
      "stateMutability": "nonpayable",
      "type": "function"
    },
    {
      "inputs": [
        {
          "internalType": "address",
          "name": "to",
          "type": "address"
        },
        {
          "internalType": "bytes32",
          "name": "role",
          "type": "bytes32"
        }
      ],
      "name": "grantRole",
      "outputs": [],
      "stateMutability": "nonpayable",
      "type": "function"
    },
    {
      "inputs": [
        {
          "internalType": "bytes32",
          "name": "role",
          "type": "bytes32"
        },
        {
          "internalType": "address",
          "name": "account",
          "type": "address"
        }
      ],
      "name": "hasRole",
      "outputs": [
        {
          "internalType": "bool",
          "name": "",
          "type": "bool"
        }
      ],
      "stateMutability": "view",
      "type": "function"
    },
    {
      "inputs": [
        {
          "internalType": "address",
          "name": "spender",
          "type": "address"
        },
        {
          "internalType": "uint256",
          "name": "addedValue",
          "type": "uint256"
        }
      ],
      "name": "increaseAllowance",
      "outputs": [
        {
          "internalType": "bool",
          "name": "",
          "type": "bool"
        }
      ],
      "stateMutability": "nonpayable",
      "type": "function"
    },
    {
      "inputs": [],
      "name": "initialize",
      "outputs": [],
      "stateMutability": "nonpayable",
      "type": "function"
    },
    {
      "inputs": [
        {
          "internalType": "address",
          "name": "to",
          "type": "address"
        },
        {
          "internalType": "uint256",
          "name": "amount",
          "type": "uint256"
        }
      ],
      "name": "mint",
      "outputs": [],
      "stateMutability": "nonpayable",
      "type": "function"
    },
    {
      "inputs": [],
      "name": "name",
      "outputs": [
        {
          "internalType": "string",
          "name": "",
          "type": "string"
        }
      ],
      "stateMutability": "view",
      "type": "function"
    },
    {
      "inputs": [
        {
          "internalType": "bytes32",
          "name": "role",
          "type": "bytes32"
        },
        {
          "internalType": "address",
          "name": "account",
          "type": "address"
        }
      ],
      "name": "renounceRole",
      "outputs": [],
      "stateMutability": "nonpayable",
      "type": "function"
    },
    {
      "inputs": [
        {
          "internalType": "bytes32",
          "name": "role",
          "type": "bytes32"
        },
        {
          "internalType": "address",
          "name": "account",
          "type": "address"
        }
      ],
      "name": "revokeRole",
      "outputs": [],
      "stateMutability": "nonpayable",
      "type": "function"
    },
    {
      "inputs": [
        {
          "internalType": "address",
          "name": "from",
          "type": "address"
        },
        {
          "internalType": "uint256",
          "name": "value",
          "type": "uint256"
        }
      ],
      "name": "spend",
      "outputs": [
        {
          "internalType": "bool",
          "name": "",
          "type": "bool"
        }
      ],
      "stateMutability": "nonpayable",
      "type": "function"
    },
    {
      "inputs": [
        {
          "internalType": "bytes4",
          "name": "interfaceId",
          "type": "bytes4"
        }
      ],
      "name": "supportsInterface",
      "outputs": [
        {
          "internalType": "bool",
          "name": "",
          "type": "bool"
        }
      ],
      "stateMutability": "view",
      "type": "function"
    },
    {
      "inputs": [],
      "name": "symbol",
      "outputs": [
        {
          "internalType": "string",
          "name": "",
          "type": "string"
        }
      ],
      "stateMutability": "view",
      "type": "function"
    },
    {
      "inputs": [],
      "name": "totalSupply",
      "outputs": [
        {
          "internalType": "uint256",
          "name": "",
          "type": "uint256"
        }
      ],
      "stateMutability": "view",
      "type": "function"
    },
    {
      "inputs": [
        {
          "internalType": "address",
          "name": "recipient",
          "type": "address"
        },
        {
          "internalType": "uint256",
          "name": "amount",
          "type": "uint256"
        }
      ],
      "name": "transfer",
      "outputs": [
        {
          "internalType": "bool",
          "name": "",
          "type": "bool"
        }
      ],
      "stateMutability": "nonpayable",
      "type": "function"
    },
    {
      "inputs": [
        {
          "internalType": "address",
          "name": "sender",
          "type": "address"
        },
        {
          "internalType": "address",
          "name": "recipient",
          "type": "address"
        },
        {
          "internalType": "uint256",
          "name": "amount",
          "type": "uint256"
        }
      ],
      "name": "transferFrom",
      "outputs": [
        {
          "internalType": "bool",
          "name": "",
          "type": "bool"
        }
      ],
      "stateMutability": "nonpayable",
      "type": "function"
    }
  ],
  "bytecode": "0x608060405234801561001057600080fd5b5061176e806100206000396000f3fe608060405234801561001057600080fd5b50600436106101735760003560e01c806370a08231116100de578063a457c2d711610097578063af7d6ca311610071578063af7d6ca314610320578063d539139314610333578063d547741f1461035a578063dd62ed3e1461036d57600080fd5b8063a457c2d7146102e7578063a9059cbb146102fa578063ab2742dc1461030d57600080fd5b806370a082311461028057806379cc6790146102a95780638129fc1c146102bc57806391d14854146102c457806395d89b41146102d7578063a217fddf146102df57600080fd5b80632f2ff15d116101305780632f2ff15d14610210578063313ce5671461022557806336568abe14610234578063395093511461024757806340c10f191461025a57806342966c681461026d57600080fd5b806301ffc9a71461017857806306fdde03146101a0578063095ea7b3146101b557806318160ddd146101c857806323b872dd146101da578063248a9ca3146101ed575b600080fd5b61018b610186366004611538565b6103a6565b60405190151581526020015b60405180910390f35b6101a86103dd565b60405161019791906115d5565b61018b6101c33660046114d5565b61046f565b6035545b604051908152602001610197565b61018b6101e836600461149a565b610485565b6101cc6101fb3660046114fe565b600090815260c9602052604090206001015490565b61022361021e366004611516565b610534565b005b60405160128152602001610197565b610223610242366004611516565b61055f565b61018b6102553660046114d5565b6105dd565b6102236102683660046114d5565b610619565b61022361027b3660046114fe565b61064e565b6101cc61028e36600461144e565b6001600160a01b031660009081526033602052604090205490565b6102236102b73660046114d5565b61065b565b6102236106dc565b61018b6102d2366004611516565b6107d2565b6101a86107fd565b6101cc600081565b61018b6102f53660046114d5565b61080c565b61018b6103083660046114d5565b6108a5565b61022361031b3660046114d5565b6108b2565b61018b61032e3660046114d5565b6108c8565b6101cc7f9f2df0fed2c77648de5860a4cc508cd0818c85b8b8a1ab4ceeef8d981c8956a681565b610223610368366004611516565b6108d4565b6101cc61037b366004611468565b6001600160a01b03918216600090815260346020908152604080832093909416825291909152205490565b60006001600160e01b03198216637965db0b60e01b14806103d757506301ffc9a760e01b6001600160e01b03198316145b92915050565b6060603680546103ec906116e7565b80601f0160208091040260200160405190810160405280929190818152602001828054610418906116e7565b80156104655780601f1061043a57610100808354040283529160200191610465565b820191906000526020600020905b81548152906001019060200180831161044857829003601f168201915b5050505050905090565b600061047c3384846108fa565b50600192915050565b6000610492848484610a1e565b6001600160a01b03841660009081526034602090815260408083203384529091529020548281101561051c5760405162461bcd60e51b815260206004820152602860248201527f45524332303a207472616e7366657220616d6f756e74206578636565647320616044820152676c6c6f77616e636560c01b60648201526084015b60405180910390fd5b61052985338584036108fa565b506001949350505050565b600082815260c960205260409020600101546105508133610bee565b61055a8383610c52565b505050565b6001600160a01b03811633146105cf5760405162461bcd60e51b815260206004820152602f60248201527f416363657373436f6e74726f6c3a2063616e206f6e6c792072656e6f756e636560448201526e103937b632b9903337b91039b2b63360891b6064820152608401610513565b6105d98282610cd8565b5050565b3360008181526034602090815260408083206001600160a01b0387168452909152812054909161047c918590610614908690611656565b6108fa565b7f9f2df0fed2c77648de5860a4cc508cd0818c85b8b8a1ab4ceeef8d981c8956a66106448133610bee565b61055a8383610d3f565b6106583382610e1e565b50565b6000610667833361037b565b9050818110156106c55760405162461bcd60e51b8152602060048201526024808201527f45524332303a206275726e20616d6f756e74206578636565647320616c6c6f77604482015263616e636560e01b6064820152608401610513565b6106d283338484036108fa565b61055a8383610e1e565b600054610100900460ff16806106f5575060005460ff16155b6107115760405162461bcd60e51b815260040161051390611608565b600054610100900460ff16158015610733576000805461ffff19166101011790555b6107796040518060400160405280600981526020016848656e20486f75736560b81b815250604051806040016040528060038152602001622422a760e91b815250610f6c565b610781610feb565b610789611052565b610794600033610c52565b6107be7f9f2df0fed2c77648de5860a4cc508cd0818c85b8b8a1ab4ceeef8d981c8956a633610c52565b8015610658576000805461ff001916905550565b600091825260c9602090815260408084206001600160a01b0393909316845291905290205460ff1690565b6060603780546103ec906116e7565b3360009081526034602090815260408083206001600160a01b03861684529091528120548281101561088e5760405162461bcd60e51b815260206004820152602560248201527f45524332303a2064656372656173656420616c6c6f77616e63652062656c6f77604482015264207a65726f60d81b6064820152608401610513565b61089b33858584036108fa565b5060019392505050565b600061047c338484610a1e565b60006108be8133610bee565b61055a8284610c52565b600061047c8383610e1e565b600082815260c960205260409020600101546108f08133610bee565b61055a8383610cd8565b6001600160a01b03831661095c5760405162461bcd60e51b8152602060048201526024808201527f45524332303a20617070726f76652066726f6d20746865207a65726f206164646044820152637265737360e01b6064820152608401610513565b6001600160a01b0382166109bd5760405162461bcd60e51b815260206004820152602260248201527f45524332303a20617070726f766520746f20746865207a65726f206164647265604482015261737360f01b6064820152608401610513565b6001600160a01b0383811660008181526034602090815260408083209487168084529482529182902085905590518481527f8c5be1e5ebec7d5bd14f71427d1e84f3dd0314c0f7b2291e5b200ac8c7c3b925910160405180910390a3505050565b6001600160a01b038316610a825760405162461bcd60e51b815260206004820152602560248201527f45524332303a207472616e736665722066726f6d20746865207a65726f206164604482015264647265737360d81b6064820152608401610513565b6001600160a01b038216610ae45760405162461bcd60e51b815260206004820152602360248201527f45524332303a207472616e7366657220746f20746865207a65726f206164647260448201526265737360e81b6064820152608401610513565b6001600160a01b03831660009081526033602052604090205481811015610b5c5760405162461bcd60e51b815260206004820152602660248201527f45524332303a207472616e7366657220616d6f756e7420657863656564732062604482015265616c616e636560d01b6064820152608401610513565b6001600160a01b03808516600090815260336020526040808220858503905591851681529081208054849290610b93908490611656565b92505081905550826001600160a01b0316846001600160a01b03167fddf252ad1be2c89b69c2b068fc378daa952ba7f163c4a11628f55a4df523b3ef84604051610bdf91815260200190565b60405180910390a35b50505050565b610bf882826107d2565b6105d957610c10816001600160a01b031660146110b1565b610c1b8360206110b1565b604051602001610c2c929190611560565b60408051601f198184030181529082905262461bcd60e51b8252610513916004016115d5565b610c5c82826107d2565b6105d957600082815260c9602090815260408083206001600160a01b03851684529091529020805460ff19166001179055610c943390565b6001600160a01b0316816001600160a01b0316837f2f8788117e7eff1d82e926ec794901d17c78024a50270940304540a733656f0d60405160405180910390a45050565b610ce282826107d2565b156105d957600082815260c9602090815260408083206001600160a01b0385168085529252808320805460ff1916905551339285917ff6391f5c32d9c69d2a47ea670b442974b53935d1edc7fd64eb21e047a839171b9190a45050565b6001600160a01b038216610d955760405162461bcd60e51b815260206004820152601f60248201527f45524332303a206d696e7420746f20746865207a65726f2061646472657373006044820152606401610513565b8060356000828254610da79190611656565b90915550506001600160a01b03821660009081526033602052604081208054839290610dd4908490611656565b90915550506040518181526001600160a01b038316906000907fddf252ad1be2c89b69c2b068fc378daa952ba7f163c4a11628f55a4df523b3ef9060200160405180910390a35050565b6001600160a01b038216610e7e5760405162461bcd60e51b815260206004820152602160248201527f45524332303a206275726e2066726f6d20746865207a65726f206164647265736044820152607360f81b6064820152608401610513565b6001600160a01b03821660009081526033602052604090205481811015610ef25760405162461bcd60e51b815260206004820152602260248201527f45524332303a206275726e20616d6f756e7420657863656564732062616c616e604482015261636560f01b6064820152608401610513565b6001600160a01b0383166000908152603360205260408120838303905560358054849290610f2190849061168d565b90915550506040518281526000906001600160a01b038516907fddf252ad1be2c89b69c2b068fc378daa952ba7f163c4a11628f55a4df523b3ef9060200160405180910390a3505050565b600054610100900460ff1680610f85575060005460ff16155b610fa15760405162461bcd60e51b815260040161051390611608565b600054610100900460ff16158015610fc3576000805461ffff19166101011790555b610fcb61129a565b610fd58383611304565b801561055a576000805461ff0019169055505050565b600054610100900460ff1680611004575060005460ff16155b6110205760405162461bcd60e51b815260040161051390611608565b600054610100900460ff16158015611042576000805461ffff19166101011790555b61104a61129a565b6107be61129a565b600054610100900460ff168061106b575060005460ff16155b6110875760405162461bcd60e51b815260040161051390611608565b600054610100900460ff161580156110a9576000805461ffff19166101011790555b61104261129a565b606060006110c083600261166e565b6110cb906002611656565b67ffffffffffffffff8111156110f157634e487b7160e01b600052604160045260246000fd5b6040519080825280601f01601f19166020018201604052801561111b576020820181803683370190505b509050600360fc1b8160008151811061114457634e487b7160e01b600052603260045260246000fd5b60200101906001600160f81b031916908160001a905350600f60fb1b8160018151811061118157634e487b7160e01b600052603260045260246000fd5b60200101906001600160f81b031916908160001a90535060006111a584600261166e565b6111b0906001611656565b90505b6001811115611244576f181899199a1a9b1b9c1cb0b131b232b360811b85600f16601081106111f257634e487b7160e01b600052603260045260246000fd5b1a60f81b82828151811061121657634e487b7160e01b600052603260045260246000fd5b60200101906001600160f81b031916908160001a90535060049490941c9361123d816116d0565b90506111b3565b5083156112935760405162461bcd60e51b815260206004820181905260248201527f537472696e67733a20686578206c656e67746820696e73756666696369656e746044820152606401610513565b9392505050565b600054610100900460ff16806112b3575060005460ff16155b6112cf5760405162461bcd60e51b815260040161051390611608565b600054610100900460ff161580156107be576000805461ffff19166101011790558015610658576000805461ff001916905550565b600054610100900460ff168061131d575060005460ff16155b6113395760405162461bcd60e51b815260040161051390611608565b600054610100900460ff1615801561135b576000805461ffff19166101011790555b825161136e906036906020860190611399565b508151611382906037906020850190611399565b50801561055a576000805461ff0019169055505050565b8280546113a5906116e7565b90600052602060002090601f0160209004810192826113c7576000855561140d565b82601f106113e057805160ff191683800117855561140d565b8280016001018555821561140d579182015b8281111561140d5782518255916020019190600101906113f2565b5061141992915061141d565b5090565b5b80821115611419576000815560010161141e565b80356001600160a01b038116811461144957600080fd5b919050565b60006020828403121561145f578081fd5b61129382611432565b6000806040838503121561147a578081fd5b61148383611432565b915061149160208401611432565b90509250929050565b6000806000606084860312156114ae578081fd5b6114b784611432565b92506114c560208501611432565b9150604084013590509250925092565b600080604083850312156114e7578182fd5b6114f083611432565b946020939093013593505050565b60006020828403121561150f578081fd5b5035919050565b60008060408385031215611528578182fd5b8235915061149160208401611432565b600060208284031215611549578081fd5b81356001600160e01b031981168114611293578182fd5b7f416363657373436f6e74726f6c3a206163636f756e74200000000000000000008152600083516115988160178501602088016116a4565b7001034b99036b4b9b9b4b733903937b6329607d1b60179184019182015283516115c98160288401602088016116a4565b01602801949350505050565b60208152600082518060208401526115f48160408501602087016116a4565b601f01601f19169190910160400192915050565b6020808252602e908201527f496e697469616c697a61626c653a20636f6e747261637420697320616c72656160408201526d191e481a5b9a5d1a585b1a5e995960921b606082015260800190565b6000821982111561166957611669611722565b500190565b600081600019048311821515161561168857611688611722565b500290565b60008282101561169f5761169f611722565b500390565b60005b838110156116bf5781810151838201526020016116a7565b83811115610be85750506000910152565b6000816116df576116df611722565b506000190190565b600181811c908216806116fb57607f821691505b6020821081141561171c57634e487b7160e01b600052602260045260246000fd5b50919050565b634e487b7160e01b600052601160045260246000fdfea264697066735822122065e24e7404eb4a256638ddf60090cb0173019cb634c800c9b4f2cd8388c3598564736f6c63430008040033",
  "linkReferences": {},
  "deployedLinkReferences": {}
}