{
  "_format": "hh-sol-artifact-1",
  "contractName": "Marketplace",
  "sourceName": "contracts/Marketplace.sol",
  "abi": [
    {
      "anonymous": false,
      "inputs": [
        {
          "indexed": true,
          "internalType": "uint256",
          "name": "itemId",
          "type": "uint256"
        },
        {
          "indexed": true,
          "internalType": "address",
          "name": "nftContract",
          "type": "address"
        },
        {
          "indexed": true,
          "internalType": "uint256",
          "name": "tokenId",
          "type": "uint256"
        },
        {
          "indexed": false,
          "internalType": "address",
          "name": "seller",
          "type": "address"
        },
        {
          "indexed": false,
          "internalType": "address",
          "name": "owner",
          "type": "address"
        },
        {
          "indexed": false,
          "internalType": "uint256",
          "name": "price",
          "type": "uint256"
        },
        {
          "indexed": false,
          "internalType": "bool",
          "name": "sold",
          "type": "bool"
        }
      ],
      "name": "MarketItemCreated",
      "type": "event"
    },
    {
      "anonymous": false,
      "inputs": [
        {
          "indexed": true,
          "internalType": "address",
          "name": "previousOwner",
          "type": "address"
        },
        {
          "indexed": true,
          "internalType": "address",
          "name": "newOwner",
          "type": "address"
        }
      ],
      "name": "OwnershipTransferred",
      "type": "event"
    },
    {
      "inputs": [
        {
          "internalType": "address",
          "name": "nftContract",
          "type": "address"
        },
        {
          "internalType": "uint256",
          "name": "tokenId",
          "type": "uint256"
        },
        {
          "internalType": "uint256",
          "name": "price",
          "type": "uint256"
        }
      ],
      "name": "createMarketItem",
      "outputs": [],
      "stateMutability": "payable",
      "type": "function"
    },
    {
      "inputs": [
        {
          "internalType": "address",
          "name": "nftContract",
          "type": "address"
        },
        {
          "internalType": "uint256",
          "name": "itemId",
          "type": "uint256"
        }
      ],
      "name": "createMarketSale",
      "outputs": [],
      "stateMutability": "payable",
      "type": "function"
    },
    {
      "inputs": [],
      "name": "fetchItemsCreated",
      "outputs": [
        {
          "components": [
            {
              "internalType": "uint256",
              "name": "itemId",
              "type": "uint256"
            },
            {
              "internalType": "address",
              "name": "nftContract",
              "type": "address"
            },
            {
              "internalType": "uint256",
              "name": "tokenId",
              "type": "uint256"
            },
            {
              "internalType": "address payable",
              "name": "seller",
              "type": "address"
            },
            {
              "internalType": "address payable",
              "name": "owner",
              "type": "address"
            },
            {
              "internalType": "uint256",
              "name": "price",
              "type": "uint256"
            },
            {
              "internalType": "bool",
              "name": "sold",
              "type": "bool"
            }
          ],
          "internalType": "struct Marketplace.MarketItem[]",
          "name": "",
          "type": "tuple[]"
        }
      ],
      "stateMutability": "view",
      "type": "function"
    },
    {
      "inputs": [],
      "name": "fetchMarketItems",
      "outputs": [
        {
          "components": [
            {
              "internalType": "uint256",
              "name": "itemId",
              "type": "uint256"
            },
            {
              "internalType": "address",
              "name": "nftContract",
              "type": "address"
            },
            {
              "internalType": "uint256",
              "name": "tokenId",
              "type": "uint256"
            },
            {
              "internalType": "address payable",
              "name": "seller",
              "type": "address"
            },
            {
              "internalType": "address payable",
              "name": "owner",
              "type": "address"
            },
            {
              "internalType": "uint256",
              "name": "price",
              "type": "uint256"
            },
            {
              "internalType": "bool",
              "name": "sold",
              "type": "bool"
            }
          ],
          "internalType": "struct Marketplace.MarketItem[]",
          "name": "",
          "type": "tuple[]"
        }
      ],
      "stateMutability": "view",
      "type": "function"
    },
    {
      "inputs": [],
      "name": "fetchMyNFTs",
      "outputs": [
        {
          "components": [
            {
              "internalType": "uint256",
              "name": "itemId",
              "type": "uint256"
            },
            {
              "internalType": "address",
              "name": "nftContract",
              "type": "address"
            },
            {
              "internalType": "uint256",
              "name": "tokenId",
              "type": "uint256"
            },
            {
              "internalType": "address payable",
              "name": "seller",
              "type": "address"
            },
            {
              "internalType": "address payable",
              "name": "owner",
              "type": "address"
            },
            {
              "internalType": "uint256",
              "name": "price",
              "type": "uint256"
            },
            {
              "internalType": "bool",
              "name": "sold",
              "type": "bool"
            }
          ],
          "internalType": "struct Marketplace.MarketItem[]",
          "name": "",
          "type": "tuple[]"
        }
      ],
      "stateMutability": "view",
      "type": "function"
    },
    {
      "inputs": [],
      "name": "getHenToken",
      "outputs": [
        {
          "internalType": "contract HenHouse",
          "name": "",
          "type": "address"
        }
      ],
      "stateMutability": "view",
      "type": "function"
    },
    {
      "inputs": [],
      "name": "initialize",
      "outputs": [],
      "stateMutability": "nonpayable",
      "type": "function"
    },
    {
      "inputs": [],
      "name": "owner",
      "outputs": [
        {
          "internalType": "address",
          "name": "",
          "type": "address"
        }
      ],
      "stateMutability": "view",
      "type": "function"
    },
    {
      "inputs": [],
      "name": "renounceOwnership",
      "outputs": [],
      "stateMutability": "nonpayable",
      "type": "function"
    },
    {
      "inputs": [
        {
          "internalType": "contract HenHouse",
          "name": "henHouse",
          "type": "address"
        }
      ],
      "name": "setHenToken",
      "outputs": [],
      "stateMutability": "nonpayable",
      "type": "function"
    },
    {
      "inputs": [
        {
          "internalType": "address",
          "name": "newOwner",
          "type": "address"
        }
      ],
      "name": "transferOwnership",
      "outputs": [],
      "stateMutability": "nonpayable",
      "type": "function"
    }
  ],
  "bytecode": "0x608060405234801561001057600080fd5b5061109e806100206000396000f3fe60806040526004361061009c5760003560e01c80638da5cb5b116100645780638da5cb5b14610120578063a1d515c314610152578063ab02811f14610172578063c23b139e14610190578063f064c32e146101a3578063f2fde38b146101b857600080fd5b80630f08efe0146100a1578063202e3740146100cc57806358eb2df5146100e1578063715018a6146100f65780638129fc1c1461010b575b600080fd5b3480156100ad57600080fd5b506100b66101d8565b6040516100c39190610edc565b60405180910390f35b3480156100d857600080fd5b506100b6610381565b6100f46100ef366004610ea8565b610568565b005b34801561010257600080fd5b506100f461075b565b34801561011757600080fd5b506100f4610791565b34801561012c57600080fd5b506033546001600160a01b03165b6040516001600160a01b0390911681526020016100c3565b34801561015e57600080fd5b506100f461016d366004610e5a565b61080d565b34801561017e57600080fd5b506099546001600160a01b031661013a565b6100f461019e366004610e7d565b610859565b3480156101af57600080fd5b506100b66109b0565b3480156101c457600080fd5b506100f46101d3366004610e5a565b610b97565b606060006101e560975490565b905060006101f260985490565b6097546101ff919061100b565b90506000808267ffffffffffffffff81111561022b57634e487b7160e01b600052604160045260246000fd5b60405190808252806020026020018201604052801561026457816020015b610251610e1e565b8152602001906001900390816102495790505b50905060005b84811015610378576000609a81610282846001610ff3565b81526020810191909152604001600020600401546001600160a01b031614156103665760006102b2826001610ff3565b6000818152609a6020908152604091829020825160e0810184528154815260018201546001600160a01b039081169382019390935260028201549381019390935260038101548216606084015260048101549091166080830152600581015460a0830152600681015460ff16151560c083015285519293509185908790811061034b57634e487b7160e01b600052603260045260246000fd5b6020908102919091010152610361600186610ff3565b945050505b8061037081611022565b91505061026a565b50949350505050565b6060600061038e60975490565b905060008060005b838110156103f15733609a60006103ae846001610ff3565b81526020810191909152604001600020600401546001600160a01b031614156103df576103dc600184610ff3565b92505b806103e981611022565b915050610396565b5060008267ffffffffffffffff81111561041b57634e487b7160e01b600052604160045260246000fd5b60405190808252806020026020018201604052801561045457816020015b610441610e1e565b8152602001906001900390816104395790505b50905060005b848110156103785733609a6000610472846001610ff3565b81526020810191909152604001600020600401546001600160a01b031614156105565760006104a2826001610ff3565b6000818152609a6020908152604091829020825160e0810184528154815260018201546001600160a01b039081169382019390935260028201549381019390935260038101548216606084015260048101549091166080830152600581015460a0830152600681015460ff16151560c083015285519293509185908790811061053b57634e487b7160e01b600052603260045260246000fd5b6020908102919091010152610551600186610ff3565b945050505b8061056081611022565b91505061045a565b600260655414156105c05760405162461bcd60e51b815260206004820152601f60248201527f5265656e7472616e637947756172643a207265656e7472616e742063616c6c0060448201526064015b60405180910390fd5b60026065556105d3609780546001019055565b60006105de60975490565b6040805160e0810182528281526001600160a01b0387811660208084018281528486018a8152336060870181815260006080890181815260a08a018e815260c08b018381528d8452609a909852918b902099518a55945160018a018054918a166001600160a01b0319928316179055935160028a015590516003890180549189169185169190911790559251600480890180549290981691909316179095559051600586015590516006909401805494151560ff199095169490941790935592516323b872dd60e01b81529182015230602482015260448101869052919250906323b872dd90606401600060405180830381600087803b1580156106e157600080fd5b505af11580156106f5573d6000803e3d6000fd5b505060408051338152600060208201819052818301879052606082015290518693506001600160a01b038816925084917f045dfa01dcba2b36aba1d3dc4a874f4b0c5d2fbeb8d2c4b34a7d88c8d8f929d1919081900360800190a4505060016065555050565b6033546001600160a01b031633146107855760405162461bcd60e51b81526004016105b790610fbe565b61078f6000610c2b565b565b600054610100900460ff16806107aa575060005460ff16155b6107c65760405162461bcd60e51b81526004016105b790610f70565b600054610100900460ff161580156107e8576000805461ffff19166101011790555b6107f0610c7d565b6107f8610ce4565b801561080a576000805461ff00191690555b50565b6033546001600160a01b031633146108375760405162461bcd60e51b81526004016105b790610fbe565b609980546001600160a01b0319166001600160a01b0392909216919091179055565b600260655414156108ac5760405162461bcd60e51b815260206004820152601f60248201527f5265656e7472616e637947756172643a207265656e7472616e742063616c6c0060448201526064016105b7565b600260658190556000828152609a60205260408082209283015460039093015490516001600160a01b03909116913480156108fc02929091818181858888f19350505050158015610901573d6000803e3d6000fd5b506040516323b872dd60e01b8152306004820152336024820152604481018290526001600160a01b038416906323b872dd90606401600060405180830381600087803b15801561095057600080fd5b505af1158015610964573d6000803e3d6000fd5b5050506000838152609a602052604090206004810180546001600160a01b03191633179055600601805460ff19166001179055506109a6609880546001019055565b5050600160655550565b606060006109bd60975490565b905060008060005b83811015610a205733609a60006109dd846001610ff3565b81526020810191909152604001600020600301546001600160a01b03161415610a0e57610a0b600184610ff3565b92505b80610a1881611022565b9150506109c5565b5060008267ffffffffffffffff811115610a4a57634e487b7160e01b600052604160045260246000fd5b604051908082528060200260200182016040528015610a8357816020015b610a70610e1e565b815260200190600190039081610a685790505b50905060005b848110156103785733609a6000610aa1846001610ff3565b81526020810191909152604001600020600301546001600160a01b03161415610b85576000610ad1826001610ff3565b6000818152609a6020908152604091829020825160e0810184528154815260018201546001600160a01b039081169382019390935260028201549381019390935260038101548216606084015260048101549091166080830152600581015460a0830152600681015460ff16151560c0830152855192935091859087908110610b6a57634e487b7160e01b600052603260045260246000fd5b6020908102919091010152610b80600186610ff3565b945050505b80610b8f81611022565b915050610a89565b6033546001600160a01b03163314610bc15760405162461bcd60e51b81526004016105b790610fbe565b6001600160a01b038116610c265760405162461bcd60e51b815260206004820152602660248201527f4f776e61626c653a206e6577206f776e657220697320746865207a65726f206160448201526564647265737360d01b60648201526084016105b7565b61080a815b603380546001600160a01b038381166001600160a01b0319831681179093556040519116919082907f8be0079c531659141344cd1fd0a4f28419497f9722a3daafe3b4186f6b6457e090600090a35050565b600054610100900460ff1680610c96575060005460ff16155b610cb25760405162461bcd60e51b81526004016105b790610f70565b600054610100900460ff16158015610cd4576000805461ffff19166101011790555b610cdc610d54565b6107f8610dbe565b600054610100900460ff1680610cfd575060005460ff16155b610d195760405162461bcd60e51b81526004016105b790610f70565b600054610100900460ff16158015610d3b576000805461ffff19166101011790555b6001606555801561080a576000805461ff001916905550565b600054610100900460ff1680610d6d575060005460ff16155b610d895760405162461bcd60e51b81526004016105b790610f70565b600054610100900460ff161580156107f8576000805461ffff1916610101179055801561080a576000805461ff001916905550565b600054610100900460ff1680610dd7575060005460ff16155b610df35760405162461bcd60e51b81526004016105b790610f70565b600054610100900460ff16158015610e15576000805461ffff19166101011790555b6107f833610c2b565b6040805160e081018252600080825260208201819052918101829052606081018290526080810182905260a0810182905260c081019190915290565b600060208284031215610e6b578081fd5b8135610e7681611053565b9392505050565b60008060408385031215610e8f578081fd5b8235610e9a81611053565b946020939093013593505050565b600080600060608486031215610ebc578081fd5b8335610ec781611053565b95602085013595506040909401359392505050565b602080825282518282018190526000919060409081850190868401855b82811015610f6357815180518552868101516001600160a01b039081168887015286820151878701526060808301518216908701526080808301519091169086015260a0808201519086015260c09081015115159085015260e09093019290850190600101610ef9565b5091979650505050505050565b6020808252602e908201527f496e697469616c697a61626c653a20636f6e747261637420697320616c72656160408201526d191e481a5b9a5d1a585b1a5e995960921b606082015260800190565b6020808252818101527f4f776e61626c653a2063616c6c6572206973206e6f7420746865206f776e6572604082015260600190565b600082198211156110065761100661103d565b500190565b60008282101561101d5761101d61103d565b500390565b60006000198214156110365761103661103d565b5060010190565b634e487b7160e01b600052601160045260246000fd5b6001600160a01b038116811461080a57600080fdfea264697066735822122015300216f5996c573d75c1e11564a7016b4cb083edb23657c1f079123736215164736f6c63430008040033",
  "linkReferences": {},
  "deployedLinkReferences": {}
}