{
  "_format": "hh-sol-artifact-1",
  "contractName": "Marketplace",
  "sourceName": "contracts/Marketplace.sol",
  "abi": [
    {
      "anonymous": false,
      "inputs": [
        {
          "indexed": true,
          "internalType": "uint256",
          "name": "itemId",
          "type": "uint256"
        },
        {
          "indexed": true,
          "internalType": "address",
          "name": "nftContract",
          "type": "address"
        },
        {
          "indexed": true,
          "internalType": "uint256",
          "name": "tokenId",
          "type": "uint256"
        },
        {
          "indexed": false,
          "internalType": "address",
          "name": "seller",
          "type": "address"
        },
        {
          "indexed": false,
          "internalType": "address",
          "name": "soldTo",
          "type": "address"
        },
        {
          "indexed": false,
          "internalType": "uint256",
          "name": "price",
          "type": "uint256"
        },
        {
          "indexed": false,
          "internalType": "bool",
          "name": "sold",
          "type": "bool"
        }
      ],
      "name": "MarketItemCreated",
      "type": "event"
    },
    {
      "anonymous": false,
      "inputs": [
        {
          "indexed": true,
          "internalType": "address",
          "name": "previousOwner",
          "type": "address"
        },
        {
          "indexed": true,
          "internalType": "address",
          "name": "newOwner",
          "type": "address"
        }
      ],
      "name": "OwnershipTransferred",
      "type": "event"
    },
    {
      "inputs": [
        {
          "internalType": "address",
          "name": "nftContract",
          "type": "address"
        },
        {
          "internalType": "uint256",
          "name": "tokenId",
          "type": "uint256"
        },
        {
          "internalType": "uint256",
          "name": "price",
          "type": "uint256"
        }
      ],
      "name": "createMarketItem",
      "outputs": [],
      "stateMutability": "nonpayable",
      "type": "function"
    },
    {
      "inputs": [
        {
          "internalType": "address",
          "name": "nftContract",
          "type": "address"
        },
        {
          "internalType": "uint256",
          "name": "itemId",
          "type": "uint256"
        }
      ],
      "name": "createMarketSale",
      "outputs": [],
      "stateMutability": "nonpayable",
      "type": "function"
    },
    {
      "inputs": [],
      "name": "fetchMarketItems",
      "outputs": [
        {
          "components": [
            {
              "internalType": "uint256",
              "name": "itemId",
              "type": "uint256"
            },
            {
              "internalType": "address",
              "name": "nftContract",
              "type": "address"
            },
            {
              "internalType": "uint256",
              "name": "tokenId",
              "type": "uint256"
            },
            {
              "internalType": "address payable",
              "name": "seller",
              "type": "address"
            },
            {
              "internalType": "address payable",
              "name": "soldTo",
              "type": "address"
            },
            {
              "internalType": "uint256",
              "name": "price",
              "type": "uint256"
            },
            {
              "internalType": "bool",
              "name": "sold",
              "type": "bool"
            }
          ],
          "internalType": "struct Marketplace.MarketItem[]",
          "name": "",
          "type": "tuple[]"
        }
      ],
      "stateMutability": "view",
      "type": "function"
    },
    {
      "inputs": [
        {
          "internalType": "uint256",
          "name": "tokenId",
          "type": "uint256"
        }
      ],
      "name": "getDetail",
      "outputs": [
        {
          "components": [
            {
              "internalType": "uint256",
              "name": "itemId",
              "type": "uint256"
            },
            {
              "internalType": "address",
              "name": "nftContract",
              "type": "address"
            },
            {
              "internalType": "uint256",
              "name": "tokenId",
              "type": "uint256"
            },
            {
              "internalType": "address payable",
              "name": "seller",
              "type": "address"
            },
            {
              "internalType": "address payable",
              "name": "soldTo",
              "type": "address"
            },
            {
              "internalType": "uint256",
              "name": "price",
              "type": "uint256"
            },
            {
              "internalType": "bool",
              "name": "sold",
              "type": "bool"
            }
          ],
          "internalType": "struct Marketplace.MarketItem",
          "name": "",
          "type": "tuple"
        }
      ],
      "stateMutability": "view",
      "type": "function"
    },
    {
      "inputs": [],
      "name": "getHenToken",
      "outputs": [
        {
          "internalType": "contract HenToken",
          "name": "",
          "type": "address"
        }
      ],
      "stateMutability": "view",
      "type": "function"
    },
    {
      "inputs": [],
      "name": "initialize",
      "outputs": [],
      "stateMutability": "nonpayable",
      "type": "function"
    },
    {
      "inputs": [],
      "name": "owner",
      "outputs": [
        {
          "internalType": "address",
          "name": "",
          "type": "address"
        }
      ],
      "stateMutability": "view",
      "type": "function"
    },
    {
      "inputs": [],
      "name": "renounceOwnership",
      "outputs": [],
      "stateMutability": "nonpayable",
      "type": "function"
    },
    {
      "inputs": [
        {
          "internalType": "contract HenToken",
          "name": "henToken",
          "type": "address"
        }
      ],
      "name": "setHenToken",
      "outputs": [],
      "stateMutability": "nonpayable",
      "type": "function"
    },
    {
      "inputs": [
        {
          "internalType": "address",
          "name": "newOwner",
          "type": "address"
        }
      ],
      "name": "transferOwnership",
      "outputs": [],
      "stateMutability": "nonpayable",
      "type": "function"
    }
  ],
  "bytecode": "0x608060405234801561001057600080fd5b50610eda806100206000396000f3fe608060405234801561001057600080fd5b506004361061009e5760003560e01c80639d66a9cd116100665780639d66a9cd1461010b578063a1d515c31461012b578063ab02811f1461013e578063c23b139e1461014f578063f2fde38b1461016257600080fd5b80630f08efe0146100a357806358eb2df5146100c1578063715018a6146100d65780638129fc1c146100de5780638da5cb5b146100e6575b600080fd5b6100ab610175565b6040516100b89190610d4a565b60405180910390f35b6100d46100cf366004610c88565b610354565b005b6100d4610594565b6100d46105ca565b6033546001600160a01b03165b6040516001600160a01b0390911681526020016100b8565b61011e610119366004610cdc565b610646565b6040516100b89190610e1b565b6100d4610139366004610c3a565b6106c4565b609a546001600160a01b03166100f3565b6100d461015d366004610c5d565b610710565b6100d4610170366004610c3a565b610977565b6060600061018260975490565b9050600061018f60985490565b60975461019c9190610e47565b9050806101dc5760408051600080825260208201909252906101d4565b6101c1610bfe565b8152602001906001900390816101b95790505b509250505090565b60008167ffffffffffffffff81111561020557634e487b7160e01b600052604160045260246000fd5b60405190808252806020026020018201604052801561023e57816020015b61022b610bfe565b8152602001906001900390816102235790505b5090506000805b8481101561034a57609b600061025c836001610e2f565b815260208101919091526040016000206006015460ff16610338576000610284826001610e2f565b6000818152609b6020908152604091829020825160e0810184528154815260018201546001600160a01b039081169382019390935260028201549381019390935260038101548216606084015260048101549091166080830152600581015460a0830152600681015460ff16151560c083015286519293509186908690811061031d57634e487b7160e01b600052603260045260246000fd5b6020908102919091010152610333600185610e2f565b935050505b8061034281610e5e565b915050610245565b5090949350505050565b600260655414156103ac5760405162461bcd60e51b815260206004820152601f60248201527f5265656e7472616e637947756172643a207265656e7472616e742063616c6c0060448201526064015b60405180910390fd5b6002606555806103fe5760405162461bcd60e51b815260206004820152601c60248201527f5072696365206d757374206265206174206c656173742031207765690000000060448201526064016103a3565b61040c609780546001019055565b600061041760975490565b6040805160e0810182528281526001600160a01b0387811660208084018281528486018a8152336060870181815260006080890181815260a08a018e815260c08b018381528d8452609b909852918b902099518a55945160018a018054918a166001600160a01b0319928316179055935160028a015590516003890180549189169185169190911790559251600480890180549290981691909316179095559051600586015590516006909401805494151560ff199095169490941790935592516323b872dd60e01b81529182015230602482015260448101869052919250906323b872dd90606401600060405180830381600087803b15801561051a57600080fd5b505af115801561052e573d6000803e3d6000fd5b505060408051338152600060208201819052818301879052606082015290518693506001600160a01b038816925084917f045dfa01dcba2b36aba1d3dc4a874f4b0c5d2fbeb8d2c4b34a7d88c8d8f929d1919081900360800190a4505060016065555050565b6033546001600160a01b031633146105be5760405162461bcd60e51b81526004016103a390610de6565b6105c86000610a0b565b565b600054610100900460ff16806105e3575060005460ff16155b6105ff5760405162461bcd60e51b81526004016103a390610d98565b600054610100900460ff16158015610621576000805461ffff19166101011790555b610629610a5d565b610631610ac4565b8015610643576000805461ff00191690555b50565b61064e610bfe565b506000908152609b6020908152604091829020825160e0810184528154815260018201546001600160a01b039081169382019390935260028201549381019390935260038101548216606084015260048101549091166080830152600581015460a08301526006015460ff16151560c082015290565b6033546001600160a01b031633146106ee5760405162461bcd60e51b81526004016103a390610de6565b609a80546001600160a01b0319166001600160a01b0392909216919091179055565b600260655414156107635760405162461bcd60e51b815260206004820152601f60248201527f5265656e7472616e637947756172643a207265656e7472616e742063616c6c0060448201526064016103a3565b600260658190556000828152609b602052604090206005810154918101546006820154600390920154909160ff16906001600160a01b0316338114156107eb5760405162461bcd60e51b815260206004820152601d60248201527f596f752063616e206e6f742062757920796f7572206f776e206974656d00000060448201526064016103a3565b81156108395760405162461bcd60e51b815260206004820152601960248201527f54686973206974656d20697320616c726561647920736f6c640000000000000060448201526064016103a3565b604051632142170760e11b8152306004820152336024820152604481018490526001600160a01b038716906342842e0e90606401600060405180830381600087803b15801561088757600080fd5b505af115801561089b573d6000803e3d6000fd5b5050609a546040516323b872dd60e01b81523360048201526001600160a01b0385811660248301526044820189905290911692506323b872dd9150606401602060405180830381600087803b1580156108f357600080fd5b505af1158015610907573d6000803e3d6000fd5b505050506040513d601f19601f8201168201806040525081019061092b9190610cbc565b506000858152609b602052604090206004810180546001600160a01b03191633179055600601805460ff1916600117905561096a609880546001019055565b5050600160655550505050565b6033546001600160a01b031633146109a15760405162461bcd60e51b81526004016103a390610de6565b6001600160a01b038116610a065760405162461bcd60e51b815260206004820152602660248201527f4f776e61626c653a206e6577206f776e657220697320746865207a65726f206160448201526564647265737360d01b60648201526084016103a3565b610643815b603380546001600160a01b038381166001600160a01b0319831681179093556040519116919082907f8be0079c531659141344cd1fd0a4f28419497f9722a3daafe3b4186f6b6457e090600090a35050565b600054610100900460ff1680610a76575060005460ff16155b610a925760405162461bcd60e51b81526004016103a390610d98565b600054610100900460ff16158015610ab4576000805461ffff19166101011790555b610abc610b34565b610631610b9e565b600054610100900460ff1680610add575060005460ff16155b610af95760405162461bcd60e51b81526004016103a390610d98565b600054610100900460ff16158015610b1b576000805461ffff19166101011790555b60016065558015610643576000805461ff001916905550565b600054610100900460ff1680610b4d575060005460ff16155b610b695760405162461bcd60e51b81526004016103a390610d98565b600054610100900460ff16158015610631576000805461ffff19166101011790558015610643576000805461ff001916905550565b600054610100900460ff1680610bb7575060005460ff16155b610bd35760405162461bcd60e51b81526004016103a390610d98565b600054610100900460ff16158015610bf5576000805461ffff19166101011790555b61063133610a0b565b6040805160e081018252600080825260208201819052918101829052606081018290526080810182905260a0810182905260c081019190915290565b600060208284031215610c4b578081fd5b8135610c5681610e8f565b9392505050565b60008060408385031215610c6f578081fd5b8235610c7a81610e8f565b946020939093013593505050565b600080600060608486031215610c9c578081fd5b8335610ca781610e8f565b95602085013595506040909401359392505050565b600060208284031215610ccd578081fd5b81518015158114610c56578182fd5b600060208284031215610ced578081fd5b5035919050565b80518252602081015160018060a01b03808216602085015260408301516040850152806060840151166060850152806080840151166080850152505060a081015160a083015260c0810151151560c08301525050565b6020808252825182820181905260009190848201906040850190845b81811015610d8c57610d79838551610cf4565b9284019260e09290920191600101610d66565b50909695505050505050565b6020808252602e908201527f496e697469616c697a61626c653a20636f6e747261637420697320616c72656160408201526d191e481a5b9a5d1a585b1a5e995960921b606082015260800190565b6020808252818101527f4f776e61626c653a2063616c6c6572206973206e6f7420746865206f776e6572604082015260600190565b60e08101610e298284610cf4565b92915050565b60008219821115610e4257610e42610e79565b500190565b600082821015610e5957610e59610e79565b500390565b6000600019821415610e7257610e72610e79565b5060010190565b634e487b7160e01b600052601160045260246000fd5b6001600160a01b038116811461064357600080fdfea264697066735822122043e0f21289edf26e457ad3378ff6cdc085ab42e03b4ceed336abfa202e98af4864736f6c63430008040033",
  "linkReferences": {},
  "deployedLinkReferences": {}
}