{
  "_format": "hh-sol-artifact-1",
  "contractName": "Marketplace",
  "sourceName": "contracts/Marketplace.sol",
  "abi": [
    {
      "anonymous": false,
      "inputs": [
        {
          "indexed": true,
          "internalType": "uint256",
          "name": "itemId",
          "type": "uint256"
        },
        {
          "indexed": true,
          "internalType": "address",
          "name": "nftContract",
          "type": "address"
        },
        {
          "indexed": true,
          "internalType": "uint256",
          "name": "tokenId",
          "type": "uint256"
        },
        {
          "indexed": false,
          "internalType": "address",
          "name": "seller",
          "type": "address"
        },
        {
          "indexed": false,
          "internalType": "address",
          "name": "soldTo",
          "type": "address"
        },
        {
          "indexed": false,
          "internalType": "uint256",
          "name": "price",
          "type": "uint256"
        },
        {
          "indexed": false,
          "internalType": "bool",
          "name": "sold",
          "type": "bool"
        }
      ],
      "name": "MarketItemCreated",
      "type": "event"
    },
    {
      "anonymous": false,
      "inputs": [
        {
          "indexed": true,
          "internalType": "address",
          "name": "previousOwner",
          "type": "address"
        },
        {
          "indexed": true,
          "internalType": "address",
          "name": "newOwner",
          "type": "address"
        }
      ],
      "name": "OwnershipTransferred",
      "type": "event"
    },
    {
      "inputs": [
        {
          "internalType": "address",
          "name": "nftContract",
          "type": "address"
        },
        {
          "internalType": "uint256",
          "name": "tokenId",
          "type": "uint256"
        },
        {
          "internalType": "uint256",
          "name": "price",
          "type": "uint256"
        }
      ],
      "name": "createMarketItem",
      "outputs": [],
      "stateMutability": "payable",
      "type": "function"
    },
    {
      "inputs": [
        {
          "internalType": "address",
          "name": "nftContract",
          "type": "address"
        },
        {
          "internalType": "uint256",
          "name": "itemId",
          "type": "uint256"
        }
      ],
      "name": "createMarketSale",
      "outputs": [],
      "stateMutability": "payable",
      "type": "function"
    },
    {
      "inputs": [],
      "name": "fetchMarketItems",
      "outputs": [
        {
          "components": [
            {
              "internalType": "uint256",
              "name": "itemId",
              "type": "uint256"
            },
            {
              "internalType": "address",
              "name": "nftContract",
              "type": "address"
            },
            {
              "internalType": "uint256",
              "name": "tokenId",
              "type": "uint256"
            },
            {
              "internalType": "address payable",
              "name": "seller",
              "type": "address"
            },
            {
              "internalType": "address payable",
              "name": "soldTo",
              "type": "address"
            },
            {
              "internalType": "uint256",
              "name": "price",
              "type": "uint256"
            },
            {
              "internalType": "bool",
              "name": "sold",
              "type": "bool"
            }
          ],
          "internalType": "struct Marketplace.MarketItem[]",
          "name": "",
          "type": "tuple[]"
        }
      ],
      "stateMutability": "view",
      "type": "function"
    },
    {
      "inputs": [
        {
          "internalType": "uint256",
          "name": "tokenId",
          "type": "uint256"
        }
      ],
      "name": "getDetail",
      "outputs": [
        {
          "components": [
            {
              "internalType": "uint256",
              "name": "itemId",
              "type": "uint256"
            },
            {
              "internalType": "address",
              "name": "nftContract",
              "type": "address"
            },
            {
              "internalType": "uint256",
              "name": "tokenId",
              "type": "uint256"
            },
            {
              "internalType": "address payable",
              "name": "seller",
              "type": "address"
            },
            {
              "internalType": "address payable",
              "name": "soldTo",
              "type": "address"
            },
            {
              "internalType": "uint256",
              "name": "price",
              "type": "uint256"
            },
            {
              "internalType": "bool",
              "name": "sold",
              "type": "bool"
            }
          ],
          "internalType": "struct Marketplace.MarketItem",
          "name": "",
          "type": "tuple"
        }
      ],
      "stateMutability": "view",
      "type": "function"
    },
    {
      "inputs": [],
      "name": "getHenToken",
      "outputs": [
        {
          "internalType": "contract HenHouse",
          "name": "",
          "type": "address"
        }
      ],
      "stateMutability": "view",
      "type": "function"
    },
    {
      "inputs": [],
      "name": "initialize",
      "outputs": [],
      "stateMutability": "nonpayable",
      "type": "function"
    },
    {
      "inputs": [],
      "name": "owner",
      "outputs": [
        {
          "internalType": "address",
          "name": "",
          "type": "address"
        }
      ],
      "stateMutability": "view",
      "type": "function"
    },
    {
      "inputs": [],
      "name": "renounceOwnership",
      "outputs": [],
      "stateMutability": "nonpayable",
      "type": "function"
    },
    {
      "inputs": [
        {
          "internalType": "contract HenHouse",
          "name": "henHouse",
          "type": "address"
        }
      ],
      "name": "setHenToken",
      "outputs": [],
      "stateMutability": "nonpayable",
      "type": "function"
    },
    {
      "inputs": [
        {
          "internalType": "address",
          "name": "newOwner",
          "type": "address"
        }
      ],
      "name": "transferOwnership",
      "outputs": [],
      "stateMutability": "nonpayable",
      "type": "function"
    }
  ],
  "bytecode": "0x608060405234801561001057600080fd5b50610e8a806100206000396000f3fe6080604052600436106100915760003560e01c80639d66a9cd116100595780639d66a9cd14610132578063a1d515c31461015f578063ab02811f1461017f578063c23b139e1461019d578063f2fde38b146101b057600080fd5b80630f08efe01461009657806358eb2df5146100c1578063715018a6146100d65780638129fc1c146100eb5780638da5cb5b14610100575b600080fd5b3480156100a257600080fd5b506100ab6101d0565b6040516100b89190610cfa565b60405180910390f35b6100d46100cf366004610c38565b6103af565b005b3480156100e257600080fd5b506100d46105ef565b3480156100f757600080fd5b506100d4610625565b34801561010c57600080fd5b506033546001600160a01b03165b6040516001600160a01b0390911681526020016100b8565b34801561013e57600080fd5b5061015261014d366004610c8c565b6106a1565b6040516100b89190610dcb565b34801561016b57600080fd5b506100d461017a366004610bea565b61071f565b34801561018b57600080fd5b506099546001600160a01b031661011a565b6100d46101ab366004610c0d565b61076b565b3480156101bc57600080fd5b506100d46101cb366004610bea565b610927565b606060006101dd60975490565b905060006101ea60985490565b6097546101f79190610df7565b90508061023757604080516000808252602082019092529061022f565b61021c610bae565b8152602001906001900390816102145790505b509250505090565b60008167ffffffffffffffff81111561026057634e487b7160e01b600052604160045260246000fd5b60405190808252806020026020018201604052801561029957816020015b610286610bae565b81526020019060019003908161027e5790505b5090506000805b848110156103a557609a60006102b7836001610ddf565b815260208101919091526040016000206006015460ff166103935760006102df826001610ddf565b6000818152609a6020908152604091829020825160e0810184528154815260018201546001600160a01b039081169382019390935260028201549381019390935260038101548216606084015260048101549091166080830152600581015460a0830152600681015460ff16151560c083015286519293509186908690811061037857634e487b7160e01b600052603260045260246000fd5b602090810291909101015261038e600185610ddf565b935050505b8061039d81610e0e565b9150506102a0565b5090949350505050565b600260655414156104075760405162461bcd60e51b815260206004820152601f60248201527f5265656e7472616e637947756172643a207265656e7472616e742063616c6c0060448201526064015b60405180910390fd5b6002606555806104595760405162461bcd60e51b815260206004820152601c60248201527f5072696365206d757374206265206174206c656173742031207765690000000060448201526064016103fe565b610467609780546001019055565b600061047260975490565b6040805160e0810182528281526001600160a01b0387811660208084018281528486018a8152336060870181815260006080890181815260a08a018e815260c08b018381528d8452609a909852918b902099518a55945160018a018054918a166001600160a01b0319928316179055935160028a015590516003890180549189169185169190911790559251600480890180549290981691909316179095559051600586015590516006909401805494151560ff199095169490941790935592516323b872dd60e01b81529182015230602482015260448101869052919250906323b872dd90606401600060405180830381600087803b15801561057557600080fd5b505af1158015610589573d6000803e3d6000fd5b505060408051338152600060208201819052818301879052606082015290518693506001600160a01b038816925084917f045dfa01dcba2b36aba1d3dc4a874f4b0c5d2fbeb8d2c4b34a7d88c8d8f929d1919081900360800190a4505060016065555050565b6033546001600160a01b031633146106195760405162461bcd60e51b81526004016103fe90610d96565b61062360006109bb565b565b600054610100900460ff168061063e575060005460ff16155b61065a5760405162461bcd60e51b81526004016103fe90610d48565b600054610100900460ff1615801561067c576000805461ffff19166101011790555b610684610a0d565b61068c610a74565b801561069e576000805461ff00191690555b50565b6106a9610bae565b506000908152609a6020908152604091829020825160e0810184528154815260018201546001600160a01b039081169382019390935260028201549381019390935260038101548216606084015260048101549091166080830152600581015460a08301526006015460ff16151560c082015290565b6033546001600160a01b031633146107495760405162461bcd60e51b81526004016103fe90610d96565b609980546001600160a01b0319166001600160a01b0392909216919091179055565b600260655414156107be5760405162461bcd60e51b815260206004820152601f60248201527f5265656e7472616e637947756172643a207265656e7472616e742063616c6c0060448201526064016103fe565b600260658190556000828152609a6020526040908190206005810154928101546003909101549151632142170760e11b81523060048201523360248201526044810182905290916001600160a01b0390811691908616906342842e0e90606401600060405180830381600087803b15801561083857600080fd5b505af115801561084c573d6000803e3d6000fd5b50506099546040516323b872dd60e01b81523360048201526001600160a01b0385811660248301526044820188905290911692506323b872dd9150606401602060405180830381600087803b1580156108a457600080fd5b505af11580156108b8573d6000803e3d6000fd5b505050506040513d601f19601f820116820180604052508101906108dc9190610c6c565b506000848152609a602052604090206004810180546001600160a01b03191633179055600601805460ff1916600117905561091b609880546001019055565b50506001606555505050565b6033546001600160a01b031633146109515760405162461bcd60e51b81526004016103fe90610d96565b6001600160a01b0381166109b65760405162461bcd60e51b815260206004820152602660248201527f4f776e61626c653a206e6577206f776e657220697320746865207a65726f206160448201526564647265737360d01b60648201526084016103fe565b61069e815b603380546001600160a01b038381166001600160a01b0319831681179093556040519116919082907f8be0079c531659141344cd1fd0a4f28419497f9722a3daafe3b4186f6b6457e090600090a35050565b600054610100900460ff1680610a26575060005460ff16155b610a425760405162461bcd60e51b81526004016103fe90610d48565b600054610100900460ff16158015610a64576000805461ffff19166101011790555b610a6c610ae4565b61068c610b4e565b600054610100900460ff1680610a8d575060005460ff16155b610aa95760405162461bcd60e51b81526004016103fe90610d48565b600054610100900460ff16158015610acb576000805461ffff19166101011790555b6001606555801561069e576000805461ff001916905550565b600054610100900460ff1680610afd575060005460ff16155b610b195760405162461bcd60e51b81526004016103fe90610d48565b600054610100900460ff1615801561068c576000805461ffff1916610101179055801561069e576000805461ff001916905550565b600054610100900460ff1680610b67575060005460ff16155b610b835760405162461bcd60e51b81526004016103fe90610d48565b600054610100900460ff16158015610ba5576000805461ffff19166101011790555b61068c336109bb565b6040805160e081018252600080825260208201819052918101829052606081018290526080810182905260a0810182905260c081019190915290565b600060208284031215610bfb578081fd5b8135610c0681610e3f565b9392505050565b60008060408385031215610c1f578081fd5b8235610c2a81610e3f565b946020939093013593505050565b600080600060608486031215610c4c578081fd5b8335610c5781610e3f565b95602085013595506040909401359392505050565b600060208284031215610c7d578081fd5b81518015158114610c06578182fd5b600060208284031215610c9d578081fd5b5035919050565b80518252602081015160018060a01b03808216602085015260408301516040850152806060840151166060850152806080840151166080850152505060a081015160a083015260c0810151151560c08301525050565b6020808252825182820181905260009190848201906040850190845b81811015610d3c57610d29838551610ca4565b9284019260e09290920191600101610d16565b50909695505050505050565b6020808252602e908201527f496e697469616c697a61626c653a20636f6e747261637420697320616c72656160408201526d191e481a5b9a5d1a585b1a5e995960921b606082015260800190565b6020808252818101527f4f776e61626c653a2063616c6c6572206973206e6f7420746865206f776e6572604082015260600190565b60e08101610dd98284610ca4565b92915050565b60008219821115610df257610df2610e29565b500190565b600082821015610e0957610e09610e29565b500390565b6000600019821415610e2257610e22610e29565b5060010190565b634e487b7160e01b600052601160045260246000fd5b6001600160a01b038116811461069e57600080fdfea2646970667358221220b4b92065cfc1cfcb9337e1b24ad0f4727a5b245cbf9c54165e7fde71c6e005a364736f6c63430008040033",
  "linkReferences": {},
  "deployedLinkReferences": {}
}