{
  "_format": "hh-sol-artifact-1",
  "contractName": "Marketplace",
  "sourceName": "contracts/Marketplace.sol",
  "abi": [
    {
      "anonymous": false,
      "inputs": [
        {
          "indexed": true,
          "internalType": "address",
          "name": "previousOwner",
          "type": "address"
        },
        {
          "indexed": true,
          "internalType": "address",
          "name": "newOwner",
          "type": "address"
        }
      ],
      "name": "OwnershipTransferred",
      "type": "event"
    },
    {
      "inputs": [],
      "name": "getHenToken",
      "outputs": [
        {
          "internalType": "contract HenHouse",
          "name": "",
          "type": "address"
        }
      ],
      "stateMutability": "view",
      "type": "function"
    },
    {
      "inputs": [],
      "name": "initialize",
      "outputs": [],
      "stateMutability": "nonpayable",
      "type": "function"
    },
    {
      "inputs": [],
      "name": "owner",
      "outputs": [
        {
          "internalType": "address",
          "name": "",
          "type": "address"
        }
      ],
      "stateMutability": "view",
      "type": "function"
    },
    {
      "inputs": [],
      "name": "renounceOwnership",
      "outputs": [],
      "stateMutability": "nonpayable",
      "type": "function"
    },
    {
      "inputs": [
        {
          "internalType": "contract HenHouse",
          "name": "henHouse",
          "type": "address"
        }
      ],
      "name": "setHenToken",
      "outputs": [],
      "stateMutability": "nonpayable",
      "type": "function"
    },
    {
      "inputs": [
        {
          "internalType": "address",
          "name": "newOwner",
          "type": "address"
        }
      ],
      "name": "transferOwnership",
      "outputs": [],
      "stateMutability": "nonpayable",
      "type": "function"
    }
  ],
  "bytecode": "0x608060405234801561001057600080fd5b50610558806100206000396000f3fe608060405234801561001057600080fd5b50600436106100625760003560e01c8063715018a6146100675780638129fc1c146100715780638da5cb5b14610079578063a1d515c3146100a2578063ab02811f146100b5578063f2fde38b146100c6575b600080fd5b61006f6100d9565b005b61006f610118565b6033546001600160a01b03165b6040516001600160a01b03909116815260200160405180910390f35b61006f6100b0366004610467565b610194565b6097546001600160a01b0316610086565b61006f6100d4366004610467565b6101e0565b6033546001600160a01b0316331461010c5760405162461bcd60e51b8152600401610103906104d8565b60405180910390fd5b6101166000610274565b565b600054610100900460ff1680610131575060005460ff16155b61014d5760405162461bcd60e51b81526004016101039061048a565b600054610100900460ff1615801561016f576000805461ffff19166101011790555b6101776102c6565b61017f61032d565b8015610191576000805461ff00191690555b50565b6033546001600160a01b031633146101be5760405162461bcd60e51b8152600401610103906104d8565b609780546001600160a01b0319166001600160a01b0392909216919091179055565b6033546001600160a01b0316331461020a5760405162461bcd60e51b8152600401610103906104d8565b6001600160a01b03811661026f5760405162461bcd60e51b815260206004820152602660248201527f4f776e61626c653a206e6577206f776e657220697320746865207a65726f206160448201526564647265737360d01b6064820152608401610103565b610191815b603380546001600160a01b038381166001600160a01b0319831681179093556040519116919082907f8be0079c531659141344cd1fd0a4f28419497f9722a3daafe3b4186f6b6457e090600090a35050565b600054610100900460ff16806102df575060005460ff16155b6102fb5760405162461bcd60e51b81526004016101039061048a565b600054610100900460ff1615801561031d576000805461ffff19166101011790555b61032561039d565b61017f610407565b600054610100900460ff1680610346575060005460ff16155b6103625760405162461bcd60e51b81526004016101039061048a565b600054610100900460ff16158015610384576000805461ffff19166101011790555b60016065558015610191576000805461ff001916905550565b600054610100900460ff16806103b6575060005460ff16155b6103d25760405162461bcd60e51b81526004016101039061048a565b600054610100900460ff1615801561017f576000805461ffff19166101011790558015610191576000805461ff001916905550565b600054610100900460ff1680610420575060005460ff16155b61043c5760405162461bcd60e51b81526004016101039061048a565b600054610100900460ff1615801561045e576000805461ffff19166101011790555b61017f33610274565b600060208284031215610478578081fd5b81356104838161050d565b9392505050565b6020808252602e908201527f496e697469616c697a61626c653a20636f6e747261637420697320616c72656160408201526d191e481a5b9a5d1a585b1a5e995960921b606082015260800190565b6020808252818101527f4f776e61626c653a2063616c6c6572206973206e6f7420746865206f776e6572604082015260600190565b6001600160a01b038116811461019157600080fdfea2646970667358221220d907db887528a91a508d30e2502761b6b4fa3296a1f6297948cfd117be83154264736f6c63430008040033",
  "linkReferences": {},
  "deployedLinkReferences": {}
}